{
    "contractName": "InfinitySystemV2",
    "abi": [
        {
            "inputs": [],
            "stateMutability": "nonpayable",
            "type": "constructor"
        },
        {
            "anonymous": false,
            "inputs": [
                {
                    "indexed": true,
                    "internalType": "address",
                    "name": "admin",
                    "type": "address"
                }
            ],
            "name": "AdminRemoved",
            "type": "event"
        },
        {
            "anonymous": false,
            "inputs": [
                {
                    "indexed": true,
                    "internalType": "address",
                    "name": "admin",
                    "type": "address"
                }
            ],
            "name": "NewAdmin",
            "type": "event"
        },
        {
            "anonymous": false,
            "inputs": [
                {
                    "indexed": true,
                    "internalType": "address",
                    "name": "previousOwner",
                    "type": "address"
                },
                {
                    "indexed": true,
                    "internalType": "address",
                    "name": "newOwner",
                    "type": "address"
                }
            ],
            "name": "OwnershipTransferred",
            "type": "event"
        },
        {
            "stateMutability": "payable",
            "type": "fallback"
        },
        {
            "inputs": [
                {
                    "internalType": "address",
                    "name": "_tokenTRC20",
                    "type": "address"
                }
            ],
            "name": "ChangeTokenPrincipal",
            "outputs": [
                {
                    "internalType": "bool",
                    "name": "",
                    "type": "bool"
                }
            ],
            "stateMutability": "nonpayable",
            "type": "function"
        },
        {
            "inputs": [],
            "name": "MIN_RETIRO",
            "outputs": [
                {
                    "internalType": "uint256",
                    "name": "",
                    "type": "uint256"
                }
            ],
            "stateMutability": "view",
            "type": "function"
        },
        {
            "inputs": [],
            "name": "PRECIO_BLOCK",
            "outputs": [
                {
                    "internalType": "uint256",
                    "name": "",
                    "type": "uint256"
                }
            ],
            "stateMutability": "view",
            "type": "function"
        },
        {
            "inputs": [],
            "name": "PRECIO_BLOCK_infinity",
            "outputs": [
                {
                    "internalType": "uint256",
                    "name": "",
                    "type": "uint256"
                }
            ],
            "stateMutability": "view",
            "type": "function"
        },
        {
            "inputs": [
                {
                    "internalType": "bool[]",
                    "name": "old",
                    "type": "bool[]"
                }
            ],
            "name": "actualizarArrayBool",
            "outputs": [
                {
                    "internalType": "bool[]",
                    "name": "",
                    "type": "bool[]"
                }
            ],
            "stateMutability": "pure",
            "type": "function"
        },
        {
            "inputs": [
                {
                    "internalType": "uint256[]",
                    "name": "old",
                    "type": "uint256[]"
                }
            ],
            "name": "actualizarArrayUint256",
            "outputs": [
                {
                    "internalType": "uint256[]",
                    "name": "",
                    "type": "uint256[]"
                }
            ],
            "stateMutability": "pure",
            "type": "function"
        },
        {
            "inputs": [
                {
                    "internalType": "address[]",
                    "name": "oldNetwork",
                    "type": "address[]"
                }
            ],
            "name": "actualizarNetwork",
            "outputs": [
                {
                    "internalType": "address[]",
                    "name": "",
                    "type": "address[]"
                }
            ],
            "stateMutability": "pure",
            "type": "function"
        },
        {
            "inputs": [
                {
                    "internalType": "address",
                    "name": "",
                    "type": "address"
                }
            ],
            "name": "addressToId",
            "outputs": [
                {
                    "internalType": "uint256",
                    "name": "",
                    "type": "uint256"
                }
            ],
            "stateMutability": "view",
            "type": "function"
        },
        {
            "inputs": [
                {
                    "internalType": "address",
                    "name": "",
                    "type": "address"
                }
            ],
            "name": "admin",
            "outputs": [
                {
                    "internalType": "bool",
                    "name": "",
                    "type": "bool"
                }
            ],
            "stateMutability": "view",
            "type": "function"
        },
        {
            "inputs": [
                {
                    "internalType": "address[]",
                    "name": "network",
                    "type": "address[]"
                }
            ],
            "name": "allnetwork",
            "outputs": [
                {
                    "internalType": "address[]",
                    "name": "",
                    "type": "address[]"
                }
            ],
            "stateMutability": "view",
            "type": "function"
        },
        {
            "inputs": [
                {
                    "internalType": "address",
                    "name": "_user",
                    "type": "address"
                },
                {
                    "internalType": "uint256",
                    "name": "_value",
                    "type": "uint256"
                }
            ],
            "name": "asignarBlokePago",
            "outputs": [
                {
                    "internalType": "bool",
                    "name": "",
                    "type": "bool"
                }
            ],
            "stateMutability": "nonpayable",
            "type": "function"
        },
        {
            "inputs": [
                {
                    "internalType": "address",
                    "name": "_user",
                    "type": "address"
                },
                {
                    "internalType": "address",
                    "name": "_sponsor",
                    "type": "address"
                }
            ],
            "name": "asignarMembership",
            "outputs": [
                {
                    "internalType": "bool",
                    "name": "",
                    "type": "bool"
                }
            ],
            "stateMutability": "nonpayable",
            "type": "function"
        },
        {
            "inputs": [
                {
                    "internalType": "uint256",
                    "name": "",
                    "type": "uint256"
                }
            ],
            "name": "baserange",
            "outputs": [
                {
                    "internalType": "bool",
                    "name": "",
                    "type": "bool"
                }
            ],
            "stateMutability": "view",
            "type": "function"
        },
        {
            "inputs": [],
            "name": "baserangelength",
            "outputs": [
                {
                    "internalType": "uint256",
                    "name": "",
                    "type": "uint256"
                }
            ],
            "stateMutability": "view",
            "type": "function"
        },
        {
            "inputs": [
                {
                    "internalType": "uint256",
                    "name": "",
                    "type": "uint256"
                }
            ],
            "name": "blockesRango",
            "outputs": [
                {
                    "internalType": "uint256",
                    "name": "",
                    "type": "uint256"
                }
            ],
            "stateMutability": "view",
            "type": "function"
        },
        {
            "inputs": [
                {
                    "internalType": "address",
                    "name": "",
                    "type": "address"
                },
                {
                    "internalType": "uint256",
                    "name": "",
                    "type": "uint256"
                }
            ],
            "name": "blokes",
            "outputs": [
                {
                    "internalType": "uint256",
                    "name": "inicio",
                    "type": "uint256"
                },
                {
                    "internalType": "uint256",
                    "name": "value",
                    "type": "uint256"
                },
                {
                    "internalType": "uint256",
                    "name": "amount",
                    "type": "uint256"
                }
            ],
            "stateMutability": "view",
            "type": "function"
        },
        {
            "inputs": [
                {
                    "internalType": "uint256",
                    "name": "_value",
                    "type": "uint256"
                }
            ],
            "name": "buyBlocks",
            "outputs": [],
            "stateMutability": "nonpayable",
            "type": "function"
        },
        {
            "inputs": [
                {
                    "internalType": "uint256",
                    "name": "_value",
                    "type": "uint256"
                }
            ],
            "name": "buyInfinityBlock",
            "outputs": [],
            "stateMutability": "nonpayable",
            "type": "function"
        },
        {
            "inputs": [
                {
                    "internalType": "address",
                    "name": "yo",
                    "type": "address"
                },
                {
                    "internalType": "uint256",
                    "name": "_largo",
                    "type": "uint256"
                }
            ],
            "name": "column",
            "outputs": [
                {
                    "internalType": "address[]",
                    "name": "",
                    "type": "address[]"
                }
            ],
            "stateMutability": "view",
            "type": "function"
        },
        {
            "inputs": [
                {
                    "internalType": "address",
                    "name": "yo",
                    "type": "address"
                }
            ],
            "name": "columnHijos",
            "outputs": [
                {
                    "internalType": "address[]",
                    "name": "",
                    "type": "address[]"
                }
            ],
            "stateMutability": "view",
            "type": "function"
        },
        {
            "inputs": [
                {
                    "internalType": "bool",
                    "name": "_true_false",
                    "type": "bool"
                }
            ],
            "name": "controlWitdrawl",
            "outputs": [
                {
                    "internalType": "bool",
                    "name": "",
                    "type": "bool"
                }
            ],
            "stateMutability": "nonpayable",
            "type": "function"
        },
        {
            "inputs": [
                {
                    "internalType": "address",
                    "name": "_user",
                    "type": "address"
                },
                {
                    "internalType": "bool",
                    "name": "_infinity",
                    "type": "bool"
                }
            ],
            "name": "depositos",
            "outputs": [
                {
                    "internalType": "uint256[]",
                    "name": "",
                    "type": "uint256[]"
                },
                {
                    "internalType": "uint256[]",
                    "name": "",
                    "type": "uint256[]"
                },
                {
                    "internalType": "bool[]",
                    "name": "",
                    "type": "bool[]"
                },
                {
                    "internalType": "uint256",
                    "name": "",
                    "type": "uint256"
                }
            ],
            "stateMutability": "view",
            "type": "function"
        },
        {
            "inputs": [],
            "name": "descuento",
            "outputs": [
                {
                    "internalType": "uint256",
                    "name": "",
                    "type": "uint256"
                }
            ],
            "stateMutability": "view",
            "type": "function"
        },
        {
            "inputs": [],
            "name": "dias",
            "outputs": [
                {
                    "internalType": "uint256",
                    "name": "",
                    "type": "uint256"
                }
            ],
            "stateMutability": "view",
            "type": "function"
        },
        {
            "inputs": [],
            "name": "duracionMembership",
            "outputs": [
                {
                    "internalType": "uint256",
                    "name": "",
                    "type": "uint256"
                }
            ],
            "stateMutability": "view",
            "type": "function"
        },
        {
            "inputs": [
                {
                    "internalType": "uint256",
                    "name": "",
                    "type": "uint256"
                }
            ],
            "name": "gananciasRango",
            "outputs": [
                {
                    "internalType": "uint256",
                    "name": "",
                    "type": "uint256"
                }
            ],
            "stateMutability": "view",
            "type": "function"
        },
        {
            "inputs": [
                {
                    "internalType": "address",
                    "name": "",
                    "type": "address"
                },
                {
                    "internalType": "uint256",
                    "name": "",
                    "type": "uint256"
                }
            ],
            "name": "hijo",
            "outputs": [
                {
                    "internalType": "address",
                    "name": "",
                    "type": "address"
                }
            ],
            "stateMutability": "view",
            "type": "function"
        },
        {
            "inputs": [
                {
                    "internalType": "uint256",
                    "name": "",
                    "type": "uint256"
                }
            ],
            "name": "idToAddress",
            "outputs": [
                {
                    "internalType": "address",
                    "name": "",
                    "type": "address"
                }
            ],
            "stateMutability": "view",
            "type": "function"
        },
        {
            "inputs": [],
            "name": "implementation",
            "outputs": [
                {
                    "internalType": "address",
                    "name": "",
                    "type": "address"
                }
            ],
            "stateMutability": "view",
            "type": "function"
        },
        {
            "inputs": [
                {
                    "internalType": "address",
                    "name": "_user",
                    "type": "address"
                },
                {
                    "internalType": "address",
                    "name": "_sponsor",
                    "type": "address"
                }
            ],
            "name": "inMigracion",
            "outputs": [],
            "stateMutability": "nonpayable",
            "type": "function"
        },
        {
            "inputs": [
                {
                    "internalType": "uint256",
                    "name": "",
                    "type": "uint256"
                }
            ],
            "name": "infinity",
            "outputs": [
                {
                    "internalType": "uint256",
                    "name": "",
                    "type": "uint256"
                }
            ],
            "stateMutability": "view",
            "type": "function"
        },
        {
            "inputs": [
                {
                    "internalType": "address",
                    "name": "",
                    "type": "address"
                },
                {
                    "internalType": "uint256",
                    "name": "",
                    "type": "uint256"
                }
            ],
            "name": "infinityBlokes",
            "outputs": [
                {
                    "internalType": "uint256",
                    "name": "inicio",
                    "type": "uint256"
                },
                {
                    "internalType": "uint256",
                    "name": "value",
                    "type": "uint256"
                },
                {
                    "internalType": "uint256",
                    "name": "amount",
                    "type": "uint256"
                }
            ],
            "stateMutability": "view",
            "type": "function"
        },
        {
            "inputs": [
                {
                    "internalType": "address",
                    "name": "",
                    "type": "address"
                }
            ],
            "name": "investors",
            "outputs": [
                {
                    "internalType": "bool",
                    "name": "registered",
                    "type": "bool"
                },
                {
                    "internalType": "uint256",
                    "name": "membership",
                    "type": "uint256"
                },
                {
                    "internalType": "uint256",
                    "name": "balanceRef",
                    "type": "uint256"
                },
                {
                    "internalType": "uint256",
                    "name": "balanceInfinit",
                    "type": "uint256"
                },
                {
                    "internalType": "uint256",
                    "name": "totalRef",
                    "type": "uint256"
                },
                {
                    "internalType": "uint256",
                    "name": "invested",
                    "type": "uint256"
                },
                {
                    "internalType": "uint256",
                    "name": "paidAt",
                    "type": "uint256"
                },
                {
                    "internalType": "uint256",
                    "name": "paidAt2",
                    "type": "uint256"
                },
                {
                    "internalType": "uint256",
                    "name": "withdrawn",
                    "type": "uint256"
                },
                {
                    "internalType": "uint256",
                    "name": "directos",
                    "type": "uint256"
                },
                {
                    "internalType": "string",
                    "name": "data",
                    "type": "string"
                },
                {
                    "internalType": "uint256",
                    "name": "blokesDirectos",
                    "type": "uint256"
                }
            ],
            "stateMutability": "view",
            "type": "function"
        },
        {
            "inputs": [],
            "name": "lastUserId",
            "outputs": [
                {
                    "internalType": "uint256",
                    "name": "",
                    "type": "uint256"
                }
            ],
            "stateMutability": "view",
            "type": "function"
        },
        {
            "inputs": [
                {
                    "internalType": "address payable",
                    "name": "_newadmin",
                    "type": "address"
                }
            ],
            "name": "makeNewAdmin",
            "outputs": [],
            "stateMutability": "nonpayable",
            "type": "function"
        },
        {
            "inputs": [
                {
                    "internalType": "address payable",
                    "name": "_oldadmin",
                    "type": "address"
                }
            ],
            "name": "makeRemoveAdmin",
            "outputs": [],
            "stateMutability": "nonpayable",
            "type": "function"
        },
        {
            "inputs": [],
            "name": "newRecompensa",
            "outputs": [],
            "stateMutability": "nonpayable",
            "type": "function"
        },
        {
            "inputs": [
                {
                    "internalType": "address",
                    "name": "",
                    "type": "address"
                },
                {
                    "internalType": "uint256",
                    "name": "",
                    "type": "uint256"
                }
            ],
            "name": "oldBlokes",
            "outputs": [
                {
                    "internalType": "uint256",
                    "name": "inicio",
                    "type": "uint256"
                },
                {
                    "internalType": "uint256",
                    "name": "value",
                    "type": "uint256"
                },
                {
                    "internalType": "uint256",
                    "name": "amount",
                    "type": "uint256"
                }
            ],
            "stateMutability": "view",
            "type": "function"
        },
        {
            "inputs": [],
            "name": "onOffWitdrawl",
            "outputs": [
                {
                    "internalType": "bool",
                    "name": "",
                    "type": "bool"
                }
            ],
            "stateMutability": "view",
            "type": "function"
        },
        {
            "inputs": [],
            "name": "owner",
            "outputs": [
                {
                    "internalType": "address payable",
                    "name": "",
                    "type": "address"
                }
            ],
            "stateMutability": "view",
            "type": "function"
        },
        {
            "inputs": [
                {
                    "internalType": "address",
                    "name": "",
                    "type": "address"
                }
            ],
            "name": "padre",
            "outputs": [
                {
                    "internalType": "address",
                    "name": "",
                    "type": "address"
                }
            ],
            "stateMutability": "view",
            "type": "function"
        },
        {
            "inputs": [],
            "name": "personas",
            "outputs": [
                {
                    "internalType": "uint256",
                    "name": "",
                    "type": "uint256"
                }
            ],
            "stateMutability": "view",
            "type": "function"
        },
        {
            "inputs": [],
            "name": "porcent",
            "outputs": [
                {
                    "internalType": "uint256",
                    "name": "",
                    "type": "uint256"
                }
            ],
            "stateMutability": "view",
            "type": "function"
        },
        {
            "inputs": [
                {
                    "internalType": "uint256",
                    "name": "",
                    "type": "uint256"
                }
            ],
            "name": "porcientos",
            "outputs": [
                {
                    "internalType": "uint256",
                    "name": "",
                    "type": "uint256"
                }
            ],
            "stateMutability": "view",
            "type": "function"
        },
        {
            "inputs": [],
            "name": "precioRegistro",
            "outputs": [
                {
                    "internalType": "uint256",
                    "name": "",
                    "type": "uint256"
                }
            ],
            "stateMutability": "view",
            "type": "function"
        },
        {
            "inputs": [
                {
                    "internalType": "uint256",
                    "name": "",
                    "type": "uint256"
                }
            ],
            "name": "primervez",
            "outputs": [
                {
                    "internalType": "uint256",
                    "name": "",
                    "type": "uint256"
                }
            ],
            "stateMutability": "view",
            "type": "function"
        },
        {
            "inputs": [
                {
                    "internalType": "uint256",
                    "name": "",
                    "type": "uint256"
                }
            ],
            "name": "puntosRango",
            "outputs": [
                {
                    "internalType": "uint256",
                    "name": "",
                    "type": "uint256"
                }
            ],
            "stateMutability": "view",
            "type": "function"
        },
        {
            "inputs": [
                {
                    "internalType": "address",
                    "name": "",
                    "type": "address"
                },
                {
                    "internalType": "uint256",
                    "name": "",
                    "type": "uint256"
                }
            ],
            "name": "rangoReclamado",
            "outputs": [
                {
                    "internalType": "bool",
                    "name": "",
                    "type": "bool"
                }
            ],
            "stateMutability": "view",
            "type": "function"
        },
        {
            "inputs": [],
            "name": "redimBNB",
            "outputs": [
                {
                    "internalType": "uint256",
                    "name": "",
                    "type": "uint256"
                }
            ],
            "stateMutability": "nonpayable",
            "type": "function"
        },
        {
            "inputs": [
                {
                    "internalType": "uint256",
                    "name": "_value",
                    "type": "uint256"
                }
            ],
            "name": "redimTokenPrincipal02",
            "outputs": [
                {
                    "internalType": "uint256",
                    "name": "",
                    "type": "uint256"
                }
            ],
            "stateMutability": "nonpayable",
            "type": "function"
        },
        {
            "inputs": [
                {
                    "internalType": "address",
                    "name": "_sponsor",
                    "type": "address"
                },
                {
                    "internalType": "string",
                    "name": "_datos",
                    "type": "string"
                }
            ],
            "name": "registro",
            "outputs": [],
            "stateMutability": "nonpayable",
            "type": "function"
        },
        {
            "inputs": [
                {
                    "internalType": "address",
                    "name": "_contarct",
                    "type": "address"
                }
            ],
            "name": "setContratoMigracion",
            "outputs": [
                {
                    "internalType": "bool",
                    "name": "",
                    "type": "bool"
                }
            ],
            "stateMutability": "nonpayable",
            "type": "function"
        },
        {
            "inputs": [
                {
                    "internalType": "uint256",
                    "name": "_descuento",
                    "type": "uint256"
                }
            ],
            "name": "setDescuento",
            "outputs": [
                {
                    "internalType": "bool",
                    "name": "",
                    "type": "bool"
                }
            ],
            "stateMutability": "nonpayable",
            "type": "function"
        },
        {
            "inputs": [
                {
                    "internalType": "uint256",
                    "name": "_min",
                    "type": "uint256"
                }
            ],
            "name": "setMIN_RETIRO",
            "outputs": [
                {
                    "internalType": "uint256",
                    "name": "",
                    "type": "uint256"
                }
            ],
            "stateMutability": "nonpayable",
            "type": "function"
        },
        {
            "inputs": [
                {
                    "internalType": "uint256",
                    "name": "_nivel",
                    "type": "uint256"
                },
                {
                    "internalType": "uint256",
                    "name": "_value",
                    "type": "uint256"
                }
            ],
            "name": "setPorcientos",
            "outputs": [
                {
                    "internalType": "uint256[]",
                    "name": "",
                    "type": "uint256[]"
                }
            ],
            "stateMutability": "nonpayable",
            "type": "function"
        },
        {
            "inputs": [
                {
                    "internalType": "uint256",
                    "name": "_nivel",
                    "type": "uint256"
                },
                {
                    "internalType": "uint256",
                    "name": "_value",
                    "type": "uint256"
                }
            ],
            "name": "setPorcientosSalida",
            "outputs": [
                {
                    "internalType": "uint256[]",
                    "name": "",
                    "type": "uint256[]"
                }
            ],
            "stateMutability": "nonpayable",
            "type": "function"
        },
        {
            "inputs": [
                {
                    "internalType": "uint256",
                    "name": "_precio",
                    "type": "uint256"
                }
            ],
            "name": "setPrecioRegistro",
            "outputs": [
                {
                    "internalType": "bool",
                    "name": "",
                    "type": "bool"
                }
            ],
            "stateMutability": "nonpayable",
            "type": "function"
        },
        {
            "inputs": [
                {
                    "internalType": "uint256",
                    "name": "_value",
                    "type": "uint256"
                },
                {
                    "internalType": "bool",
                    "name": "_infinity",
                    "type": "bool"
                }
            ],
            "name": "setPriceBlock",
            "outputs": [
                {
                    "internalType": "bool",
                    "name": "",
                    "type": "bool"
                }
            ],
            "stateMutability": "nonpayable",
            "type": "function"
        },
        {
            "inputs": [
                {
                    "internalType": "uint256",
                    "name": "_nivel",
                    "type": "uint256"
                },
                {
                    "internalType": "uint256",
                    "name": "_value",
                    "type": "uint256"
                }
            ],
            "name": "setPrimeravezPorcientos",
            "outputs": [
                {
                    "internalType": "uint256[]",
                    "name": "",
                    "type": "uint256[]"
                }
            ],
            "stateMutability": "nonpayable",
            "type": "function"
        },
        {
            "inputs": [
                {
                    "internalType": "bool[]",
                    "name": "_baserange",
                    "type": "bool[]"
                },
                {
                    "internalType": "uint256[]",
                    "name": "_gananciasRango",
                    "type": "uint256[]"
                },
                {
                    "internalType": "uint256[]",
                    "name": "_puntosRango",
                    "type": "uint256[]"
                }
            ],
            "name": "setRangos",
            "outputs": [
                {
                    "internalType": "bool",
                    "name": "",
                    "type": "bool"
                }
            ],
            "stateMutability": "nonpayable",
            "type": "function"
        },
        {
            "inputs": [
                {
                    "internalType": "uint256",
                    "name": "_porcentaje",
                    "type": "uint256"
                }
            ],
            "name": "setRetorno",
            "outputs": [
                {
                    "internalType": "uint256",
                    "name": "",
                    "type": "uint256"
                }
            ],
            "stateMutability": "nonpayable",
            "type": "function"
        },
        {
            "inputs": [
                {
                    "internalType": "uint256",
                    "name": "_dias",
                    "type": "uint256"
                }
            ],
            "name": "setTiempo",
            "outputs": [
                {
                    "internalType": "uint256",
                    "name": "",
                    "type": "uint256"
                }
            ],
            "stateMutability": "nonpayable",
            "type": "function"
        },
        {
            "inputs": [
                {
                    "internalType": "uint256",
                    "name": "_unidades",
                    "type": "uint256"
                }
            ],
            "name": "setTiempoUnidades",
            "outputs": [
                {
                    "internalType": "uint256",
                    "name": "",
                    "type": "uint256"
                }
            ],
            "stateMutability": "nonpayable",
            "type": "function"
        },
        {
            "inputs": [
                {
                    "internalType": "address[]",
                    "name": "_wallet",
                    "type": "address[]"
                },
                {
                    "internalType": "uint256[]",
                    "name": "_fee",
                    "type": "uint256[]"
                }
            ],
            "name": "setWalletFee",
            "outputs": [
                {
                    "internalType": "bool",
                    "name": "",
                    "type": "bool"
                }
            ],
            "stateMutability": "nonpayable",
            "type": "function"
        },
        {
            "inputs": [
                {
                    "internalType": "address[]",
                    "name": "_wallets",
                    "type": "address[]"
                },
                {
                    "internalType": "uint256[]",
                    "name": "_valores",
                    "type": "uint256[]"
                }
            ],
            "name": "setWalletstransfers",
            "outputs": [
                {
                    "internalType": "bool",
                    "name": "",
                    "type": "bool"
                }
            ],
            "stateMutability": "nonpayable",
            "type": "function"
        },
        {
            "inputs": [
                {
                    "internalType": "uint256",
                    "name": "_duracionMembership",
                    "type": "uint256"
                }
            ],
            "name": "setduracionMembership",
            "outputs": [
                {
                    "internalType": "bool",
                    "name": "",
                    "type": "bool"
                }
            ],
            "stateMutability": "nonpayable",
            "type": "function"
        },
        {
            "inputs": [],
            "name": "tiempo",
            "outputs": [
                {
                    "internalType": "uint256",
                    "name": "",
                    "type": "uint256"
                }
            ],
            "stateMutability": "view",
            "type": "function"
        },
        {
            "inputs": [],
            "name": "tokenPricipal",
            "outputs": [
                {
                    "internalType": "address",
                    "name": "",
                    "type": "address"
                }
            ],
            "stateMutability": "view",
            "type": "function"
        },
        {
            "inputs": [],
            "name": "totalInvested",
            "outputs": [
                {
                    "internalType": "uint256",
                    "name": "",
                    "type": "uint256"
                }
            ],
            "stateMutability": "view",
            "type": "function"
        },
        {
            "inputs": [],
            "name": "totalInvestors",
            "outputs": [
                {
                    "internalType": "uint256",
                    "name": "",
                    "type": "uint256"
                }
            ],
            "stateMutability": "view",
            "type": "function"
        },
        {
            "inputs": [],
            "name": "totalRange",
            "outputs": [
                {
                    "internalType": "uint256",
                    "name": "",
                    "type": "uint256"
                }
            ],
            "stateMutability": "view",
            "type": "function"
        },
        {
            "inputs": [],
            "name": "totalRangeWitdrawl",
            "outputs": [
                {
                    "internalType": "uint256",
                    "name": "",
                    "type": "uint256"
                }
            ],
            "stateMutability": "view",
            "type": "function"
        },
        {
            "inputs": [],
            "name": "totalRefRewards",
            "outputs": [
                {
                    "internalType": "uint256",
                    "name": "",
                    "type": "uint256"
                }
            ],
            "stateMutability": "view",
            "type": "function"
        },
        {
            "inputs": [],
            "name": "totalRefWitdrawl",
            "outputs": [
                {
                    "internalType": "uint256",
                    "name": "",
                    "type": "uint256"
                }
            ],
            "stateMutability": "view",
            "type": "function"
        },
        {
            "inputs": [],
            "name": "totalRoiWitdrawl",
            "outputs": [
                {
                    "internalType": "uint256",
                    "name": "",
                    "type": "uint256"
                }
            ],
            "stateMutability": "view",
            "type": "function"
        },
        {
            "inputs": [],
            "name": "totalTeamWitdrawl",
            "outputs": [
                {
                    "internalType": "uint256",
                    "name": "",
                    "type": "uint256"
                }
            ],
            "stateMutability": "view",
            "type": "function"
        },
        {
            "inputs": [
                {
                    "internalType": "address payable",
                    "name": "newOwner",
                    "type": "address"
                }
            ],
            "name": "transferOwnership",
            "outputs": [],
            "stateMutability": "nonpayable",
            "type": "function"
        },
        {
            "inputs": [],
            "name": "unidades",
            "outputs": [
                {
                    "internalType": "uint256",
                    "name": "",
                    "type": "uint256"
                }
            ],
            "stateMutability": "view",
            "type": "function"
        },
        {
            "inputs": [
                {
                    "internalType": "address",
                    "name": "_user",
                    "type": "address"
                },
                {
                    "internalType": "uint256",
                    "name": "_value",
                    "type": "uint256"
                },
                {
                    "internalType": "bool",
                    "name": "_add",
                    "type": "bool"
                }
            ],
            "name": "updateBloke",
            "outputs": [],
            "stateMutability": "nonpayable",
            "type": "function"
        },
        {
            "inputs": [
                {
                    "internalType": "address",
                    "name": "_user",
                    "type": "address"
                },
                {
                    "internalType": "uint256",
                    "name": "_value",
                    "type": "uint256"
                },
                {
                    "internalType": "bool",
                    "name": "_add",
                    "type": "bool"
                }
            ],
            "name": "updateBlokeRange",
            "outputs": [],
            "stateMutability": "nonpayable",
            "type": "function"
        },
        {
            "inputs": [
                {
                    "internalType": "address",
                    "name": "_imp",
                    "type": "address"
                }
            ],
            "name": "upgradeImplementation",
            "outputs": [],
            "stateMutability": "nonpayable",
            "type": "function"
        },
        {
            "inputs": [],
            "name": "upgraded",
            "outputs": [
                {
                    "internalType": "uint256",
                    "name": "",
                    "type": "uint256"
                }
            ],
            "stateMutability": "view",
            "type": "function"
        },
        {
            "inputs": [
                {
                    "internalType": "uint256",
                    "name": "",
                    "type": "uint256"
                }
            ],
            "name": "usdtRetirado",
            "outputs": [
                {
                    "internalType": "uint256",
                    "name": "",
                    "type": "uint256"
                }
            ],
            "stateMutability": "view",
            "type": "function"
        },
        {
            "inputs": [
                {
                    "internalType": "uint256",
                    "name": "",
                    "type": "uint256"
                }
            ],
            "name": "valor",
            "outputs": [
                {
                    "internalType": "uint256",
                    "name": "",
                    "type": "uint256"
                }
            ],
            "stateMutability": "view",
            "type": "function"
        },
        {
            "inputs": [
                {
                    "internalType": "uint256",
                    "name": "",
                    "type": "uint256"
                }
            ],
            "name": "valorFee",
            "outputs": [
                {
                    "internalType": "uint256",
                    "name": "",
                    "type": "uint256"
                }
            ],
            "stateMutability": "view",
            "type": "function"
        },
        {
            "inputs": [],
            "name": "version",
            "outputs": [
                {
                    "internalType": "uint256",
                    "name": "",
                    "type": "uint256"
                }
            ],
            "stateMutability": "view",
            "type": "function"
        },
        {
            "inputs": [
                {
                    "internalType": "uint256",
                    "name": "",
                    "type": "uint256"
                }
            ],
            "name": "wallet",
            "outputs": [
                {
                    "internalType": "address",
                    "name": "",
                    "type": "address"
                }
            ],
            "stateMutability": "view",
            "type": "function"
        },
        {
            "inputs": [
                {
                    "internalType": "uint256",
                    "name": "",
                    "type": "uint256"
                }
            ],
            "name": "walletFee",
            "outputs": [
                {
                    "internalType": "address",
                    "name": "",
                    "type": "address"
                }
            ],
            "stateMutability": "view",
            "type": "function"
        },
        {
            "inputs": [],
            "name": "withdraw",
            "outputs": [],
            "stateMutability": "nonpayable",
            "type": "function"
        },
        {
            "inputs": [],
            "name": "withdraw2",
            "outputs": [],
            "stateMutability": "nonpayable",
            "type": "function"
        },
        {
            "inputs": [],
            "name": "withdrawTeam",
            "outputs": [],
            "stateMutability": "nonpayable",
            "type": "function"
        },
        {
            "inputs": [
                {
                    "internalType": "address",
                    "name": "any_user",
                    "type": "address"
                },
                {
                    "internalType": "bool",
                    "name": "_infinity",
                    "type": "bool"
                }
            ],
            "name": "withdrawable",
            "outputs": [
                {
                    "internalType": "uint256",
                    "name": "",
                    "type": "uint256"
                }
            ],
            "stateMutability": "view",
            "type": "function"
        },
        {
            "inputs": [
                {
                    "internalType": "address",
                    "name": "any_user",
                    "type": "address"
                }
            ],
            "name": "withdrawableRange",
            "outputs": [
                {
                    "internalType": "uint256",
                    "name": "amount",
                    "type": "uint256"
                }
            ],
            "stateMutability": "view",
            "type": "function"
        },
        {
            "stateMutability": "payable",
            "type": "receive"
        }
    ],
    "bytecode": "600480546001600160a01b03199081167355d398326f99059ff775485246999027b31979559081179092556005805482167347da06e10cf59f00cce3aeb66f9779b5e1da2b7f1781556006805490921690921790556002600755674563918244f400006008556802b5e3af16b18800006009556801a055690d9db80000600a90815561012060405260326080908152601e60a052601460c05260e082905261010091909152620000b391600b919062000581565b506040805160a081018252600f8152600960208201526006918101919091526003606082018190526080820152620000f090600c90600562000581565b506040805160a08101825260058082526003602083015260029282019290925260016060820181905260808201526200012d91600d919062000581565b506040805161016081018252600080825260208201819052918101829052606081018290526080810182905260a0810182905260c0810182905260e08101829052610100810182905261012081018290526101408101919091526200019790600e90600b620005d6565b506040805161016081018252680410d586a20a4c00008152680821ab0d441498000060208201526814542ba12a337c0000918101919091526828a857425466f800006060820152685150ae84a8cdf00000608082015268cb49b44ba602d8000060a08201526901969368974c05b0000060c082015269032d26d12e980b60000060e0820152690a968163f0a57b400000610100820152691fc3842bd1f071c000006101208201526934f086f3b33b684000006101408201526200025f90600f90600b6200067d565b50604080516101608101825269010f0cf064dd59200000815269021e19e0c9bab2400000602082015269054b40b1f852bda0000091810191909152690a968163f0a57b400000606082015269152d02c7e14af680000060808201526934f086f3b33b6840000060a08201526969e10de76676d080000060c082015269d3c21bcecceda100000060e08201526a0422ca8b0a00a4250000006101008201526a0c685fa11e01ec6f0000006101208201526a14adf4b7320334b90000006101408201526200033090601090600b620006c6565b506011805460ff1916600190811790915561016d6012556103846013556201518060145560f0601555606460165560026017819055601882905560299190915560408051808201909152734490566647735e8cbce0ce96efc8fb91c164859b815273d0f2fcdf7d399205e9709c6d0fbee434335e42dd6020820152620003ba91602a91906200070f565b506040805180820190915260058152605f6020820152620003e090602b90600262000581565b506801a055690d9db80000602c55604080516060810182527317a7e5b2d9b5d191f7307e990e630c9dc18e1396815273afe9d039ec7d4409b1b8c2f1556f20843079b7286020820152738dd59f5670e9809c8a800a49d1ff1cea471c53da918101919091526200045590602d9060036200070f565b506040805160608101825260468152600860208201526005918101919091526200048490602e90600362000581565b503480156200049257600080fd5b50600080546001600160a01b0319163390811782558152600160208181526040808420805460ff19908116851790915584546001600160a01b03168552601e9092529092208054909216178155601454601254620004f19190620007e5565b6200050590670de0b6b3a7640000620007e5565b62000511904262000807565b6001820155336000908152602660205260409020600e80546200053692919062000767565b50507fb7634ec2165a7280a285aac3ec10cf370eca86d8aa9d3243c90b2151434091ad80546001600160a01b0319163390811790915560009081526025602052604081205562000822565b828054828255906000526020600020908101928215620005c4579160200282015b82811115620005c4578251829060ff16905591602001919060010190620005a2565b50620005d2929150620007b8565b5090565b82805482825590600052602060002090601f01602090048101928215620005c45791602002820160005b838211156200063f57835183826101000a81548160ff021916908315150217905550926020019260010160208160000104928301926001030262000600565b80156200066e5782816101000a81549060ff02191690556001016020816000010492830192600103026200063f565b5050620005d2929150620007b8565b828054828255906000526020600020908101928215620005c4579160200282015b82811115620005c457825182906001600160501b03169055916020019190600101906200069e565b828054828255906000526020600020908101928215620005c4579160200282015b82811115620005c457825182906001600160581b0316905591602001919060010190620006e7565b828054828255906000526020600020908101928215620005c4579160200282015b82811115620005c457825182546001600160a01b0319166001600160a01b0390911617825560209092019160019091019062000730565b82805482825590600052602060002090601f01602090048101928215620005c457600052602060002091601f016020900482015b82811115620005c45782548255916001019190600101906200079b565b5b80821115620005d25760008155600101620007b9565b634e487b7160e01b600052601160045260246000fd5b6000816000190483118215151615620008025762000802620007cf565b500290565b600082198211156200081d576200081d620007cf565b500190565b6151bf80620008326000396000f3fe6080604052600436106105065760003560e01c8063725fc27011610297578063b35f0a8f11610165578063ea98847b116100cc578063f90b3f5a11610085578063f90b3f5a1461100d578063fc5d86151461102d578063fcec0fdf1461104d578063fd14d5981461106d578063fd9a3fad14611082578063ff0b0cc5146110a257610522565b8063ea98847b14610f79578063ecdb171f14610f8e578063edf5eb1d14610fa3578063eef117fd14610fc3578063f2fde38b14610fd8578063f5c9dbef14610ff857610522565b8063c28de2cd1161011e578063c28de2cd14610ed0578063c40d5dbc14610ee6578063cb0e0d7d14610efc578063cc759ba214610f29578063cfda9ee614610f3f578063e7348e8c14610f5f57610522565b8063b35f0a8f14610e02578063b3d9fa0914610e38578063b5df6d4414610e58578063bb51f32d14610e85578063bfe0e02014610e9a578063c17dbdf914610eb057610522565b80638da5cb5b11610209578063a5a7e04c116101c2578063a5a7e04c14610d4c578063a8beb71714610d6c578063aaa749c514610d8c578063ab6db19914610dac578063b139042614610dc2578063b17b6e4414610de257610522565b80638da5cb5b14610c865780638f9ef8c114610ca657806398c07d0a14610cc65780639b8ff50314610ce6578063a278133514610cfc578063a365528b14610d1c57610522565b80637faee0471161025b5780637faee04714610bb95780637fcc1e3614610bd95780638103289214610c06578063815374ca14610c2657806383f94db714610c4657806389b2521c14610c6657610522565b8063725fc27014610b2d5780637367b08014610b4d5780637583f8fc14610b6d5780637b0412ed14610b8d5780637db9e9c614610ba357610522565b80634728f718116103d4578063625509161161034657806369f4a84b116102ff57806369f4a84b14610a745780636c52927914610a895780636f7bc9be14610a9f57806370a0966b14610ad757806370d7e3d514610af75780637251b9ac14610b0d57610522565b806362550916146109ae578063627b31b0146109ce57806363a846f8146109e457806365535cb014610a145780636589fa8a14610a3457806369ed1e0a14610a5457610522565b806350da983f1161039857806350da983f146109025780635216aeec14610922578063548225221461093857806354fd4d50146109585780635c60da1b1461096e5780635d216c601461098e57610522565b80634728f718146108815780634acb7240146108975780634b9b8203146108b75780634de1be62146108cd57806350188c08146108ed57610522565b806328cca71911610478578063317cc77211610431578063317cc772146107bb578063339640b5146107db578063348d4487146107fb5780633ccfd60b1461081157806341f1771c1461082657806343bf0bd41461086157610522565b806328cca719146106d757806329b8caff146106f757806329e1a2431461070d5780632a2d0c471461072d5780632acc82101461077b57806330d2949f1461079b57610522565b80631e403c35116104ca5780631e403c35146106075780631f5d65fd1461063457806321309f211461066157806323e5a5a11461068157806324de19f2146106a15780632748d29b146106b757610522565b8063047ff6d2146105375780631053abb1146105575780631140e85b1461058c57806315e8392b146105ba5780631ce7f99b146105e757610522565b3661052257600254610520906001600160a01b03166110b8565b005b600254610520906001600160a01b03166110b8565b34801561054357600080fd5b5061052061055236600461493c565b6110e1565b34801561056357600080fd5b5061057761057236600461493c565b61149a565b60405190151581526020015b60405180910390f35b34801561059857600080fd5b506105ac6105a7366004614975565b611663565b604051908152602001610583565b3480156105c657600080fd5b506105da6105d536600461498e565b611772565b60405161058391906149ba565b3480156105f357600080fd5b506105da610602366004614ae6565b611807565b34801561061357600080fd5b50610627610622366004614b1b565b6118c6565b6040516105839190614b78565b34801561064057600080fd5b506105ac61064f366004614975565b60286020526000908152604090205481565b34801561066d57600080fd5b506105ac61067c366004614975565b61195b565b34801561068d57600080fd5b5061057761069c366004614b99565b61197c565b3480156106ad57600080fd5b506105ac60095481565b3480156106c357600080fd5b506105ac6106d2366004614975565b6119b3565b3480156106e357600080fd5b506105ac6106f2366004614975565b6119d4565b34801561070357600080fd5b506105ac60185481565b34801561071957600080fd5b506105ac610728366004614975565b6119e4565b34801561073957600080fd5b50610763610748366004614975565b6024602052600090815260409020546001600160a01b031681565b6040516001600160a01b039091168152602001610583565b34801561078757600080fd5b5061057761079636600461498e565b6119f4565b3480156107a757600080fd5b506105776107b6366004614bbe565b611a37565b3480156107c757600080fd5b506105206107d6366004614bdb565b611a74565b3480156107e757600080fd5b506107636107f636600461498e565b611be9565b34801561080757600080fd5b506105ac60295481565b34801561081d57600080fd5b50610520611c21565b34801561083257600080fd5b5061084661084136600461498e565b611dae565b60408051938452602084019290925290820152606001610583565b34801561086d57600080fd5b5061057761087c366004614cdc565b611def565b34801561088d57600080fd5b506105ac60155481565b3480156108a357600080fd5b506105776108b2366004614975565b611e6e565b3480156108c357600080fd5b506105ac60145481565b3480156108d957600080fd5b506105ac6108e8366004614975565b611e8f565b3480156108f957600080fd5b506105ac611eb0565b34801561090e57600080fd5b5061057761091d366004614bbe565b611ece565b34801561092e57600080fd5b506105ac60195481565b34801561094457600080fd5b50610627610953366004614b1b565b611f19565b34801561096457600080fd5b506105ac60075481565b34801561097a57600080fd5b50600254610763906001600160a01b031681565b34801561099a57600080fd5b506106276109a9366004614b1b565b611fac565b3480156109ba57600080fd5b506105ac6109c9366004614975565b61203f565b3480156109da57600080fd5b506105ac600a5481565b3480156109f057600080fd5b506105776109ff366004614bbe565b60016020526000908152604090205460ff1681565b348015610a2057600080fd5b50610520610a2f366004614bdb565b61204f565b348015610a4057600080fd5b506105ac610a4f366004614975565b6120eb565b348015610a6057600080fd5b50610520610a6f366004614bbe565b612110565b348015610a8057600080fd5b5061052061219a565b348015610a9557600080fd5b506105ac60085481565b348015610aab57600080fd5b50610abf610aba366004614bbe565b6124b4565b6040516105839c9b9a99989796959493929190614d64565b348015610ae357600080fd5b50610520610af2366004614bbe565b6125a1565b348015610b0357600080fd5b506105ac601b5481565b348015610b1957600080fd5b50610763610b28366004614975565b612620565b348015610b3957600080fd5b506105ac610b48366004614975565b61264a565b348015610b5957600080fd5b50610627610b68366004614e16565b61265a565b348015610b7957600080fd5b50610577610b88366004614e4b565b612705565b348015610b9957600080fd5b506105ac60165481565b348015610baf57600080fd5b506105ac602c5481565b348015610bc557600080fd5b506105da610bd4366004614ae6565b61274e565b348015610be557600080fd5b50610bf9610bf4366004614eaf565b61286b565b6040516105839190614f16565b348015610c1257600080fd5b506105ac610c21366004614975565b61291b565b348015610c3257600080fd5b506105da610c41366004614bbe565b61292b565b348015610c5257600080fd5b50610520610c61366004614bbe565b6129e2565b348015610c7257600080fd5b506105ac610c81366004614f29565b612a2c565b348015610c9257600080fd5b50600054610763906001600160a01b031681565b348015610cb257600080fd5b50610520610cc1366004614f57565b612a4d565b348015610cd257600080fd5b506105ac610ce1366004614bbe565b612e03565b348015610cf257600080fd5b506105ac601c5481565b348015610d0857600080fd5b50610763610d17366004614975565b612ff3565b348015610d2857600080fd5b50610d3c610d37366004614f29565b613003565b6040516105839493929190614fff565b348015610d5857600080fd5b50610520610d67366004614975565b613510565b348015610d7857600080fd5b50610577610d87366004614e4b565b613721565b348015610d9857600080fd5b50610577610da7366004614975565b613760565b348015610db857600080fd5b506105ac60135481565b348015610dce57600080fd5b50600454610763906001600160a01b031681565b348015610dee57600080fd5b50610577610dfd36600461504a565b613781565b348015610e0e57600080fd5b50610763610e1d366004614bbe565b6022602052600090815260409020546001600160a01b031681565b348015610e4457600080fd5b50610577610e53366004614975565b6137af565b348015610e6457600080fd5b506105ac610e73366004614975565b60276020526000908152604090205481565b348015610e9157600080fd5b506105206137d0565b348015610ea657600080fd5b506105ac601a5481565b348015610ebc57600080fd5b50610520610ecb366004614975565b613925565b348015610edc57600080fd5b506105ac60035481565b348015610ef257600080fd5b506105ac60125481565b348015610f0857600080fd5b506105ac610f17366004614bbe565b60256020526000908152604090205481565b348015610f3557600080fd5b506105ac60175481565b348015610f4b57600080fd5b50610577610f5a366004614975565b613d5e565b348015610f6b57600080fd5b506011546105779060ff1681565b348015610f8557600080fd5b50610520613d92565b348015610f9a57600080fd5b506105ac613f17565b348015610faf57600080fd5b506105ac610fbe366004614975565b613fc2565b348015610fcf57600080fd5b506105ac613fd2565b348015610fe457600080fd5b50610520610ff3366004614bbe565b61400f565b34801561100457600080fd5b50600e546105ac565b34801561101957600080fd5b506105ac611028366004614975565b614120565b34801561103957600080fd5b5061057761104836600461498e565b614145565b34801561105957600080fd5b5061084661106836600461498e565b6142c3565b34801561107957600080fd5b506105ac6142df565b34801561108e57600080fd5b5061084661109d36600461498e565b614338565b3480156110ae57600080fd5b506105ac601d5481565b3660008037600080366000845af43d6000803e8080156110d7573d6000f35b3d6000fd5b505050565b6001600160a01b0382166000908152601e60205260409020805460ff1661144e57805460ff191660011781556014546012546111299190611123904290614354565b90614370565b60018201556001600160a01b03838116600090815260226020908152604080832080546001600160a01b0319169487169485179055928252601e90529081206009018054916111778361507d565b90915550506001600160a01b038281166000908152602360209081526040822080546001810182559083529082200180546001600160a01b0319169286169290921790915560188054916111ca8361507d565b90915550506001600160a01b0383166000908152602660205260409020600e80546111f692919061470e565b5060298054600090815260246020908152604080832080546001600160a01b0319166001600160a01b03891690811790915584549084526025909252822081905591906112428361507d565b90915550504260068201819055600782015560055460405163226c948760e21b81526001600160a01b038581166004830152600060248301819052926112e09260f0926112da926064929116906389b2521c906044015b602060405180830381865afa1580156112b6573d6000803e3d6000fd5b505050506040513d601f19601f820116820180604052508101906111239190615098565b906143a2565b905080156113e857600582018190556001600160a01b03848116600090815260226020526040902054161580159061133357506001600160a01b0380851660008181526022602052604090205490911614155b156113c2576001600160a01b038085166000908152602260209081526040808320549093168252601e9052908120600b0180548392906113749084906150b1565b90915550506001600160a01b038085166000908152602260209081526040808320549093168252602581528282205482526027905290812080548392906113bc9084906150b1565b90915550505b80601960008282546113d491906150b1565b909155506113e69050848260006143c4565b505b60055460405163226c948760e21b81526001600160a01b038681166004830152600160248301526000926114319260f0926112da926064929116906389b2521c90604401611299565b9050801561144757611445858260016143c4565b505b5050505050565b60405162461bcd60e51b815260206004820152601760248201527f6e6f2065737461207265676973747261646f2070617069000000000000000000604482015260640160405180910390fd5b3360009081526001602052604081205460ff166114b657600080fd5b6001600160a01b0382166114c957600080fd5b6001600160a01b0383166000908152601e60205260409020805460ff1661163257805460ff1916600117815560145460125461150591906150c9565b61150f90426150b1565b60018201556001600160a01b03848116600090815260226020908152604080832080546001600160a01b0319169488169485179055928252601e905290812060090180549161155d8361507d565b90915550506001600160a01b038381166000908152602360209081526040822080546001810182559083529082200180546001600160a01b0319169287169290921790915560188054916115b08361507d565b90915550506001600160a01b0384166000908152602660205260409020600e80546115dc92919061470e565b5060298054600090815260246020908152604080832080546001600160a01b0319166001600160a01b038a1690811790915584549084526025909252822081905591906116288361507d565b9190505550611657565b60145460125461164291906150c9565b816001015461165191906150b1565b60018201555b60019150505b92915050565b600080546001600160a01b0316331461167b57600080fd5b6006546040516370a0823160e01b815230600482015283916001600160a01b0316906370a0823190602401602060405180830381865afa1580156116c3573d6000803e3d6000fd5b505050506040513d601f19601f820116820180604052508101906116e79190615098565b10156116f257600080fd5b60065460005460405163a9059cbb60e01b81526001600160a01b0391821660048201526024810185905291169063a9059cbb906044016020604051808303816000875af1158015611747573d6000803e3d6000fd5b505050506040513d601f19601f8201168201806040525081019061176b91906150e8565b5090919050565b60608060005b838110156117ff5761178982611807565b6001600160a01b03808716600090815260226020526040902054825192945016908390839081106117bc576117bc615105565b6001600160a01b039283166020918202929092018101919091529581166000908152602290965260409095205490941693806117f78161507d565b915050611778565b509392505050565b606060008251600161181991906150b1565b67ffffffffffffffff81111561183157611831614a07565b60405190808252806020026020018201604052801561185a578160200160208202803683370190505b50905060005b83518110156118bf5783818151811061187b5761187b615105565b602002602001015182828151811061189557611895615105565b6001600160a01b0390921660209283029190910190910152806118b78161507d565b915050611860565b5092915050565b6000546060906001600160a01b031633146118e057600080fd5b81600c84815481106118f4576118f4615105565b9060005260206000200181905550600c80548060200260200160405190810160405280929190818152602001828054801561194e57602002820191906000526020600020905b81548152602001906001019080831161193a575b5050505050905092915050565b6010818154811061196b57600080fd5b600091825260209091200154905081565b600080546001600160a01b0316331461199457600080fd5b81156119a457600a8390556119aa565b60098390555b50600192915050565b600080546001600160a01b031633146119cb57600080fd5b50601481905590565b600c818154811061196b57600080fd5b602b818154811061196b57600080fd5b60266020528160005260406000208181548110611a1057600080fd5b9060005260206000209060209182820401919006915091509054906101000a900460ff1681565b600080546001600160a01b03163314611a4f57600080fd5b50600580546001600160a01b0383166001600160a01b03199091161790556001919050565b3360009081526001602052604090205460ff16611a9057600080fd5b60008211611a9d57600080fd5b8015611ba2576001600160a01b0383166000908152601e6020526040902060050154611ac99083614354565b6001600160a01b038085166000908152601e602090815260408083206005019490945560229052919091205416156110dc576001600160a01b038084166000908152602260209081526040808320549093168252601e9052908120600b018054849290611b379084906150b1565b90915550506001600160a01b03808416600090815260226020908152604080832054909316825260258152828220548252602790529081208054849290611b7f9084906150b1565b925050819055508160196000828254611b9891906150b1565b9091555050505050565b6001600160a01b0383166000908152601e6020526040902060050154611bc89083614531565b6001600160a01b0384166000908152601e6020526040902060050155505050565b60236020528160005260406000208181548110611c0557600080fd5b6000918252602090912001546001600160a01b03169150829050565b60115460ff16611c3057600080fd5b336000818152601e6020526040812091611c4a9082612a2c565b6006546040516370a0823160e01b815230600482015291925082916001600160a01b03909116906370a0823190602401602060405180830381865afa158015611c97573d6000803e3d6000fd5b505050506040513d601f19601f82011682018060405250810190611cbb9190615098565b1015611cc657600080fd5b600854811015611cd557600080fd5b6006546016546001600160a01b039091169063a9059cbb903390611d01906064906112da908790614370565b6040516001600160e01b031960e085901b1681526001600160a01b03909216600483015260248201526044016020604051808303816000875af1158015611d4c573d6000803e3d6000fd5b505050506040513d601f19601f82011682018060405250810190611d7091906150e8565b5080826008016000828254611d8591906150b1565b9091555050426006830155601b8054829190600090611da59084906150b1565b90915550505050565b602080528160005260406000208181548110611dc957600080fd5b600091825260209091206003909102018054600182015460029092015490935090915083565b600080546001600160a01b03163314611e0757600080fd5b8351611e1a90600e90602087019061476c565b508251611e2e90600f90602086019061480c565b508151611e4290601090602085019061480c565b50336000908152602660205260409020600e8054611e6192919061470e565b50600190505b9392505050565b600080546001600160a01b03163314611e8657600080fd5b50601255600190565b600080546001600160a01b03163314611ea757600080fd5b50600881905590565b6000611ec960145460135461437090919063ffffffff16565b905090565b600080546001600160a01b03163314611ee657600080fd5b50600680546001600160a01b0383166001600160a01b031991821681179092556004805490911690911790556001919050565b6000546060906001600160a01b03163314611f3357600080fd5b81600b8481548110611f4757611f47615105565b9060005260206000200181905550600b80548060200260200160405190810160405280929190818152602001828054801561194e576020028201919060005260206000209081548152602001906001019080831161193a575050505050905092915050565b6000546060906001600160a01b03163314611fc657600080fd5b81600d8481548110611fda57611fda615105565b9060005260206000200181905550600d80548060200260200160405190810160405280929190818152602001828054801561194e576020028201919060005260206000209081548152602001906001019080831161193a575050505050905092915050565b602e818154811061196b57600080fd5b3360009081526001602052604090205460ff1661206b57600080fd5b6000821161207857600080fd5b80156120c5576001600160a01b0383166000908152601e60205260409020600b01546120a49083614354565b6001600160a01b0384166000908152601e60205260409020600b0155505050565b6001600160a01b0383166000908152601e60205260409020600b01546120a49083614531565b3360009081526001602052604081205460ff1661210757600080fd5b50601581905590565b3360009081526001602052604090205460ff1661212c57600080fd5b6001600160a01b03811661213f57600080fd5b6040516001600160a01b038216907f71614071b88dee5e0b2ae578a9dd7b2ebbe9ae832ba419dc0242cd065a290b6c90600090a26001600160a01b03166000908152600160208190526040909120805460ff19169091179055565b60006121a533612e03565b9050600081116121b457600080fd5b336000908152601e60209081526040808320815161018081018352815460ff16151581526001820154938101939093526002810154918301919091526003810154606083015260048101546080830152600581015460a0830152600681015460c0830152600781015460e083015260088101546101008301526009810154610120830152600a810180546101408401919061224e9061511b565b80601f016020809104026020016040519081016040528092919081815260200182805461227a9061511b565b80156122c75780601f1061229c576101008083540402835291602001916122c7565b820191906000526020600020905b8154815290600101906020018083116122aa57829003601f168201915b50505050508152602001600b82015481525050905060005b600f548110156110dc57601081815481106122fc576122fc615105565b906000526020600020015482610160015110158015612359575033600090815260266020526040902080548290811061233757612337615105565b90600052602060002090602091828204019190069054906101000a900460ff16155b156124a257600654600f80546001600160a01b039092169163a9059cbb9133918590811061238957612389615105565b6000918252602090912001546040516001600160e01b031960e085901b1681526001600160a01b03909216600483015260248201526044016020604051808303816000875af11580156123e0573d6000803e3d6000fd5b505050506040513d601f19601f8201168201806040525081019061240491906150e8565b503360009081526026602052604090208054600191908390811061242a5761242a615105565b90600052602060002090602091828204019190066101000a81548160ff021916908315150217905550600f818154811061246657612466615105565b6000918252602080832090910154338352602582526040808420548452602890925290822080549192909161249c9084906150b1565b90915550505b806124ac8161507d565b9150506122df565b601e60205260009081526040902080546001820154600283015460038401546004850154600586015460068701546007880154600889015460098a0154600a8b01805460ff909b169b999a989997989697959694959394929391926125189061511b565b80601f01602080910402602001604051908101604052809291908181526020018280546125449061511b565b80156125915780601f1061256657610100808354040283529160200191612591565b820191906000526020600020905b81548152906001019060200180831161257457829003601f168201915b50505050509080600b015490508c565b6000546001600160a01b031633146125b857600080fd5b6001600160a01b0381166125cb57600080fd5b6040516001600160a01b038216907fa3b62bc36326052d97ea62d63c3d60308ed4c3ea8ac079dd8499f1e9c4f80c0f90600090a26001600160a01b03166000908152600160205260409020805460ff19169055565b602a818154811061263057600080fd5b6000918252602090912001546001600160a01b0316905081565b600b818154811061196b57600080fd5b606060008251600161266c91906150b1565b67ffffffffffffffff81111561268457612684614a07565b6040519080825280602002602001820160405280156126ad578160200160208202803683370190505b50905060005b83518110156118bf578381815181106126ce576126ce615105565b60200260200101518282815181106126e8576126e8615105565b6020908102919091010152806126fd8161507d565b9150506126b3565b600080546001600160a01b0316331461271d57600080fd5b825161273090602a906020860190614847565b50815161274490602b90602085019061480c565b5060019392505050565b60606000805b835181101561286357601e600085838151811061277357612773615105565b60200260200101516001600160a01b03166001600160a01b0316815260200190815260200160002091506000805b85518110156127f4578581815181106127bc576127bc615105565b60200260200101516001600160a01b0316826001600160a01b031614156127e257600091505b806127ec8161507d565b9150506127a1565b506001600160a01b038116156128505761280d85611807565b945080856001875161281f9190615150565b8151811061282f5761282f615105565b60200260200101906001600160a01b031690816001600160a01b0316815250505b508061285b8161507d565b915050612754565b509192915050565b606060008251600161287d91906150b1565b67ffffffffffffffff81111561289557612895614a07565b6040519080825280602002602001820160405280156128be578160200160208202803683370190505b50905060005b83518110156118bf578381815181106128df576128df615105565b60200260200101518282815181106128f9576128f9615105565b91151560209283029190910190910152806129138161507d565b9150506128c4565b600f818154811061196b57600080fd5b60608060005b6001600160a01b0384166000908152602360205260409020548110156118bf5761295a82611807565b6001600160a01b03851660009081526023602052604090208054919350908290811061298857612988615105565b9060005260206000200160009054906101000a90046001600160a01b03168282815181106129b8576129b8615105565b6001600160a01b0390921660209283029190910190910152806129da8161507d565b915050612931565b6000546001600160a01b031633146129f957600080fd5b600280546001600160a01b0319166001600160a01b03831617905560038054906000612a248361507d565b919050555050565b600060608060606000612a3f8787613003565b9a9950505050505050505050565b336000908152601e602052604090206001600160a01b038316612a6f57600080fd5b602c5415612b7f57602c54600654604051636eb1769f60e11b81523360048201523060248201526001600160a01b039091169063dd62ed3e90604401602060405180830381865afa158015612ac8573d6000803e3d6000fd5b505050506040513d601f19601f82011682018060405250810190612aec9190615098565b1015612af757600080fd5b600654602c546040516323b872dd60e01b815233600482015230602482015260448101919091526001600160a01b03909116906323b872dd906064016020604051808303816000875af1158015612b52573d6000803e3d6000fd5b505050506040513d601f19601f82011682018060405250810190612b7691906150e8565b612b7f57600080fd5b60005b602a54811015612c8d57600654602a80546001600160a01b039092169163a9059cbb919084908110612bb657612bb6615105565b9060005260206000200160009054906101000a90046001600160a01b0316612c0b60646112da602b8781548110612bef57612bef615105565b9060005260206000200154602c5461437090919063ffffffff16565b6040516001600160e01b031960e085901b1681526001600160a01b03909216600483015260248201526044016020604051808303816000875af1158015612c56573d6000803e3d6000fd5b505050506040513d601f19601f82011682018060405250810190612c7a91906150e8565b5080612c858161507d565b915050612b82565b50805460ff16612dc357805460ff19166001178155601454601254612cb291906150c9565b612cbc90426150b1565b600182015533600090815260226020908152604080832080546001600160a01b0319166001600160a01b0388169081179091558352601e9091528120600901805491612d078361507d565b90915550506001600160a01b0383166000908152602360209081526040822080546001810182559083529082200180546001600160a01b031916331790556018805491612d538361507d565b9091555050336000908152602660205260409020600e8054612d7692919061470e565b5060298054600090815260246020908152604080832080546001600160a01b031916339081179091558454908452602590925282208190559190612db98361507d565b9190505550612de8565b601454601254612dd391906150c9565b8160010154612de291906150b1565b60018201555b8151612dfd90600a830190602085019061489c565b50505050565b6001600160a01b0381166000908152601e60209081526040808320815161018081018352815460ff16151581526001820154938101939093526002810154918301919091526003810154606083015260048101546080830152600581015460a0830152600681015460c0830152600781015460e083015260088101546101008301526009810154610120830152600a8101805484939291610140840191612ea99061511b565b80601f0160208091040260200160405190810160405280929190818152602001828054612ed59061511b565b8015612f225780601f10612ef757610100808354040283529160200191612f22565b820191906000526020600020905b815481529060010190602001808311612f0557829003601f168201915b50505050508152602001600b82015481525050905060005b600f54811015612fec5760108181548110612f5757612f57615105565b906000526020600020015482610160015110158015612fb45750336000908152602660205260409020805482908110612f9257612f92615105565b90600052602060002090602091828204019190069054906101000a900460ff16155b15612fda57600f8181548110612fcc57612fcc615105565b906000526020600020015492505b80612fe48161507d565b915050612f3a565b5050919050565b602d818154811061263057600080fd5b6060806060600080601e6000886001600160a01b03166001600160a01b03168152602001908152602001600020604051806101800160405290816000820160009054906101000a900460ff16151515158152602001600182015481526020016002820154815260200160038201548152602001600482015481526020016005820154815260200160068201548152602001600782015481526020016008820154815260200160098201548152602001600a820180546130c19061511b565b80601f01602080910402602001604051908101604052809291908181526020018280546130ed9061511b565b801561313a5780601f1061310f5761010080835404028352916020019161313a565b820191906000526020600020905b81548152906001019060200180831161311d57829003601f168201915b5050509183525050600b91909101546020918201526001600160a01b0389166000908152601f82526040808220805482518186028101860190935280835294955091939092849084015b828210156131d45783829060005260206000209060030201604051806060016040529081600082015481526020016001820154815260200160028201548152505081526020019060010190613184565b505050509050606080606060008060008c15613272576001600160a01b038e1660009081526020808052604080832080548251818502810185019093528083529193909284015b8282101561326b578382906000526020600020906003020160405180606001604052908160008201548152602001600182015481526020016002820154815250508152602001906001019061321b565b5050505096505b865160005b818110156134f8576132888861265a565b97506132938761265a565b965061329e8661286b565b95508881815181106132b2576132b2615105565b60200260200101516000015187600189516132cd9190615150565b815181106132dd576132dd615105565b6020026020010181815250506132f1611eb0565b89828151811061330357613303615105565b60200260200101516000015161331991906150b1565b42116133255742613355565b61332d611eb0565b89828151811061333f5761333f615105565b60200260200101516000015161335591906150b1565b92508e156133b55788818151811061336f5761336f615105565b6020026020010151600001518a60e00151116133a85788818151811061339757613397615105565b6020026020010151600001516133ae565b8960e001515b9350613409565b8881815181106133c7576133c7615105565b6020026020010151600001518a60c0015111613400578881815181106133ef576133ef615105565b602002602001015160000151613406565b8960c001515b93505b831580159061341757508284105b1561349e57613424611eb0565b61342e8585615150565b8a838151811061344057613440615105565b60200260200101516040015161345691906150c9565b6134609190615167565b61346a90866150b1565b94506001866001885161347d9190615150565b8151811061348d5761348d615105565b911515602092830291909101909101525b8881815181106134b0576134b0615105565b6020026020010151604001518860018a516134cb9190615150565b815181106134db576134db615105565b6020908102919091010152806134f08161507d565b915050613277565b50959e949d50929b5090995091975050505050505050565b600a5481101561351f57600080fd5b336000908152601e60205260409020805460ff161580613543575080600101544210155b8061354c575081155b8061355a5750818160030154105b1561356457600080fd5b818160030160008282546135789190615150565b9091555050336000908152602260205260409020546001600160a01b031615613678576135f63383600b8054806020026020016040519081016040528092919081815260200182805480156135ec57602002820191906000526020600020905b8154815260200190600101908083116135d8575b505050505061454c565b336000908152602260209081526040808320546001600160a01b03168352601e9091528120600b01805484929061362e9084906150b1565b9091555050336000908152602260209081526040808320546001600160a01b03168352602582528083205483526027909152812080548492906136729084906150b1565b90915550505b60206000336001600160a01b03166001600160a01b0316815260200190815260200160002060405180606001604052804281526020016136c860646112da6015548861437090919063ffffffff16565b81526020016136e760646112da6015548861437090919063ffffffff16565b9052815460018181018455600093845260209384902083516003909302019182559282015192810192909255604001516002909101555050565b600080546001600160a01b0316331461373957600080fd5b825161374c90602d906020860190614847565b50815161274490602e90602085019061480c565b600080546001600160a01b0316331461377857600080fd5b50602c55600190565b3360009081526001602052604081205460ff1661379d57600080fd5b506011805460ff191682151517905590565b600080546001600160a01b031633146137c757600080fd5b50601655600190565b336000908152601e602052604090819020600281015460065492516370a0823160e01b81523060048201529192909182916001600160a01b0316906370a0823190602401602060405180830381865afa158015613831573d6000803e3d6000fd5b505050506040513d601f19601f820116820180604052508101906138559190615098565b101561386057600080fd5b60085481101561386f57600080fd5b6006546016546001600160a01b039091169063a9059cbb90339061389b906064906112da908790614370565b6040516001600160e01b031960e085901b1681526001600160a01b03909216600483015260248201526044016020604051808303816000875af11580156138e6573d6000803e3d6000fd5b505050506040513d601f19601f8201168201806040525081019061390a91906150e8565b50816002016000905580601d6000828254611da591906150b1565b60095481101561393457600080fd5b336000908152601e60205260409020805460ff1661395157600080fd5b8060010154421061396157600080fd5b600654604051636eb1769f60e11b815233600482015230602482015283916001600160a01b03169063dd62ed3e90604401602060405180830381865afa1580156139af573d6000803e3d6000fd5b505050506040513d601f19601f820116820180604052508101906139d39190615098565b10156139de57600080fd5b6006546040516323b872dd60e01b8152336004820152306024820152604481018490526001600160a01b03909116906323b872dd906064016020604051808303816000875af1158015613a35573d6000803e3d6000fd5b505050506040513d601f19601f82011682018060405250810190613a5991906150e8565b613a6257600080fd5b336000908152602260205260409020546001600160a01b031615613b5e57613ad93383600b8054806020026020016040519081016040528092919081815260200182805480156135ec57602002820191906000526020600020908154815260200190600101908083116135d857505050505061454c565b336000908152602260209081526040808320546001600160a01b03168352601e9091528120600b8101805491928592613b139084906150b1565b9091555050336000908152602260209081526040808320546001600160a01b0316835260258252808320548352602790915281208054859290613b579084906150b1565b9091555050505b601f6000336001600160a01b03166001600160a01b031681526020019081526020016000206040518060600160405280428152602001613bae60646112da6015548861437090919063ffffffff16565b8152602001613bcd60646112da6015548861437090919063ffffffff16565b905281546001818101845560009384526020808520845160039094020192835583015190820155604090910151600290910155600582018054849290613c149084906150b1565b925050819055508160196000828254613c2d91906150b1565b90915550600090505b602d54811015613d3f57600654602d80546001600160a01b039092169163a9059cbb919084908110613c6a57613c6a615105565b9060005260206000200160009054906101000a90046001600160a01b0316613cbd60646112da602e8781548110613ca357613ca3615105565b90600052602060002001548961437090919063ffffffff16565b6040516001600160e01b031960e085901b1681526001600160a01b03909216600483015260248201526044016020604051808303816000875af1158015613d08573d6000803e3d6000fd5b505050506040513d601f19601f82011682018060405250810190613d2c91906150e8565b5080613d378161507d565b915050613c36565b50600a54816003015410613d5a57613d5a8160030154613510565b5050565b600e8181548110613d6e57600080fd5b9060005260206000209060209182820401919006915054906101000a900460ff1681565b60115460ff16613da157600080fd5b336000818152601e6020526040812091613dbc906001612a2c565b6006546040516370a0823160e01b815230600482015291925082916001600160a01b03909116906370a0823190602401602060405180830381865afa158015613e09573d6000803e3d6000fd5b505050506040513d601f19601f82011682018060405250810190613e2d9190615098565b1015613e3857600080fd5b600854811015613e4757600080fd5b6006546016546001600160a01b039091169063a9059cbb903390613e73906064906112da908790614370565b6040516001600160e01b031960e085901b1681526001600160a01b03909216600483015260248201526044016020604051808303816000875af1158015613ebe573d6000803e3d6000fd5b505050506040513d601f19601f82011682018060405250810190613ee291906150e8565b5080826008016000828254613ef791906150b1565b9091555050426007830155601c8054829190600090611da59084906150b1565b60008060005b602954811015613fbc5760005b600f54811015613fa95760108181548110613f4757613f47615105565b9060005260206000200154602760008481526020019081526020016000205410613f9757600f8181548110613f7e57613f7e615105565b906000526020600020015483613f9491906150b1565b92505b80613fa18161507d565b915050613f2a565b5080613fb48161507d565b915050613f1d565b50919050565b600d818154811061196b57600080fd5b60008060005b602954811015613fbc57600081815260286020526040902054613ffb90836150b1565b9150806140078161507d565b915050613fd8565b6000546001600160a01b0316331461402657600080fd5b6001600160a01b03811661403957600080fd5b600080546040516001600160a01b03808516939216917f8be0079c531659141344cd1fd0a4f28419497f9722a3daafe3b4186f6b6457e091a3600080546001600160a01b03908116825260016020526040808320805460ff19169055825490519116917fa3b62bc36326052d97ea62d63c3d60308ed4c3ea8ac079dd8499f1e9c4f80c0f91a2600080546001600160a01b0319166001600160a01b0383169081178255808252600160208190526040808420805460ff19169092179091555190917f71614071b88dee5e0b2ae578a9dd7b2ebbe9ae832ba419dc0242cd065a290b6c91a250565b3360009081526001602052604081205460ff1661413c57600080fd5b50601381905590565b600080546001600160a01b0316331461415d57600080fd5b6000821161416a57600080fd5b6001600160a01b03838116600090815260226020526040902054161561426d576141e38383600b8054806020026020016040519081016040528092919081815260200182805480156135ec57602002820191906000526020600020908154815260200190600101908083116135d857505050505061454c565b6001600160a01b038084166000908152602260209081526040808320549093168252601e9052908120600b01805484929061421f9084906150b1565b90915550506001600160a01b038084166000908152602260209081526040808320549093168252602581528282205482526027905290812080548492906142679084906150b1565b90915550505b6001600160a01b0383166000908152601e6020526040812060050180548492906142989084906150b1565b9250508190555081601960008282546142b191906150b1565b90915550611e679050838360006143c4565b601f6020528160005260406000208181548110611dc957600080fd5b600080546001600160a01b031633146142f757600080fd5b600080546040516001600160a01b03909116914780156108fc02929091818181858888f19350505050158015614331573d6000803e3d6000fd5b5047905090565b60216020528160005260406000208181548110611dc957600080fd5b60008061436183856150b1565b905083811015611e6757600080fd5b60008261437f5750600061165d565b600061438b83856150c9565b9050826143988583615167565b14611e6757600080fd5b60008082116143b057600080fd5b60006143bc8385615167565b949350505050565b60008083116143d557506000611e67565b81156144855760206000856001600160a01b03166001600160a01b03168152602001908152602001600020604051806060016040528042815260200161442b60646112da6015548961437090919063ffffffff16565b815260200161444a60646112da6015548961437090919063ffffffff16565b905281546001818101845560009384526020938490208351600390930201918255928201519281019290925560400151600290910155612744565b601f6000856001600160a01b03166001600160a01b0316815260200190815260200160002060405180606001604052804281526020016144d560646112da6015548961437090919063ffffffff16565b81526020016144f460646112da6015548961437090919063ffffffff16565b9052815460018082018455600093845260209384902083516003909302019182559282015181840155604090910151600290910155949350505050565b60008282111561454057600080fd5b60006143bc8385615150565b6060614559848351611772565b905060008080805b85518110156147045785818151811061457c5761457c615105565b60200260200101516000146146ed57601e60008683815181106145a1576145a1615105565b6020908102919091018101516001600160a01b03168252810191909152604001600020805490925060ff1680156145dc575042826001015410155b156146f25760006001600160a01b03168582815181106145fe576145fe615105565b60200260200101516001600160a01b0316146146ed576146466103e86112da88848151811061462f5761462f615105565b60200260200101518a61437090919063ffffffff16565b935061467d60646112da600c848154811061466357614663615105565b90600052602060002001548a61437090919063ffffffff16565b92508382600201600082825461469391906150b1565b92505081905550838260040160008282546146ae91906150b1565b92505081905550828260030160008282546146c991906150b1565b9250508190555083601a60008282546146e291906150b1565b909155506146f29050565b614704565b806146fc8161507d565b915050614561565b5050505050505050565b82805482825590600052602060002090601f0160209004810192821561475c57600052602060002091601f016020900482015b8281111561475c578254825591600101919060010190614741565b5061476892915061490f565b5090565b82805482825590600052602060002090601f0160209004810192821561475c5791602002820160005b838211156147d257835183826101000a81548160ff0219169083151502179055509260200192600101602081600001049283019260010302614795565b80156147ff5782816101000a81549060ff02191690556001016020816000010492830192600103026147d2565b505061476892915061490f565b82805482825590600052602060002090810192821561475c579160200282015b8281111561475c57825182559160200191906001019061482c565b82805482825590600052602060002090810192821561475c579160200282015b8281111561475c57825182546001600160a01b0319166001600160a01b03909116178255602090920191600190910190614867565b8280546148a89061511b565b90600052602060002090601f0160209004810192826148ca576000855561475c565b82601f106148e357805160ff191683800117855561475c565b8280016001018555821561475c579182018281111561475c57825182559160200191906001019061482c565b5b808211156147685760008155600101614910565b6001600160a01b038116811461493957600080fd5b50565b6000806040838503121561494f57600080fd5b823561495a81614924565b9150602083013561496a81614924565b809150509250929050565b60006020828403121561498757600080fd5b5035919050565b600080604083850312156149a157600080fd5b82356149ac81614924565b946020939093013593505050565b6020808252825182820181905260009190848201906040850190845b818110156149fb5783516001600160a01b0316835292840192918401916001016149d6565b50909695505050505050565b634e487b7160e01b600052604160045260246000fd5b604051601f8201601f1916810167ffffffffffffffff81118282101715614a4657614a46614a07565b604052919050565b600067ffffffffffffffff821115614a6857614a68614a07565b5060051b60200190565b600082601f830112614a8357600080fd5b81356020614a98614a9383614a4e565b614a1d565b82815260059290921b84018101918181019086841115614ab757600080fd5b8286015b84811015614adb578035614ace81614924565b8352918301918301614abb565b509695505050505050565b600060208284031215614af857600080fd5b813567ffffffffffffffff811115614b0f57600080fd5b6143bc84828501614a72565b60008060408385031215614b2e57600080fd5b50508035926020909101359150565b600081518084526020808501945080840160005b83811015614b6d57815187529582019590820190600101614b51565b509495945050505050565b602081526000611e676020830184614b3d565b801515811461493957600080fd5b60008060408385031215614bac57600080fd5b82359150602083013561496a81614b8b565b600060208284031215614bd057600080fd5b8135611e6781614924565b600080600060608486031215614bf057600080fd5b8335614bfb81614924565b9250602084013591506040840135614c1281614b8b565b809150509250925092565b600082601f830112614c2e57600080fd5b81356020614c3e614a9383614a4e565b82815260059290921b84018101918181019086841115614c5d57600080fd5b8286015b84811015614adb578035614c7481614b8b565b8352918301918301614c61565b600082601f830112614c9257600080fd5b81356020614ca2614a9383614a4e565b82815260059290921b84018101918181019086841115614cc157600080fd5b8286015b84811015614adb5780358352918301918301614cc5565b600080600060608486031215614cf157600080fd5b833567ffffffffffffffff80821115614d0957600080fd5b614d1587838801614c1d565b94506020860135915080821115614d2b57600080fd5b614d3787838801614c81565b93506040860135915080821115614d4d57600080fd5b50614d5a86828701614c81565b9150509250925092565b60006101808e1515835260208e818501528d60408501528c60608501528b60808501528a60a08501528960c08501528860e085015287610100850152866101208501528161014085015285518083860152600092505b80831015614dd9578683018201518584016101a0015291810191614dba565b80831115614dec5760006101a082870101525b610160850195909552505050601f91909101601f1916016101a0019b9a5050505050505050505050565b600060208284031215614e2857600080fd5b813567ffffffffffffffff811115614e3f57600080fd5b6143bc84828501614c81565b60008060408385031215614e5e57600080fd5b823567ffffffffffffffff80821115614e7657600080fd5b614e8286838701614a72565b93506020850135915080821115614e9857600080fd5b50614ea585828601614c81565b9150509250929050565b600060208284031215614ec157600080fd5b813567ffffffffffffffff811115614ed857600080fd5b6143bc84828501614c1d565b600081518084526020808501945080840160005b83811015614b6d578151151587529582019590820190600101614ef8565b602081526000611e676020830184614ee4565b60008060408385031215614f3c57600080fd5b8235614f4781614924565b9150602083013561496a81614b8b565b60008060408385031215614f6a57600080fd5b8235614f7581614924565b915060208381013567ffffffffffffffff80821115614f9357600080fd5b818601915086601f830112614fa757600080fd5b813581811115614fb957614fb9614a07565b614fcb601f8201601f19168501614a1d565b91508082528784828501011115614fe157600080fd5b80848401858401376000848284010152508093505050509250929050565b6080815260006150126080830187614b3d565b82810360208401526150248187614b3d565b905082810360408401526150388186614ee4565b91505082606083015295945050505050565b60006020828403121561505c57600080fd5b8135611e6781614b8b565b634e487b7160e01b600052601160045260246000fd5b600060001982141561509157615091615067565b5060010190565b6000602082840312156150aa57600080fd5b5051919050565b600082198211156150c4576150c4615067565b500190565b60008160001904831182151516156150e3576150e3615067565b500290565b6000602082840312156150fa57600080fd5b8151611e6781614b8b565b634e487b7160e01b600052603260045260246000fd5b600181811c9082168061512f57607f821691505b60208210811415613fbc57634e487b7160e01b600052602260045260246000fd5b60008282101561516257615162615067565b500390565b60008261518457634e487b7160e01b600052601260045260246000fd5b50049056fea2646970667358221220922038f8f72c0bcf31cc30c4ea47bec5f8f3a711b37098271737d895e60077a664736f6c634300080a0033",
    "sourcePath": "c:/Users/STC/Documents/GitHub/00-IB-2-last/contracts/infinitySystemV2/UnilevelSystemV2.sol",
    "compiler": {
        "name": "solc",
        "version": "0.8.10+commit.fc410830"
    },
    "functionHashes": {
        "ChangeTokenPrincipal(address)": "50da983f",
        "MIN_RETIRO()": "6c529279",
        "PRECIO_BLOCK()": "24de19f2",
        "PRECIO_BLOCK_infinity()": "627b31b0",
        "actualizarArrayBool(bool[])": "7fcc1e36",
        "actualizarArrayUint256(uint256[])": "7367b080",
        "actualizarNetwork(address[])": "1ce7f99b",
        "addressToId(address)": "cb0e0d7d",
        "admin(address)": "63a846f8",
        "allnetwork(address[])": "7faee047",
        "asignarBlokePago(address,uint256)": "fc5d8615",
        "asignarMembership(address,address)": "1053abb1",
        "baserange(uint256)": "cfda9ee6",
        "baserangelength()": "f5c9dbef",
        "blockesRango(uint256)": "b5df6d44",
        "blokes(address,uint256)": "fcec0fdf",
        "buyBlocks(uint256)": "c17dbdf9",
        "buyInfinityBlock(uint256)": "a5a7e04c",
        "column(address,uint256)": "15e8392b",
        "columnHijos(address)": "815374ca",
        "controlWitdrawl(bool)": "b17b6e44",
        "depositos(address,bool)": "a365528b",
        "descuento()": "7b0412ed",
        "dias()": "ab6db199",
        "duracionMembership()": "c40d5dbc",
        "gananciasRango(uint256)": "81032892",
        "hijo(address,uint256)": "339640b5",
        "idToAddress(uint256)": "2a2d0c47",
        "implementation()": "5c60da1b",
        "inMigracion(address,address)": "047ff6d2",
        "infinity(uint256)": "edf5eb1d",
        "infinityBlokes(address,uint256)": "41f1771c",
        "investors(address)": "6f7bc9be",
        "lastUserId()": "348d4487",
        "makeNewAdmin(address)": "69ed1e0a",
        "makeRemoveAdmin(address)": "70a0966b",
        "newRecompensa()": "69f4a84b",
        "oldBlokes(address,uint256)": "fd9a3fad",
        "onOffWitdrawl()": "e7348e8c",
        "owner()": "8da5cb5b",
        "padre(address)": "b35f0a8f",
        "personas()": "cc759ba2",
        "porcent()": "4728f718",
        "porcientos(uint256)": "28cca719",
        "precioRegistro()": "7db9e9c6",
        "primervez(uint256)": "725fc270",
        "puntosRango(uint256)": "21309f21",
        "rangoReclamado(address,uint256)": "2acc8210",
        "redimBNB()": "fd14d598",
        "redimTokenPrincipal02(uint256)": "1140e85b",
        "registro(address,string)": "8f9ef8c1",
        "setContratoMigracion(address)": "30d2949f",
        "setDescuento(uint256)": "b3d9fa09",
        "setMIN_RETIRO(uint256)": "4de1be62",
        "setPorcientos(uint256,uint256)": "1e403c35",
        "setPorcientosSalida(uint256,uint256)": "5d216c60",
        "setPrecioRegistro(uint256)": "aaa749c5",
        "setPriceBlock(uint256,bool)": "23e5a5a1",
        "setPrimeravezPorcientos(uint256,uint256)": "54822522",
        "setRangos(bool[],uint256[],uint256[])": "43bf0bd4",
        "setRetorno(uint256)": "6589fa8a",
        "setTiempo(uint256)": "f90b3f5a",
        "setTiempoUnidades(uint256)": "2748d29b",
        "setWalletFee(address[],uint256[])": "7583f8fc",
        "setWalletstransfers(address[],uint256[])": "a8beb717",
        "setduracionMembership(uint256)": "4acb7240",
        "tiempo()": "50188c08",
        "tokenPricipal()": "b1390426",
        "totalInvested()": "5216aeec",
        "totalInvestors()": "29b8caff",
        "totalRange()": "ecdb171f",
        "totalRangeWitdrawl()": "eef117fd",
        "totalRefRewards()": "bfe0e020",
        "totalRefWitdrawl()": "9b8ff503",
        "totalRoiWitdrawl()": "70d7e3d5",
        "totalTeamWitdrawl()": "ff0b0cc5",
        "transferOwnership(address)": "f2fde38b",
        "unidades()": "4b9b8203",
        "updateBloke(address,uint256,bool)": "317cc772",
        "updateBlokeRange(address,uint256,bool)": "65535cb0",
        "upgradeImplementation(address)": "83f94db7",
        "upgraded()": "c28de2cd",
        "usdtRetirado(uint256)": "1f5d65fd",
        "valor(uint256)": "62550916",
        "valorFee(uint256)": "29e1a243",
        "version()": "54fd4d50",
        "wallet(uint256)": "a2781335",
        "walletFee(uint256)": "7251b9ac",
        "withdraw()": "3ccfd60b",
        "withdraw2()": "ea98847b",
        "withdrawTeam()": "bb51f32d",
        "withdrawable(address,bool)": "89b2521c",
        "withdrawableRange(address)": "98c07d0a"
    },
    "gasEstimates": {
        "creation": {
            "codeDepositCost": "4185400",
            "executionCost": "infinite",
            "totalCost": "infinite"
        },
        "external": {
            "": "infinite",
            "ChangeTokenPrincipal(address)": "51065",
            "MIN_RETIRO()": "2384",
            "PRECIO_BLOCK()": "2452",
            "PRECIO_BLOCK_infinity()": "2385",
            "actualizarArrayBool(bool[])": "infinite",
            "actualizarArrayUint256(uint256[])": "infinite",
            "actualizarNetwork(address[])": "infinite",
            "addressToId(address)": "2624",
            "admin(address)": "2626",
            "allnetwork(address[])": "infinite",
            "asignarBlokePago(address,uint256)": "infinite",
            "asignarMembership(address,address)": "infinite",
            "baserange(uint256)": "6380",
            "baserangelength()": "2469",
            "blockesRango(uint256)": "2550",
            "blokes(address,uint256)": "9135",
            "buyBlocks(uint256)": "infinite",
            "buyInfinityBlock(uint256)": "infinite",
            "column(address,uint256)": "infinite",
            "columnHijos(address)": "infinite",
            "controlWitdrawl(bool)": "26939",
            "depositos(address,bool)": "infinite",
            "descuento()": "2430",
            "dias()": "2428",
            "duracionMembership()": "2384",
            "gananciasRango(uint256)": "4687",
            "hijo(address,uint256)": "4868",
            "idToAddress(uint256)": "2612",
            "implementation()": "2493",
            "inMigracion(address,address)": "infinite",
            "infinity(uint256)": "4686",
            "infinityBlokes(address,uint256)": "9181",
            "investors(address)": "infinite",
            "lastUserId()": "2407",
            "makeNewAdmin(address)": "28187",
            "makeRemoveAdmin(address)": "28073",
            "newRecompensa()": "infinite",
            "oldBlokes(address,uint256)": "9179",
            "onOffWitdrawl()": "2476",
            "owner()": "2405",
            "padre(address)": "2620",
            "personas()": "2428",
            "porcent()": "2364",
            "porcientos(uint256)": "4644",
            "precioRegistro()": "2452",
            "primervez(uint256)": "4644",
            "puntosRango(uint256)": "4688",
            "rangoReclamado(address,uint256)": "6549",
            "redimBNB()": "infinite",
            "redimTokenPrincipal02(uint256)": "infinite",
            "registro(address,string)": "infinite",
            "setContratoMigracion(address)": "26943",
            "setDescuento(uint256)": "24617",
            "setMIN_RETIRO(uint256)": "24670",
            "setPorcientos(uint256,uint256)": "infinite",
            "setPorcientosSalida(uint256,uint256)": "infinite",
            "setPrecioRegistro(uint256)": "24638",
            "setPriceBlock(uint256,bool)": "24800",
            "setPrimeravezPorcientos(uint256,uint256)": "infinite",
            "setRangos(bool[],uint256[],uint256[])": "infinite",
            "setRetorno(uint256)": "24739",
            "setTiempo(uint256)": "24649",
            "setTiempoUnidades(uint256)": "24714",
            "setWalletFee(address[],uint256[])": "infinite",
            "setWalletstransfers(address[],uint256[])": "infinite",
            "setduracionMembership(uint256)": "24618",
            "tiempo()": "infinite",
            "tokenPricipal()": "2492",
            "totalInvested()": "2385",
            "totalInvestors()": "2386",
            "totalRange()": "infinite",
            "totalRangeWitdrawl()": "infinite",
            "totalRefRewards()": "2451",
            "totalRefWitdrawl()": "2429",
            "totalRoiWitdrawl()": "2450",
            "totalTeamWitdrawl()": "2471",
            "transferOwnership(address)": "85644",
            "unidades()": "2408",
            "updateBloke(address,uint256,bool)": "infinite",
            "updateBlokeRange(address,uint256,bool)": "infinite",
            "upgradeImplementation(address)": "51140",
            "upgraded()": "2362",
            "usdtRetirado(uint256)": "2529",
            "valor(uint256)": "4643",
            "valorFee(uint256)": "4688",
            "version()": "2429",
            "wallet(uint256)": "4770",
            "walletFee(uint256)": "4791",
            "withdraw()": "infinite",
            "withdraw2()": "infinite",
            "withdrawTeam()": "infinite",
            "withdrawable(address,bool)": "infinite",
            "withdrawableRange(address)": "infinite"
        },
        "internal": {
            "_asignarBloke(address,uint256,bool)": "infinite",
            "rewardReferers(address,uint256,uint256[] memory)": "infinite"
        }
    }
}