{
    "contractName": "InfinitySystemV2",
    "abi": [
        {
            "inputs": [],
            "stateMutability": "nonpayable",
            "type": "constructor"
        },
        {
            "anonymous": false,
            "inputs": [
                {
                    "indexed": true,
                    "internalType": "address",
                    "name": "admin",
                    "type": "address"
                }
            ],
            "name": "AdminRemoved",
            "type": "event"
        },
        {
            "anonymous": false,
            "inputs": [
                {
                    "indexed": true,
                    "internalType": "address",
                    "name": "admin",
                    "type": "address"
                }
            ],
            "name": "NewAdmin",
            "type": "event"
        },
        {
            "anonymous": false,
            "inputs": [
                {
                    "indexed": true,
                    "internalType": "address",
                    "name": "previousOwner",
                    "type": "address"
                },
                {
                    "indexed": true,
                    "internalType": "address",
                    "name": "newOwner",
                    "type": "address"
                }
            ],
            "name": "OwnershipTransferred",
            "type": "event"
        },
        {
            "stateMutability": "payable",
            "type": "fallback"
        },
        {
            "inputs": [
                {
                    "internalType": "address",
                    "name": "_tokenTRC20",
                    "type": "address"
                }
            ],
            "name": "ChangeTokenPrincipal",
            "outputs": [
                {
                    "internalType": "bool",
                    "name": "",
                    "type": "bool"
                }
            ],
            "stateMutability": "nonpayable",
            "type": "function"
        },
        {
            "inputs": [],
            "name": "MIN_RETIRO",
            "outputs": [
                {
                    "internalType": "uint256",
                    "name": "",
                    "type": "uint256"
                }
            ],
            "stateMutability": "view",
            "type": "function"
        },
        {
            "inputs": [],
            "name": "PRECIO_BLOCK",
            "outputs": [
                {
                    "internalType": "uint256",
                    "name": "",
                    "type": "uint256"
                }
            ],
            "stateMutability": "view",
            "type": "function"
        },
        {
            "inputs": [
                {
                    "internalType": "bool[]",
                    "name": "old",
                    "type": "bool[]"
                }
            ],
            "name": "actualizarArrayBool",
            "outputs": [
                {
                    "internalType": "bool[]",
                    "name": "",
                    "type": "bool[]"
                }
            ],
            "stateMutability": "pure",
            "type": "function"
        },
        {
            "inputs": [
                {
                    "internalType": "uint256[]",
                    "name": "old",
                    "type": "uint256[]"
                }
            ],
            "name": "actualizarArrayUint256",
            "outputs": [
                {
                    "internalType": "uint256[]",
                    "name": "",
                    "type": "uint256[]"
                }
            ],
            "stateMutability": "pure",
            "type": "function"
        },
        {
            "inputs": [
                {
                    "internalType": "address[]",
                    "name": "oldNetwork",
                    "type": "address[]"
                }
            ],
            "name": "actualizarNetwork",
            "outputs": [
                {
                    "internalType": "address[]",
                    "name": "",
                    "type": "address[]"
                }
            ],
            "stateMutability": "pure",
            "type": "function"
        },
        {
            "inputs": [
                {
                    "internalType": "address",
                    "name": "",
                    "type": "address"
                }
            ],
            "name": "addressToId",
            "outputs": [
                {
                    "internalType": "uint256",
                    "name": "",
                    "type": "uint256"
                }
            ],
            "stateMutability": "view",
            "type": "function"
        },
        {
            "inputs": [
                {
                    "internalType": "address",
                    "name": "",
                    "type": "address"
                }
            ],
            "name": "admin",
            "outputs": [
                {
                    "internalType": "bool",
                    "name": "",
                    "type": "bool"
                }
            ],
            "stateMutability": "view",
            "type": "function"
        },
        {
            "inputs": [
                {
                    "internalType": "address[]",
                    "name": "network",
                    "type": "address[]"
                }
            ],
            "name": "allnetwork",
            "outputs": [
                {
                    "internalType": "address[]",
                    "name": "",
                    "type": "address[]"
                }
            ],
            "stateMutability": "view",
            "type": "function"
        },
        {
            "inputs": [
                {
                    "internalType": "address",
                    "name": "_user",
                    "type": "address"
                },
                {
                    "internalType": "uint256",
                    "name": "_bloks",
                    "type": "uint256"
                },
                {
                    "internalType": "bool",
                    "name": "_infinity",
                    "type": "bool"
                }
            ],
            "name": "asignarBloke",
            "outputs": [
                {
                    "internalType": "bool",
                    "name": "",
                    "type": "bool"
                }
            ],
            "stateMutability": "nonpayable",
            "type": "function"
        },
        {
            "inputs": [
                {
                    "internalType": "address",
                    "name": "_user",
                    "type": "address"
                },
                {
                    "internalType": "uint256",
                    "name": "_bloks",
                    "type": "uint256"
                }
            ],
            "name": "asignarBlokePago",
            "outputs": [
                {
                    "internalType": "bool",
                    "name": "",
                    "type": "bool"
                }
            ],
            "stateMutability": "nonpayable",
            "type": "function"
        },
        {
            "inputs": [
                {
                    "internalType": "address",
                    "name": "_user",
                    "type": "address"
                },
                {
                    "internalType": "address",
                    "name": "_sponsor",
                    "type": "address"
                }
            ],
            "name": "asignarMembership",
            "outputs": [
                {
                    "internalType": "bool",
                    "name": "",
                    "type": "bool"
                }
            ],
            "stateMutability": "nonpayable",
            "type": "function"
        },
        {
            "inputs": [
                {
                    "internalType": "uint256",
                    "name": "",
                    "type": "uint256"
                }
            ],
            "name": "baserange",
            "outputs": [
                {
                    "internalType": "bool",
                    "name": "",
                    "type": "bool"
                }
            ],
            "stateMutability": "view",
            "type": "function"
        },
        {
            "inputs": [],
            "name": "baserangelength",
            "outputs": [
                {
                    "internalType": "uint256",
                    "name": "",
                    "type": "uint256"
                }
            ],
            "stateMutability": "view",
            "type": "function"
        },
        {
            "inputs": [
                {
                    "internalType": "uint256",
                    "name": "",
                    "type": "uint256"
                }
            ],
            "name": "blockesRango",
            "outputs": [
                {
                    "internalType": "uint256",
                    "name": "",
                    "type": "uint256"
                }
            ],
            "stateMutability": "view",
            "type": "function"
        },
        {
            "inputs": [
                {
                    "internalType": "address",
                    "name": "",
                    "type": "address"
                },
                {
                    "internalType": "uint256",
                    "name": "",
                    "type": "uint256"
                }
            ],
            "name": "blokes",
            "outputs": [
                {
                    "internalType": "uint256",
                    "name": "inicio",
                    "type": "uint256"
                },
                {
                    "internalType": "uint256",
                    "name": "value",
                    "type": "uint256"
                },
                {
                    "internalType": "uint256",
                    "name": "amount",
                    "type": "uint256"
                }
            ],
            "stateMutability": "view",
            "type": "function"
        },
        {
            "inputs": [
                {
                    "internalType": "uint256",
                    "name": "_bloks",
                    "type": "uint256"
                }
            ],
            "name": "buyBlocks",
            "outputs": [],
            "stateMutability": "nonpayable",
            "type": "function"
        },
        {
            "inputs": [
                {
                    "internalType": "uint256",
                    "name": "_bloks",
                    "type": "uint256"
                }
            ],
            "name": "buyInfinityBlock",
            "outputs": [],
            "stateMutability": "nonpayable",
            "type": "function"
        },
        {
            "inputs": [
                {
                    "internalType": "address",
                    "name": "yo",
                    "type": "address"
                },
                {
                    "internalType": "uint256",
                    "name": "_largo",
                    "type": "uint256"
                }
            ],
            "name": "column",
            "outputs": [
                {
                    "internalType": "address[]",
                    "name": "",
                    "type": "address[]"
                }
            ],
            "stateMutability": "view",
            "type": "function"
        },
        {
            "inputs": [
                {
                    "internalType": "address",
                    "name": "yo",
                    "type": "address"
                }
            ],
            "name": "columnHijos",
            "outputs": [
                {
                    "internalType": "address[]",
                    "name": "",
                    "type": "address[]"
                }
            ],
            "stateMutability": "view",
            "type": "function"
        },
        {
            "inputs": [
                {
                    "internalType": "bool",
                    "name": "_true_false",
                    "type": "bool"
                }
            ],
            "name": "controlWitdrawl",
            "outputs": [
                {
                    "internalType": "bool",
                    "name": "",
                    "type": "bool"
                }
            ],
            "stateMutability": "nonpayable",
            "type": "function"
        },
        {
            "inputs": [
                {
                    "internalType": "address",
                    "name": "_user",
                    "type": "address"
                },
                {
                    "internalType": "bool",
                    "name": "_infinity",
                    "type": "bool"
                }
            ],
            "name": "depositos",
            "outputs": [
                {
                    "internalType": "uint256[]",
                    "name": "",
                    "type": "uint256[]"
                },
                {
                    "internalType": "uint256[]",
                    "name": "",
                    "type": "uint256[]"
                },
                {
                    "internalType": "bool[]",
                    "name": "",
                    "type": "bool[]"
                },
                {
                    "internalType": "uint256",
                    "name": "",
                    "type": "uint256"
                }
            ],
            "stateMutability": "view",
            "type": "function"
        },
        {
            "inputs": [],
            "name": "descuento",
            "outputs": [
                {
                    "internalType": "uint256",
                    "name": "",
                    "type": "uint256"
                }
            ],
            "stateMutability": "view",
            "type": "function"
        },
        {
            "inputs": [],
            "name": "dias",
            "outputs": [
                {
                    "internalType": "uint256",
                    "name": "",
                    "type": "uint256"
                }
            ],
            "stateMutability": "view",
            "type": "function"
        },
        {
            "inputs": [],
            "name": "duracionMembership",
            "outputs": [
                {
                    "internalType": "uint256",
                    "name": "",
                    "type": "uint256"
                }
            ],
            "stateMutability": "view",
            "type": "function"
        },
        {
            "inputs": [
                {
                    "internalType": "uint256",
                    "name": "",
                    "type": "uint256"
                }
            ],
            "name": "gananciasRango",
            "outputs": [
                {
                    "internalType": "uint256",
                    "name": "",
                    "type": "uint256"
                }
            ],
            "stateMutability": "view",
            "type": "function"
        },
        {
            "inputs": [
                {
                    "internalType": "address",
                    "name": "",
                    "type": "address"
                },
                {
                    "internalType": "uint256",
                    "name": "",
                    "type": "uint256"
                }
            ],
            "name": "hijo",
            "outputs": [
                {
                    "internalType": "address",
                    "name": "",
                    "type": "address"
                }
            ],
            "stateMutability": "view",
            "type": "function"
        },
        {
            "inputs": [
                {
                    "internalType": "uint256",
                    "name": "",
                    "type": "uint256"
                }
            ],
            "name": "idToAddress",
            "outputs": [
                {
                    "internalType": "address",
                    "name": "",
                    "type": "address"
                }
            ],
            "stateMutability": "view",
            "type": "function"
        },
        {
            "inputs": [],
            "name": "implementation",
            "outputs": [
                {
                    "internalType": "address",
                    "name": "",
                    "type": "address"
                }
            ],
            "stateMutability": "view",
            "type": "function"
        },
        {
            "inputs": [
                {
                    "internalType": "address",
                    "name": "_user",
                    "type": "address"
                },
                {
                    "internalType": "address",
                    "name": "_sponsor",
                    "type": "address"
                }
            ],
            "name": "inMigracion",
            "outputs": [],
            "stateMutability": "nonpayable",
            "type": "function"
        },
        {
            "inputs": [
                {
                    "internalType": "uint256",
                    "name": "",
                    "type": "uint256"
                }
            ],
            "name": "infinity",
            "outputs": [
                {
                    "internalType": "uint256",
                    "name": "",
                    "type": "uint256"
                }
            ],
            "stateMutability": "view",
            "type": "function"
        },
        {
            "inputs": [
                {
                    "internalType": "address",
                    "name": "",
                    "type": "address"
                },
                {
                    "internalType": "uint256",
                    "name": "",
                    "type": "uint256"
                }
            ],
            "name": "infinityBlokes",
            "outputs": [
                {
                    "internalType": "uint256",
                    "name": "inicio",
                    "type": "uint256"
                },
                {
                    "internalType": "uint256",
                    "name": "value",
                    "type": "uint256"
                },
                {
                    "internalType": "uint256",
                    "name": "amount",
                    "type": "uint256"
                }
            ],
            "stateMutability": "view",
            "type": "function"
        },
        {
            "inputs": [
                {
                    "internalType": "address",
                    "name": "",
                    "type": "address"
                }
            ],
            "name": "investors",
            "outputs": [
                {
                    "internalType": "bool",
                    "name": "registered",
                    "type": "bool"
                },
                {
                    "internalType": "uint256",
                    "name": "membership",
                    "type": "uint256"
                },
                {
                    "internalType": "uint256",
                    "name": "balanceRef",
                    "type": "uint256"
                },
                {
                    "internalType": "uint256",
                    "name": "balanceInfinit",
                    "type": "uint256"
                },
                {
                    "internalType": "uint256",
                    "name": "totalRef",
                    "type": "uint256"
                },
                {
                    "internalType": "uint256",
                    "name": "invested",
                    "type": "uint256"
                },
                {
                    "internalType": "uint256",
                    "name": "paidAt",
                    "type": "uint256"
                },
                {
                    "internalType": "uint256",
                    "name": "paidAt2",
                    "type": "uint256"
                },
                {
                    "internalType": "uint256",
                    "name": "withdrawn",
                    "type": "uint256"
                },
                {
                    "internalType": "uint256",
                    "name": "directos",
                    "type": "uint256"
                },
                {
                    "internalType": "string",
                    "name": "data",
                    "type": "string"
                },
                {
                    "internalType": "uint256",
                    "name": "blokesDirectos",
                    "type": "uint256"
                }
            ],
            "stateMutability": "view",
            "type": "function"
        },
        {
            "inputs": [],
            "name": "lastUserId",
            "outputs": [
                {
                    "internalType": "uint256",
                    "name": "",
                    "type": "uint256"
                }
            ],
            "stateMutability": "view",
            "type": "function"
        },
        {
            "inputs": [
                {
                    "internalType": "address payable",
                    "name": "_newadmin",
                    "type": "address"
                }
            ],
            "name": "makeNewAdmin",
            "outputs": [],
            "stateMutability": "nonpayable",
            "type": "function"
        },
        {
            "inputs": [
                {
                    "internalType": "address payable",
                    "name": "_oldadmin",
                    "type": "address"
                }
            ],
            "name": "makeRemoveAdmin",
            "outputs": [],
            "stateMutability": "nonpayable",
            "type": "function"
        },
        {
            "inputs": [],
            "name": "newRecompensa",
            "outputs": [],
            "stateMutability": "nonpayable",
            "type": "function"
        },
        {
            "inputs": [
                {
                    "internalType": "address",
                    "name": "",
                    "type": "address"
                },
                {
                    "internalType": "uint256",
                    "name": "",
                    "type": "uint256"
                }
            ],
            "name": "oldBlokes",
            "outputs": [
                {
                    "internalType": "uint256",
                    "name": "inicio",
                    "type": "uint256"
                },
                {
                    "internalType": "uint256",
                    "name": "value",
                    "type": "uint256"
                },
                {
                    "internalType": "uint256",
                    "name": "amount",
                    "type": "uint256"
                }
            ],
            "stateMutability": "view",
            "type": "function"
        },
        {
            "inputs": [],
            "name": "onOffWitdrawl",
            "outputs": [
                {
                    "internalType": "bool",
                    "name": "",
                    "type": "bool"
                }
            ],
            "stateMutability": "view",
            "type": "function"
        },
        {
            "inputs": [],
            "name": "owner",
            "outputs": [
                {
                    "internalType": "address payable",
                    "name": "",
                    "type": "address"
                }
            ],
            "stateMutability": "view",
            "type": "function"
        },
        {
            "inputs": [
                {
                    "internalType": "address",
                    "name": "",
                    "type": "address"
                }
            ],
            "name": "padre",
            "outputs": [
                {
                    "internalType": "address",
                    "name": "",
                    "type": "address"
                }
            ],
            "stateMutability": "view",
            "type": "function"
        },
        {
            "inputs": [],
            "name": "personas",
            "outputs": [
                {
                    "internalType": "uint256",
                    "name": "",
                    "type": "uint256"
                }
            ],
            "stateMutability": "view",
            "type": "function"
        },
        {
            "inputs": [],
            "name": "porcent",
            "outputs": [
                {
                    "internalType": "uint256",
                    "name": "",
                    "type": "uint256"
                }
            ],
            "stateMutability": "view",
            "type": "function"
        },
        {
            "inputs": [
                {
                    "internalType": "uint256",
                    "name": "",
                    "type": "uint256"
                }
            ],
            "name": "porcientos",
            "outputs": [
                {
                    "internalType": "uint256",
                    "name": "",
                    "type": "uint256"
                }
            ],
            "stateMutability": "view",
            "type": "function"
        },
        {
            "inputs": [],
            "name": "precioRegistro",
            "outputs": [
                {
                    "internalType": "uint256",
                    "name": "",
                    "type": "uint256"
                }
            ],
            "stateMutability": "view",
            "type": "function"
        },
        {
            "inputs": [
                {
                    "internalType": "uint256",
                    "name": "",
                    "type": "uint256"
                }
            ],
            "name": "primervez",
            "outputs": [
                {
                    "internalType": "uint256",
                    "name": "",
                    "type": "uint256"
                }
            ],
            "stateMutability": "view",
            "type": "function"
        },
        {
            "inputs": [
                {
                    "internalType": "uint256",
                    "name": "",
                    "type": "uint256"
                }
            ],
            "name": "puntosRango",
            "outputs": [
                {
                    "internalType": "uint256",
                    "name": "",
                    "type": "uint256"
                }
            ],
            "stateMutability": "view",
            "type": "function"
        },
        {
            "inputs": [
                {
                    "internalType": "address",
                    "name": "",
                    "type": "address"
                },
                {
                    "internalType": "uint256",
                    "name": "",
                    "type": "uint256"
                }
            ],
            "name": "rangoReclamado",
            "outputs": [
                {
                    "internalType": "bool",
                    "name": "",
                    "type": "bool"
                }
            ],
            "stateMutability": "view",
            "type": "function"
        },
        {
            "inputs": [],
            "name": "redimBNB",
            "outputs": [
                {
                    "internalType": "uint256",
                    "name": "",
                    "type": "uint256"
                }
            ],
            "stateMutability": "nonpayable",
            "type": "function"
        },
        {
            "inputs": [
                {
                    "internalType": "uint256",
                    "name": "_value",
                    "type": "uint256"
                }
            ],
            "name": "redimTokenPrincipal02",
            "outputs": [
                {
                    "internalType": "uint256",
                    "name": "",
                    "type": "uint256"
                }
            ],
            "stateMutability": "nonpayable",
            "type": "function"
        },
        {
            "inputs": [
                {
                    "internalType": "address",
                    "name": "_sponsor",
                    "type": "address"
                },
                {
                    "internalType": "string",
                    "name": "_datos",
                    "type": "string"
                }
            ],
            "name": "registro",
            "outputs": [],
            "stateMutability": "nonpayable",
            "type": "function"
        },
        {
            "inputs": [
                {
                    "internalType": "address",
                    "name": "_contarct",
                    "type": "address"
                }
            ],
            "name": "setContratoMigracion",
            "outputs": [
                {
                    "internalType": "bool",
                    "name": "",
                    "type": "bool"
                }
            ],
            "stateMutability": "nonpayable",
            "type": "function"
        },
        {
            "inputs": [
                {
                    "internalType": "uint256",
                    "name": "_descuento",
                    "type": "uint256"
                }
            ],
            "name": "setDescuento",
            "outputs": [
                {
                    "internalType": "bool",
                    "name": "",
                    "type": "bool"
                }
            ],
            "stateMutability": "nonpayable",
            "type": "function"
        },
        {
            "inputs": [
                {
                    "internalType": "address",
                    "name": "_imp",
                    "type": "address"
                }
            ],
            "name": "setImplementation",
            "outputs": [],
            "stateMutability": "nonpayable",
            "type": "function"
        },
        {
            "inputs": [
                {
                    "internalType": "uint256",
                    "name": "_min",
                    "type": "uint256"
                }
            ],
            "name": "setMIN_RETIRO",
            "outputs": [
                {
                    "internalType": "uint256",
                    "name": "",
                    "type": "uint256"
                }
            ],
            "stateMutability": "nonpayable",
            "type": "function"
        },
        {
            "inputs": [
                {
                    "internalType": "uint256",
                    "name": "_nivel",
                    "type": "uint256"
                },
                {
                    "internalType": "uint256",
                    "name": "_value",
                    "type": "uint256"
                }
            ],
            "name": "setPorcientos",
            "outputs": [
                {
                    "internalType": "uint256[]",
                    "name": "",
                    "type": "uint256[]"
                }
            ],
            "stateMutability": "nonpayable",
            "type": "function"
        },
        {
            "inputs": [
                {
                    "internalType": "uint256",
                    "name": "_nivel",
                    "type": "uint256"
                },
                {
                    "internalType": "uint256",
                    "name": "_value",
                    "type": "uint256"
                }
            ],
            "name": "setPorcientosSalida",
            "outputs": [
                {
                    "internalType": "uint256[]",
                    "name": "",
                    "type": "uint256[]"
                }
            ],
            "stateMutability": "nonpayable",
            "type": "function"
        },
        {
            "inputs": [
                {
                    "internalType": "uint256",
                    "name": "_precio",
                    "type": "uint256"
                }
            ],
            "name": "setPrecioRegistro",
            "outputs": [
                {
                    "internalType": "bool",
                    "name": "",
                    "type": "bool"
                }
            ],
            "stateMutability": "nonpayable",
            "type": "function"
        },
        {
            "inputs": [
                {
                    "internalType": "uint256",
                    "name": "_value",
                    "type": "uint256"
                }
            ],
            "name": "setPriceBlock",
            "outputs": [
                {
                    "internalType": "bool",
                    "name": "",
                    "type": "bool"
                }
            ],
            "stateMutability": "nonpayable",
            "type": "function"
        },
        {
            "inputs": [
                {
                    "internalType": "uint256",
                    "name": "_nivel",
                    "type": "uint256"
                },
                {
                    "internalType": "uint256",
                    "name": "_value",
                    "type": "uint256"
                }
            ],
            "name": "setPrimeravezPorcientos",
            "outputs": [
                {
                    "internalType": "uint256[]",
                    "name": "",
                    "type": "uint256[]"
                }
            ],
            "stateMutability": "nonpayable",
            "type": "function"
        },
        {
            "inputs": [
                {
                    "internalType": "bool[]",
                    "name": "_baserange",
                    "type": "bool[]"
                },
                {
                    "internalType": "uint256[]",
                    "name": "_gananciasRango",
                    "type": "uint256[]"
                },
                {
                    "internalType": "uint256[]",
                    "name": "_puntosRango",
                    "type": "uint256[]"
                }
            ],
            "name": "setRangos",
            "outputs": [
                {
                    "internalType": "bool",
                    "name": "",
                    "type": "bool"
                }
            ],
            "stateMutability": "nonpayable",
            "type": "function"
        },
        {
            "inputs": [
                {
                    "internalType": "uint256",
                    "name": "_porcentaje",
                    "type": "uint256"
                }
            ],
            "name": "setRetorno",
            "outputs": [
                {
                    "internalType": "uint256",
                    "name": "",
                    "type": "uint256"
                }
            ],
            "stateMutability": "nonpayable",
            "type": "function"
        },
        {
            "inputs": [
                {
                    "internalType": "uint256",
                    "name": "_dias",
                    "type": "uint256"
                }
            ],
            "name": "setTiempo",
            "outputs": [
                {
                    "internalType": "uint256",
                    "name": "",
                    "type": "uint256"
                }
            ],
            "stateMutability": "nonpayable",
            "type": "function"
        },
        {
            "inputs": [
                {
                    "internalType": "uint256",
                    "name": "_unidades",
                    "type": "uint256"
                }
            ],
            "name": "setTiempoUnidades",
            "outputs": [
                {
                    "internalType": "uint256",
                    "name": "",
                    "type": "uint256"
                }
            ],
            "stateMutability": "nonpayable",
            "type": "function"
        },
        {
            "inputs": [
                {
                    "internalType": "address[]",
                    "name": "_wallet",
                    "type": "address[]"
                },
                {
                    "internalType": "uint256[]",
                    "name": "_fee",
                    "type": "uint256[]"
                }
            ],
            "name": "setWalletFee",
            "outputs": [
                {
                    "internalType": "bool",
                    "name": "",
                    "type": "bool"
                }
            ],
            "stateMutability": "nonpayable",
            "type": "function"
        },
        {
            "inputs": [
                {
                    "internalType": "address[]",
                    "name": "_wallets",
                    "type": "address[]"
                },
                {
                    "internalType": "uint256[]",
                    "name": "_valores",
                    "type": "uint256[]"
                }
            ],
            "name": "setWalletstransfers",
            "outputs": [
                {
                    "internalType": "bool",
                    "name": "",
                    "type": "bool"
                }
            ],
            "stateMutability": "nonpayable",
            "type": "function"
        },
        {
            "inputs": [
                {
                    "internalType": "uint256",
                    "name": "_duracionMembership",
                    "type": "uint256"
                }
            ],
            "name": "setduracionMembership",
            "outputs": [
                {
                    "internalType": "bool",
                    "name": "",
                    "type": "bool"
                }
            ],
            "stateMutability": "nonpayable",
            "type": "function"
        },
        {
            "inputs": [],
            "name": "tiempo",
            "outputs": [
                {
                    "internalType": "uint256",
                    "name": "",
                    "type": "uint256"
                }
            ],
            "stateMutability": "view",
            "type": "function"
        },
        {
            "inputs": [],
            "name": "tokenPricipal",
            "outputs": [
                {
                    "internalType": "address",
                    "name": "",
                    "type": "address"
                }
            ],
            "stateMutability": "view",
            "type": "function"
        },
        {
            "inputs": [],
            "name": "totalInvested",
            "outputs": [
                {
                    "internalType": "uint256",
                    "name": "",
                    "type": "uint256"
                }
            ],
            "stateMutability": "view",
            "type": "function"
        },
        {
            "inputs": [],
            "name": "totalInvestors",
            "outputs": [
                {
                    "internalType": "uint256",
                    "name": "",
                    "type": "uint256"
                }
            ],
            "stateMutability": "view",
            "type": "function"
        },
        {
            "inputs": [],
            "name": "totalRange",
            "outputs": [
                {
                    "internalType": "uint256",
                    "name": "",
                    "type": "uint256"
                }
            ],
            "stateMutability": "view",
            "type": "function"
        },
        {
            "inputs": [],
            "name": "totalRangeWitdrawl",
            "outputs": [
                {
                    "internalType": "uint256",
                    "name": "",
                    "type": "uint256"
                }
            ],
            "stateMutability": "view",
            "type": "function"
        },
        {
            "inputs": [],
            "name": "totalRefRewards",
            "outputs": [
                {
                    "internalType": "uint256",
                    "name": "",
                    "type": "uint256"
                }
            ],
            "stateMutability": "view",
            "type": "function"
        },
        {
            "inputs": [],
            "name": "totalRefWitdrawl",
            "outputs": [
                {
                    "internalType": "uint256",
                    "name": "",
                    "type": "uint256"
                }
            ],
            "stateMutability": "view",
            "type": "function"
        },
        {
            "inputs": [],
            "name": "totalRoiWitdrawl",
            "outputs": [
                {
                    "internalType": "uint256",
                    "name": "",
                    "type": "uint256"
                }
            ],
            "stateMutability": "view",
            "type": "function"
        },
        {
            "inputs": [],
            "name": "totalTeamWitdrawl",
            "outputs": [
                {
                    "internalType": "uint256",
                    "name": "",
                    "type": "uint256"
                }
            ],
            "stateMutability": "view",
            "type": "function"
        },
        {
            "inputs": [
                {
                    "internalType": "address payable",
                    "name": "newOwner",
                    "type": "address"
                }
            ],
            "name": "transferOwnership",
            "outputs": [],
            "stateMutability": "nonpayable",
            "type": "function"
        },
        {
            "inputs": [],
            "name": "unidades",
            "outputs": [
                {
                    "internalType": "uint256",
                    "name": "",
                    "type": "uint256"
                }
            ],
            "stateMutability": "view",
            "type": "function"
        },
        {
            "inputs": [
                {
                    "internalType": "string",
                    "name": "_datos",
                    "type": "string"
                }
            ],
            "name": "updateData",
            "outputs": [],
            "stateMutability": "nonpayable",
            "type": "function"
        },
        {
            "inputs": [
                {
                    "internalType": "address",
                    "name": "_user",
                    "type": "address"
                },
                {
                    "components": [
                        {
                            "internalType": "bool",
                            "name": "registered",
                            "type": "bool"
                        },
                        {
                            "internalType": "uint256",
                            "name": "membership",
                            "type": "uint256"
                        },
                        {
                            "internalType": "uint256",
                            "name": "balanceRef",
                            "type": "uint256"
                        },
                        {
                            "internalType": "uint256",
                            "name": "balanceInfinit",
                            "type": "uint256"
                        },
                        {
                            "internalType": "uint256",
                            "name": "totalRef",
                            "type": "uint256"
                        },
                        {
                            "internalType": "uint256",
                            "name": "invested",
                            "type": "uint256"
                        },
                        {
                            "internalType": "uint256",
                            "name": "paidAt",
                            "type": "uint256"
                        },
                        {
                            "internalType": "uint256",
                            "name": "paidAt2",
                            "type": "uint256"
                        },
                        {
                            "internalType": "uint256",
                            "name": "withdrawn",
                            "type": "uint256"
                        },
                        {
                            "internalType": "uint256",
                            "name": "directos",
                            "type": "uint256"
                        },
                        {
                            "internalType": "string",
                            "name": "data",
                            "type": "string"
                        },
                        {
                            "internalType": "uint256",
                            "name": "blokesDirectos",
                            "type": "uint256"
                        }
                    ],
                    "internalType": "struct InfinitySystemV2.Investor",
                    "name": "cosa",
                    "type": "tuple"
                }
            ],
            "name": "updateDataAdmin",
            "outputs": [],
            "stateMutability": "nonpayable",
            "type": "function"
        },
        {
            "inputs": [
                {
                    "internalType": "uint256",
                    "name": "",
                    "type": "uint256"
                }
            ],
            "name": "usdtRetirado",
            "outputs": [
                {
                    "internalType": "uint256",
                    "name": "",
                    "type": "uint256"
                }
            ],
            "stateMutability": "view",
            "type": "function"
        },
        {
            "inputs": [
                {
                    "internalType": "uint256",
                    "name": "",
                    "type": "uint256"
                }
            ],
            "name": "valor",
            "outputs": [
                {
                    "internalType": "uint256",
                    "name": "",
                    "type": "uint256"
                }
            ],
            "stateMutability": "view",
            "type": "function"
        },
        {
            "inputs": [
                {
                    "internalType": "uint256",
                    "name": "",
                    "type": "uint256"
                }
            ],
            "name": "valorFee",
            "outputs": [
                {
                    "internalType": "uint256",
                    "name": "",
                    "type": "uint256"
                }
            ],
            "stateMutability": "view",
            "type": "function"
        },
        {
            "inputs": [],
            "name": "version",
            "outputs": [
                {
                    "internalType": "uint256",
                    "name": "",
                    "type": "uint256"
                }
            ],
            "stateMutability": "view",
            "type": "function"
        },
        {
            "inputs": [
                {
                    "internalType": "uint256",
                    "name": "",
                    "type": "uint256"
                }
            ],
            "name": "wallet",
            "outputs": [
                {
                    "internalType": "address",
                    "name": "",
                    "type": "address"
                }
            ],
            "stateMutability": "view",
            "type": "function"
        },
        {
            "inputs": [
                {
                    "internalType": "uint256",
                    "name": "",
                    "type": "uint256"
                }
            ],
            "name": "walletFee",
            "outputs": [
                {
                    "internalType": "address",
                    "name": "",
                    "type": "address"
                }
            ],
            "stateMutability": "view",
            "type": "function"
        },
        {
            "inputs": [],
            "name": "withdraw",
            "outputs": [],
            "stateMutability": "nonpayable",
            "type": "function"
        },
        {
            "inputs": [],
            "name": "withdraw2",
            "outputs": [],
            "stateMutability": "nonpayable",
            "type": "function"
        },
        {
            "inputs": [],
            "name": "withdrawTeam",
            "outputs": [],
            "stateMutability": "nonpayable",
            "type": "function"
        },
        {
            "inputs": [
                {
                    "internalType": "address",
                    "name": "any_user",
                    "type": "address"
                },
                {
                    "internalType": "bool",
                    "name": "_infinity",
                    "type": "bool"
                }
            ],
            "name": "withdrawable",
            "outputs": [
                {
                    "internalType": "uint256",
                    "name": "",
                    "type": "uint256"
                }
            ],
            "stateMutability": "view",
            "type": "function"
        },
        {
            "inputs": [
                {
                    "internalType": "address",
                    "name": "any_user",
                    "type": "address"
                }
            ],
            "name": "withdrawableRange",
            "outputs": [
                {
                    "internalType": "uint256",
                    "name": "amount",
                    "type": "uint256"
                }
            ],
            "stateMutability": "view",
            "type": "function"
        },
        {
            "stateMutability": "payable",
            "type": "receive"
        }
    ],
    "bytecode": "600380546001600160a01b03199081167355d398326f99059ff775485246999027b31979559081179092556004805482167347da06e10cf59f00cce3aeb66f9779b5e1da2b7f179055600580548216831781556002600655674563918244f400006007556802b5e3af16b188000060085560098054909216909217905561012060405260326080908152601e60a052601460c052600a60e0819052610100819052620000ae9290919062000527565b506040805160a081018252600f8152600960208201526006918101919091526003606082018190526080820152620000eb90600b90600562000527565b506040805160a08101825260058082526003602083015260029282019290925260016060820181905260808201526200012891600c919062000527565b506040805161016081018252600080825260208201819052918101829052606081018290526080810182905260a0810182905260c0810182905260e08101829052610100810182905261012081018290526101408101919091526200019290600d90600b6200057c565b506040805161016081018252680410d586a20a4c00008152680821ab0d441498000060208201526814542ba12a337c0000918101919091526828a857425466f800006060820152685150ae84a8cdf00000608082015268cb49b44ba602d8000060a08201526901969368974c05b0000060c082015269032d26d12e980b60000060e0820152690a968163f0a57b400000610100820152691fc3842bd1f071c000006101208201526934f086f3b33b684000006101408201526200025a90600e90600b62000623565b5060408051610160810182526064815260c860208201526101f4918101919091526103e860608201526107d0608082015261138860a082015261271060c0820152614e2060e0820152620186a0610100820152620493e06101208201526207a120610140820152620002d190600f90600b6200066c565b506010805460ff1916600190811790915561016d6011556103846012556201518060135560f0601455606460155560026016819055601782905560289190915560408051808201909152734490566647735e8cbce0ce96efc8fb91c164859b815273d0f2fcdf7d399205e9709c6d0fbee434335e42dd60208201526200035b9160299190620006b1565b506040805180820190915260058152605f60208201526200038190602a90600262000527565b506801a055690d9db80000602b55604080516060810182527317a7e5b2d9b5d191f7307e990e630c9dc18e1396815273afe9d039ec7d4409b1b8c2f1556f20843079b7286020820152738dd59f5670e9809c8a800a49d1ff1cea471c53da91810191909152620003f690602c906003620006b1565b506040805160608101825260468152600860208201526005918101919091526200042590602d90600362000527565b503480156200043357600080fd5b50600180546001600160a01b0319163390811782556000908152600260209081526040808320805460ff19908116861790915584546001600160a01b03168452601d9092529091208054909116909117815560135460115462000497919062000787565b620004ab90670de0b6b3a764000062000787565b620004b79042620007a9565b6001820155336000908152602560205260409020600d8054620004dc92919062000709565b50507fec8fa5b038da1e720ea021ba5ca9b6d584cce4d81a9a9ab37c8a07ee3bc6511080546001600160a01b03191633908117909155600090815260246020526040812055620007c4565b8280548282559060005260206000209081019282156200056a579160200282015b828111156200056a578251829060ff1690559160200191906001019062000548565b50620005789291506200075a565b5090565b82805482825590600052602060002090601f016020900481019282156200056a5791602002820160005b83821115620005e557835183826101000a81548160ff0219169083151502179055509260200192600101602081600001049283019260010302620005a6565b8015620006145782816101000a81549060ff0219169055600101602081600001049283019260010302620005e5565b5050620005789291506200075a565b8280548282559060005260206000209081019282156200056a579160200282015b828111156200056a57825182906001600160501b031690559160200191906001019062000644565b8280548282559060005260206000209081019282156200056a579160200282015b828111156200056a578251829062ffffff169055916020019190600101906200068d565b8280548282559060005260206000209081019282156200056a579160200282015b828111156200056a57825182546001600160a01b0319166001600160a01b03909116178255602090920191600190910190620006d2565b82805482825590600052602060002090601f016020900481019282156200056a57600052602060002091601f016020900482015b828111156200056a5782548255916001019190600101906200073d565b5b808211156200057857600081556001016200075b565b634e487b7160e01b600052601160045260246000fd5b6000816000190483118215151615620007a457620007a462000771565b500290565b60008219821115620007bf57620007bf62000771565b500190565b61531380620007d46000396000f3fe6080604052600436106104fb5760003560e01c80637367b0801161028c578063b5df6d441161015a578063ea98847b116100cc578063f90b3f5a11610085578063f90b3f5a14611013578063fc5d861514611033578063fcec0fdf14611053578063fd14d59814611073578063fd9a3fad14611088578063ff0b0cc5146110a857610517565b8063ea98847b14610f7f578063ecdb171f14610f94578063edf5eb1d14610fa9578063eef117fd14610fc9578063f2fde38b14610fde578063f5c9dbef14610ffe57610517565b8063cb0e0d7d1161011e578063cb0e0d7d14610ea5578063cc759ba214610ed2578063cfda9ee614610ee8578063d01a5a1314610f08578063d784d42614610f28578063e7348e8c14610f6557610517565b8063b5df6d4414610e17578063bb51f32d14610e44578063bfe0e02014610e59578063c17dbdf914610e6f578063c40d5dbc14610e8f57610517565b806398c07d0a116101fe578063aaa749c5116101b7578063aaa749c514610d4b578063ab6db19914610d6b578063b139042614610d81578063b17b6e4414610da1578063b35f0a8f14610dc1578063b3d9fa0914610df757610517565b806398c07d0a14610c855780639b8ff50314610ca5578063a278133514610cbb578063a365528b14610cdb578063a5a7e04c14610d0b578063a8beb71714610d2b57610517565b80637fcc1e36116102505780637fcc1e3614610bb85780638103289214610be5578063815374ca14610c0557806389b2521c14610c255780638da5cb5b14610c455780638f9ef8c114610c6557610517565b80637367b08014610b2c5780637583f8fc14610b4c5780637b0412ed14610b6c5780637db9e9c614610b825780637faee04714610b9857610517565b80634acb7240116103c957806363a846f81161033b5780636c529279116102f45780636c52927914610a685780636f7bc9be14610a7e57806370a0966b14610ab657806370d7e3d514610ad65780637251b9ac14610aec578063725fc27014610b0c57610517565b806363a846f8146109a35780636589fa8a146109d357806367f74aab146109f357806368446ead14610a1357806369ed1e0a14610a3357806369f4a84b14610a5357610517565b80635216aeec1161038d5780635216aeec146108f7578063548225221461090d57806354fd4d501461092d5780635c60da1b146109435780635d216c6014610963578063625509161461098357610517565b80634acb72401461086c5780634b9b82031461088c5780634de1be62146108a257806350188c08146108c257806350da983f146108d757610517565b806329b8caff1161046d578063339640b511610426578063339640b5146107b0578063348d4487146107d05780633ccfd60b146107e657806341f1771c146107fb57806343bf0bd4146108365780634728f7181461085657610517565b806329b8caff146106cc57806329e1a243146106e25780632a2d0c47146107025780632acc8210146107505780632e8a03cf1461077057806330d2949f1461079057610517565b80631e403c35116104bf5780631e403c35146105fc5780631f5d65fd1461062957806321309f211461065657806324de19f2146106765780632748d29b1461068c57806328cca719146106ac57610517565b8063047ff6d21461052c5780631053abb11461054c5780631140e85b1461058157806315e8392b146105af5780631ce7f99b146105dc57610517565b3661051757600054610515906001600160a01b03166110be565b005b600054610515906001600160a01b03166110be565b34801561053857600080fd5b50610515610547366004614948565b6110e7565b34801561055857600080fd5b5061056c610567366004614948565b611439565b60405190151581526020015b60405180910390f35b34801561058d57600080fd5b506105a161059c366004614981565b611605565b604051908152602001610578565b3480156105bb57600080fd5b506105cf6105ca36600461499a565b611719565b60405161057891906149c6565b3480156105e857600080fd5b506105cf6105f7366004614b19565b6117ae565b34801561060857600080fd5b5061061c610617366004614b4d565b61186c565b6040516105789190614baa565b34801561063557600080fd5b506105a1610644366004614981565b60276020526000908152604090205481565b34801561066257600080fd5b506105a1610671366004614981565b611901565b34801561068257600080fd5b506105a160085481565b34801561069857600080fd5b506105a16106a7366004614981565b611922565b3480156106b857600080fd5b506105a16106c7366004614981565b611945565b3480156106d857600080fd5b506105a160175481565b3480156106ee57600080fd5b506105a16106fd366004614981565b611955565b34801561070e57600080fd5b5061073861071d366004614981565b6023602052600090815260409020546001600160a01b031681565b6040516001600160a01b039091168152602001610578565b34801561075c57600080fd5b5061056c61076b36600461499a565b611965565b34801561077c57600080fd5b5061056c61078b366004614981565b6119a8565b34801561079c57600080fd5b5061056c6107ab366004614bbd565b6119cb565b3480156107bc57600080fd5b506107386107cb36600461499a565b611a0a565b3480156107dc57600080fd5b506105a160285481565b3480156107f257600080fd5b50610515611a42565b34801561080757600080fd5b5061081b61081636600461499a565b611bcf565b60408051938452602084019290925290820152606001610578565b34801561084257600080fd5b5061056c610851366004614cb2565b611c11565b34801561086257600080fd5b506105a160145481565b34801561087857600080fd5b5061056c610887366004614981565b611c90565b34801561089857600080fd5b506105a160135481565b3480156108ae57600080fd5b506105a16108bd366004614981565b611cb3565b3480156108ce57600080fd5b506105a1611cd6565b3480156108e357600080fd5b5061056c6108f2366004614bbd565b611cf4565b34801561090357600080fd5b506105a160185481565b34801561091957600080fd5b5061061c610928366004614b4d565b611d41565b34801561093957600080fd5b506105a160065481565b34801561094f57600080fd5b50600054610738906001600160a01b031681565b34801561096f57600080fd5b5061061c61097e366004614b4d565b611dd4565b34801561098f57600080fd5b506105a161099e366004614981565b611e67565b3480156109af57600080fd5b5061056c6109be366004614bbd565b60026020526000908152604090205460ff1681565b3480156109df57600080fd5b506105a16109ee366004614981565b611e77565b3480156109ff57600080fd5b5061056c610a0e366004614d39565b611e9c565b348015610a1f57600080fd5b50610515610a2e366004614dea565b611eeb565b348015610a3f57600080fd5b50610515610a4e366004614bbd565b611f15565b348015610a5f57600080fd5b50610515611f9c565b348015610a7457600080fd5b506105a160075481565b348015610a8a57600080fd5b50610a9e610a99366004614bbd565b6122b6565b6040516105789c9b9a99989796959493929190614e1e565b348015610ac257600080fd5b50610515610ad1366004614bbd565b6123a3565b348015610ae257600080fd5b506105a1601a5481565b348015610af857600080fd5b50610738610b07366004614981565b612422565b348015610b1857600080fd5b506105a1610b27366004614981565b61244c565b348015610b3857600080fd5b5061061c610b47366004614ed0565b61245c565b348015610b5857600080fd5b5061056c610b67366004614f04565b612506565b348015610b7857600080fd5b506105a160155481565b348015610b8e57600080fd5b506105a1602b5481565b348015610ba457600080fd5b506105cf610bb3366004614b19565b612551565b348015610bc457600080fd5b50610bd8610bd3366004614f67565b61266e565b6040516105789190614fcd565b348015610bf157600080fd5b506105a1610c00366004614981565b61271d565b348015610c1157600080fd5b506105cf610c20366004614bbd565b61272d565b348015610c3157600080fd5b506105a1610c40366004614fe0565b6127e4565b348015610c5157600080fd5b50600154610738906001600160a01b031681565b348015610c7157600080fd5b50610515610c8036600461500e565b612805565b348015610c9157600080fd5b506105a1610ca0366004614bbd565b612bb8565b348015610cb157600080fd5b506105a1601b5481565b348015610cc757600080fd5b50610738610cd6366004614981565b612da8565b348015610ce757600080fd5b50610cfb610cf6366004614fe0565b612db8565b6040516105789493929190615053565b348015610d1757600080fd5b50610515610d26366004614981565b6132c7565b348015610d3757600080fd5b5061056c610d46366004614f04565b6135e4565b348015610d5757600080fd5b5061056c610d66366004614981565b613625565b348015610d7757600080fd5b506105a160125481565b348015610d8d57600080fd5b50600954610738906001600160a01b031681565b348015610dad57600080fd5b5061056c610dbc36600461509e565b613648565b348015610dcd57600080fd5b50610738610ddc366004614bbd565b6021602052600090815260409020546001600160a01b031681565b348015610e0357600080fd5b5061056c610e12366004614981565b613676565b348015610e2357600080fd5b506105a1610e32366004614981565b60266020526000908152604090205481565b348015610e5057600080fd5b50610515613699565b348015610e6557600080fd5b506105a160195481565b348015610e7b57600080fd5b50610515610e8a366004614981565b6137ee565b348015610e9b57600080fd5b506105a160115481565b348015610eb157600080fd5b506105a1610ec0366004614bbd565b60246020526000908152604090205481565b348015610ede57600080fd5b506105a160165481565b348015610ef457600080fd5b5061056c610f03366004614981565b613c01565b348015610f1457600080fd5b50610515610f233660046150bb565b613c35565b348015610f3457600080fd5b50610515610f43366004614bbd565b600080546001600160a01b0319166001600160a01b0392909216919091179055565b348015610f7157600080fd5b5060105461056c9060ff1681565b348015610f8b57600080fd5b50610515613d04565b348015610fa057600080fd5b506105a1613e89565b348015610fb557600080fd5b506105a1610fc4366004614981565b613f34565b348015610fd557600080fd5b506105a1613f44565b348015610fea57600080fd5b50610515610ff9366004614bbd565b613f81565b34801561100a57600080fd5b50600d546105a1565b34801561101f57600080fd5b506105a161102e366004614981565b614007565b34801561103f57600080fd5b5061056c61104e36600461499a565b61402c565b34801561105f57600080fd5b5061081b61106e36600461499a565b6141ca565b34801561107f57600080fd5b506105a16141e6565b34801561109457600080fd5b5061081b6110a336600461499a565b614240565b3480156110b457600080fd5b506105a1601c5481565b3660008037600080366000845af43d6000803e8080156110dd573d6000f35b3d6000fd5b505050565b336000908152601d602052604080822060048054925163226c948760e21b81526001600160a01b03878116928201929092526024810185905291939216906389b2521c90604401602060405180830381865afa15801561114b573d6000803e3d6000fd5b505050506040513d601f19601f8201168201806040525081019061116f91906151bb565b11801561117e5750805460ff16155b1561143457805460ff1916600117815560135460115461119e91906151ea565b6111a89042615209565b600182015533600090815260216020908152604080832080546001600160a01b0319166001600160a01b0387169081179091558352601d90915281206009018054916111f383615221565b90915550506001600160a01b0382166000908152602260209081526040822080546001810182559083529082200180546001600160a01b03191633179055601780549161123f83615221565b9091555050336000908152602560205260409020600d805461126292919061471a565b5060288054600090815260236020908152604080832080546001600160a01b0319163390811790915584549084526024909252822081905591906112a583615221565b9091555050426006820181905560078201556004805460405163226c948760e21b81526001600160a01b03808716938201939093526000602482015261135692869261134f9260f092611349926064929116906389b2521c906044015b602060405180830381865afa15801561131f573d6000803e3d6000fd5b505050506040513d601f19601f8201168201806040525081019061134391906151bb565b9061425b565b90614294565b60006142ae565b506004805460405163226c948760e21b81526001600160a01b038681169382019390935260016024820152600092909116906389b2521c90604401602060405180830381865afa1580156113ae573d6000803e3d6000fd5b505050506040513d601f19601f820116820180604052508101906113d291906151bb565b11156110e2576004805460405163226c948760e21b81526001600160a01b03808716938201939093526001602482015261142e9286926114279260f092611349926064929116906389b2521c90604401611302565b60016142ae565b50505050565b600080fd5b3360009081526002602052604081205460ff1661145557600080fd5b6001600160a01b03821661146857600080fd5b6001600160a01b0383166000908152601d60205260409020805460ff166115d457805460ff191660011781556013546011546114a491906151ea565b6114ae9042615209565b60018201556001600160a01b03848116600090815260216020908152604080832080546001600160a01b0319169488169485179055928252601d905290812060098101805491926114fe83615221565b90915550506001600160a01b038481166000908152602260209081526040822080546001810182559083529082200180546001600160a01b03191692881692909217909155601780549161155183615221565b90915550506001600160a01b0385166000908152602560205260409020600d805461157d92919061471a565b5060288054600090815260236020908152604080832080546001600160a01b0319166001600160a01b038b1690811790915584549084526024909252822081905591906115c983615221565b9190505550506115f9565b6013546011546115e491906151ea565b81600101546115f39190615209565b60018201555b60019150505b92915050565b6001546000906001600160a01b0316331461161f57600080fd5b6005546040516370a0823160e01b815230600482015283916001600160a01b0316906370a0823190602401602060405180830381865afa158015611667573d6000803e3d6000fd5b505050506040513d601f19601f8201168201806040525081019061168b91906151bb565b101561169657600080fd5b60055460015460405163a9059cbb60e01b81526001600160a01b0391821660048201526024810185905291169063a9059cbb906044016020604051808303816000875af11580156116eb573d6000803e3d6000fd5b505050506040513d601f19601f8201168201806040525081019061170f919061523c565b508190505b919050565b60608060005b838110156117a657611730826117ae565b6001600160a01b038087166000908152602160205260409020548251929450169083908390811061176357611763615259565b6001600160a01b0392831660209182029290920181019190915295811660009081526021909652604090952054909416938061179e81615221565b91505061171f565b509392505050565b60606000825160016117c09190615209565b6001600160401b038111156117d7576117d7614a13565b604051908082528060200260200182016040528015611800578160200160208202803683370190505b50905060005b83518110156118655783818151811061182157611821615259565b602002602001015182828151811061183b5761183b615259565b6001600160a01b03909216602092830291909101909101528061185d81615221565b915050611806565b5092915050565b6001546060906001600160a01b0316331461188657600080fd5b81600b848154811061189a5761189a615259565b9060005260206000200181905550600b8054806020026020016040519081016040528092919081815260200182805480156118f457602002820191906000526020600020905b8154815260200190600101908083116118e0575b5050505050905092915050565b600f818154811061191157600080fd5b600091825260209091200154905081565b6001546000906001600160a01b0316331461193c57600080fd5b50601381905590565b600b818154811061191157600080fd5b602a818154811061191157600080fd5b6025602052816000526040600020818154811061198157600080fd5b9060005260206000209060209182820401919006915091509054906101000a900460ff1681565b6001546000906001600160a01b031633146119c257600080fd5b50600855600190565b6001546000906001600160a01b031633146119e557600080fd5b50600480546001600160a01b0383166001600160a01b03199091161790556001919050565b60226020528160005260406000208181548110611a2657600080fd5b6000918252602090912001546001600160a01b03169150829050565b60105460ff16611a5157600080fd5b336000818152601d6020526040812091611a6b90826127e4565b6005546040516370a0823160e01b815230600482015291925082916001600160a01b03909116906370a0823190602401602060405180830381865afa158015611ab8573d6000803e3d6000fd5b505050506040513d601f19601f82011682018060405250810190611adc91906151bb565b1015611ae757600080fd5b600754811015611af657600080fd5b6005546015546001600160a01b039091169063a9059cbb903390611b229060649061134990879061425b565b6040516001600160e01b031960e085901b1681526001600160a01b03909216600483015260248201526044016020604051808303816000875af1158015611b6d573d6000803e3d6000fd5b505050506040513d601f19601f82011682018060405250810190611b91919061523c565b5080826008016000828254611ba69190615209565b9091555050426006830155601a8054829190600090611bc6908490615209565b90915550505050565b601f6020528160005260406000208181548110611beb57600080fd5b600091825260209091206003909102018054600182015460029092015490935090915083565b6001546000906001600160a01b03163314611c2b57600080fd5b8351611c3e90600d906020870190614778565b508251611c5290600e906020860190614818565b508151611c6690600f906020850190614818565b50336000908152602560205260409020600d8054611c8592919061471a565b506001949350505050565b6001546000906001600160a01b03163314611caa57600080fd5b50601155600190565b6001546000906001600160a01b03163314611ccd57600080fd5b50600781905590565b6000611cef60135460125461425b90919063ffffffff16565b905090565b6001546000906001600160a01b03163314611d0e57600080fd5b50600580546001600160a01b0383166001600160a01b031991821681179092556009805490911690911790556001919050565b6001546060906001600160a01b03163314611d5b57600080fd5b81600a8481548110611d6f57611d6f615259565b9060005260206000200181905550600a8054806020026020016040519081016040528092919081815260200182805480156118f457602002820191906000526020600020908154815260200190600101908083116118e0575050505050905092915050565b6001546060906001600160a01b03163314611dee57600080fd5b81600c8481548110611e0257611e02615259565b9060005260206000200181905550600c8054806020026020016040519081016040528092919081815260200182805480156118f457602002820191906000526020600020908154815260200190600101908083116118e0575050505050905092915050565b602d818154811061191157600080fd5b3360009081526002602052604081205460ff16611e9357600080fd5b50601481905590565b3360009081526002602052604081205460ff16611eb857600080fd5b60008311611ec557600080fd5b600083600854611ed591906151ea565b9050611ee28582856142ae565b95945050505050565b336000908152601d602090815260409091208251611f1192600a90920191840190614853565b5050565b3360009081526002602052604090205460ff16611f3157600080fd5b6001600160a01b038116611f4457600080fd5b6040516001600160a01b038216907f71614071b88dee5e0b2ae578a9dd7b2ebbe9ae832ba419dc0242cd065a290b6c90600090a26001600160a01b03166000908152600260205260409020805460ff19166001179055565b6000611fa733612bb8565b905060008111611fb657600080fd5b336000908152601d60209081526040808320815161018081018352815460ff16151581526001820154938101939093526002810154918301919091526003810154606083015260048101546080830152600581015460a0830152600681015460c0830152600781015460e083015260088101546101008301526009810154610120830152600a81018054610140840191906120509061526f565b80601f016020809104026020016040519081016040528092919081815260200182805461207c9061526f565b80156120c95780601f1061209e576101008083540402835291602001916120c9565b820191906000526020600020905b8154815290600101906020018083116120ac57829003601f168201915b50505050508152602001600b82015481525050905060005b600e548110156110e257600f81815481106120fe576120fe615259565b90600052602060002001548261016001511015801561215b575033600090815260256020526040902080548290811061213957612139615259565b90600052602060002090602091828204019190069054906101000a900460ff16155b156122a457600554600e80546001600160a01b039092169163a9059cbb9133918590811061218b5761218b615259565b6000918252602090912001546040516001600160e01b031960e085901b1681526001600160a01b03909216600483015260248201526044016020604051808303816000875af11580156121e2573d6000803e3d6000fd5b505050506040513d601f19601f82011682018060405250810190612206919061523c565b503360009081526025602052604090208054600191908390811061222c5761222c615259565b90600052602060002090602091828204019190066101000a81548160ff021916908315150217905550600e818154811061226857612268615259565b6000918252602080832090910154338352602482526040808420548452602790925290822080549192909161229e908490615209565b90915550505b806122ae81615221565b9150506120e1565b601d60205260009081526040902080546001820154600283015460038401546004850154600586015460068701546007880154600889015460098a0154600a8b01805460ff909b169b999a9899979896979596949593949293919261231a9061526f565b80601f01602080910402602001604051908101604052809291908181526020018280546123469061526f565b80156123935780601f1061236857610100808354040283529160200191612393565b820191906000526020600020905b81548152906001019060200180831161237657829003601f168201915b50505050509080600b015490508c565b6001546001600160a01b031633146123ba57600080fd5b6001600160a01b0381166123cd57600080fd5b6040516001600160a01b038216907fa3b62bc36326052d97ea62d63c3d60308ed4c3ea8ac079dd8499f1e9c4f80c0f90600090a26001600160a01b03166000908152600260205260409020805460ff19169055565b6029818154811061243257600080fd5b6000918252602090912001546001600160a01b0316905081565b600a818154811061191157600080fd5b606060008251600161246e9190615209565b6001600160401b0381111561248557612485614a13565b6040519080825280602002602001820160405280156124ae578160200160208202803683370190505b50905060005b8351811015611865578381815181106124cf576124cf615259565b60200260200101518282815181106124e9576124e9615259565b6020908102919091010152806124fe81615221565b9150506124b4565b6001546000906001600160a01b0316331461252057600080fd5b82516125339060299060208601906148c6565b50815161254790602a906020850190614818565b5060019392505050565b60606000805b835181101561266657601d600085838151811061257657612576615259565b60200260200101516001600160a01b03166001600160a01b0316815260200190815260200160002091506000805b85518110156125f7578581815181106125bf576125bf615259565b60200260200101516001600160a01b0316826001600160a01b031614156125e557600091505b806125ef81615221565b9150506125a4565b506001600160a01b0381161561265357612610856117ae565b945080856001875161262291906152a4565b8151811061263257612632615259565b60200260200101906001600160a01b031690816001600160a01b0316815250505b508061265e81615221565b915050612557565b509192915050565b60606000825160016126809190615209565b6001600160401b0381111561269757612697614a13565b6040519080825280602002602001820160405280156126c0578160200160208202803683370190505b50905060005b8351811015611865578381815181106126e1576126e1615259565b60200260200101518282815181106126fb576126fb615259565b911515602092830291909101909101528061271581615221565b9150506126c6565b600e818154811061191157600080fd5b60608060005b6001600160a01b0384166000908152602260205260409020548110156118655761275c826117ae565b6001600160a01b03851660009081526022602052604090208054919350908290811061278a5761278a615259565b9060005260206000200160009054906101000a90046001600160a01b03168282815181106127ba576127ba615259565b6001600160a01b0390921660209283029190910190910152806127dc81615221565b915050612733565b6000606080606060006127f78787612db8565b9a9950505050505050505050565b336000908152601d602052604090206001600160a01b03831661282757600080fd5b602b541561293757602b54600554604051636eb1769f60e11b81523360048201523060248201526001600160a01b039091169063dd62ed3e90604401602060405180830381865afa158015612880573d6000803e3d6000fd5b505050506040513d601f19601f820116820180604052508101906128a491906151bb565b10156128af57600080fd5b600554602b546040516323b872dd60e01b815233600482015230602482015260448101919091526001600160a01b03909116906323b872dd906064016020604051808303816000875af115801561290a573d6000803e3d6000fd5b505050506040513d601f19601f8201168201806040525081019061292e919061523c565b61293757600080fd5b60005b602954811015612a4557600554602980546001600160a01b039092169163a9059cbb91908490811061296e5761296e615259565b9060005260206000200160009054906101000a90046001600160a01b03166129c36064611349602a87815481106129a7576129a7615259565b9060005260206000200154602b5461425b90919063ffffffff16565b6040516001600160e01b031960e085901b1681526001600160a01b03909216600483015260248201526044016020604051808303816000875af1158015612a0e573d6000803e3d6000fd5b505050506040513d601f19601f82011682018060405250810190612a32919061523c565b5080612a3d81615221565b91505061293a565b50805460ff16612b7e57805460ff19166001178155601354601154612a6a91906151ea565b612a749042615209565b600182015533600090815260216020908152604080832080546001600160a01b0319166001600160a01b0388169081179091558352601d90915281206009810180549192612ac183615221565b90915550506001600160a01b0384166000908152602260209081526040822080546001810182559083529082200180546001600160a01b031916331790556017805491612b0d83615221565b9091555050336000908152602560205260409020600d8054612b3092919061471a565b5060288054600090815260236020908152604080832080546001600160a01b031916339081179091558454908452602490925282208190559190612b7383615221565b919050555050612ba3565b601354601154612b8e91906151ea565b8160010154612b9d9190615209565b60018201555b815161142e90600a8301906020850190614853565b6001600160a01b0381166000908152601d60209081526040808320815161018081018352815460ff16151581526001820154938101939093526002810154918301919091526003810154606083015260048101546080830152600581015460a0830152600681015460c0830152600781015460e083015260088101546101008301526009810154610120830152600a8101805484939291610140840191612c5e9061526f565b80601f0160208091040260200160405190810160405280929190818152602001828054612c8a9061526f565b8015612cd75780601f10612cac57610100808354040283529160200191612cd7565b820191906000526020600020905b815481529060010190602001808311612cba57829003601f168201915b50505050508152602001600b82015481525050905060005b600e54811015612da157600f8181548110612d0c57612d0c615259565b906000526020600020015482610160015110158015612d695750336000908152602560205260409020805482908110612d4757612d47615259565b90600052602060002090602091828204019190069054906101000a900460ff16155b15612d8f57600e8181548110612d8157612d81615259565b906000526020600020015492505b80612d9981615221565b915050612cef565b5050919050565b602c818154811061243257600080fd5b6060806060600080601d6000886001600160a01b03166001600160a01b03168152602001908152602001600020604051806101800160405290816000820160009054906101000a900460ff16151515158152602001600182015481526020016002820154815260200160038201548152602001600482015481526020016005820154815260200160068201548152602001600782015481526020016008820154815260200160098201548152602001600a82018054612e769061526f565b80601f0160208091040260200160405190810160405280929190818152602001828054612ea29061526f565b8015612eef5780601f10612ec457610100808354040283529160200191612eef565b820191906000526020600020905b815481529060010190602001808311612ed257829003601f168201915b5050509183525050600b91909101546020918201526001600160a01b0389166000908152601e82526040808220805482518186028101860190935280835294955091939092849084015b82821015612f895783829060005260206000209060030201604051806060016040529081600082015481526020016001820154815260200160028201548152505081526020019060010190612f39565b505050509050606080606060008060008c15613029576001600160a01b038e166000908152601f6020908152604080832080548251818502810185019093528083529193909284015b828210156130225783829060005260206000209060030201604051806060016040529081600082015481526020016001820154815260200160028201548152505081526020019060010190612fd2565b5050505096505b865160005b818110156132af5761303f8861245c565b975061304a8761245c565b96506130558661266e565b955088818151811061306957613069615259565b602002602001015160000151876001895161308491906152a4565b8151811061309457613094615259565b6020026020010181815250506130a8611cd6565b8982815181106130ba576130ba615259565b6020026020010151600001516130d09190615209565b42116130dc574261310c565b6130e4611cd6565b8982815181106130f6576130f6615259565b60200260200101516000015161310c9190615209565b92508e1561316c5788818151811061312657613126615259565b6020026020010151600001518a60e001511161315f5788818151811061314e5761314e615259565b602002602001015160000151613165565b8960e001515b93506131c0565b88818151811061317e5761317e615259565b6020026020010151600001518a60c00151116131b7578881815181106131a6576131a6615259565b6020026020010151600001516131bd565b8960c001515b93505b83158015906131ce57508284105b15613255576131db611cd6565b6131e585856152a4565b8a83815181106131f7576131f7615259565b60200260200101516040015161320d91906151ea565b61321791906152bb565b6132219086615209565b94506001866001885161323491906152a4565b8151811061324457613244615259565b911515602092830291909101909101525b88818151811061326757613267615259565b6020026020010151604001518860018a5161328291906152a4565b8151811061329257613292615259565b6020908102919091010152806132a781615221565b91505061302e565b50959e949d50929b5090995091975050505050505050565b600081116132d457600080fd5b336000908152601d60205260409020805460ff166132f157600080fd5b8060010154421061330157600080fd5b60008260085461331191906151ea565b9050808260030154101561332457600080fd5b8082600301600082825461333891906152a4565b9091555050336000908152602160205260409020546001600160a01b031615613438576133b63382600a8054806020026020016040519081016040528092919081815260200182805480156133ac57602002820191906000526020600020905b815481526020019060010190808311613398575b5050505050614558565b336000908152602160209081526040808320546001600160a01b03168352601d9091528120600b0180548592906133ee908490615209565b9091555050336000908152602160209081526040808320546001600160a01b0316835260248252808320548352602690915281208054859290613432908490615209565b90915550505b601f6000336001600160a01b03166001600160a01b03168152602001908152602001600020604051806060016040528042815260200161348860646113496014548761425b90919063ffffffff16565b81526020016134a760646113496014548761425b90919063ffffffff16565b9052815460018181018455600093845260208085208451600390940201928355830151908201556040909101516002909101555b602c5481101561142e57600554602c80546001600160a01b039092169163a9059cbb91908490811061350f5761350f615259565b9060005260206000200160009054906101000a90046001600160a01b03166135626064611349602d878154811061354857613548615259565b90600052602060002001548861425b90919063ffffffff16565b6040516001600160e01b031960e085901b1681526001600160a01b03909216600483015260248201526044016020604051808303816000875af11580156135ad573d6000803e3d6000fd5b505050506040513d601f19601f820116820180604052508101906135d1919061523c565b50806135dc81615221565b9150506134db565b6001546000906001600160a01b031633146135fe57600080fd5b825161361190602c9060208601906148c6565b50815161254790602d906020850190614818565b6001546000906001600160a01b0316331461363f57600080fd5b50602b55600190565b3360009081526002602052604081205460ff1661366457600080fd5b506010805460ff191682151517905590565b6001546000906001600160a01b0316331461369057600080fd5b50601555600190565b336000908152601d602052604090819020600281015460055492516370a0823160e01b81523060048201529192909182916001600160a01b0316906370a0823190602401602060405180830381865afa1580156136fa573d6000803e3d6000fd5b505050506040513d601f19601f8201168201806040525081019061371e91906151bb565b101561372957600080fd5b60075481101561373857600080fd5b6005546015546001600160a01b039091169063a9059cbb9033906137649060649061134990879061425b565b6040516001600160e01b031960e085901b1681526001600160a01b03909216600483015260248201526044016020604051808303816000875af11580156137af573d6000803e3d6000fd5b505050506040513d601f19601f820116820180604052508101906137d3919061523c565b50816002016000905580601c6000828254611bc69190615209565b600081116137fb57600080fd5b336000908152601d60205260409020805460ff1661381857600080fd5b8060010154421061382857600080fd5b60008260085461383891906151ea565b600554604051636eb1769f60e11b815233600482015230602482015291925082916001600160a01b039091169063dd62ed3e90604401602060405180830381865afa15801561388b573d6000803e3d6000fd5b505050506040513d601f19601f820116820180604052508101906138af91906151bb565b10156138ba57600080fd5b6005546040516323b872dd60e01b8152336004820152306024820152604481018390526001600160a01b03909116906323b872dd906064016020604051808303816000875af1158015613911573d6000803e3d6000fd5b505050506040513d601f19601f82011682018060405250810190613935919061523c565b61393e57600080fd5b336000908152602160205260409020546001600160a01b031615613a3a576139b53382600a8054806020026020016040519081016040528092919081815260200182805480156133ac5760200282019190600052602060002090815481526020019060010190808311613398575050505050614558565b336000908152602160209081526040808320546001600160a01b03168352601d9091528120600b81018054919286926139ef908490615209565b9091555050336000908152602160209081526040808320546001600160a01b0316835260248252808320548352602690915281208054869290613a33908490615209565b9091555050505b601e6000336001600160a01b03166001600160a01b031681526020019081526020016000206040518060600160405280428152602001613a8a60646113496014548761425b90919063ffffffff16565b8152602001613aa960646113496014548761425b90919063ffffffff16565b905281546001818101845560009384526020808520845160039094020192835583015190820155604090910151600290910155600583018054859290613af0908490615209565b925050819055508060186000828254613b099190615209565b90915550600090505b602c5481101561142e57600554602c80546001600160a01b039092169163a9059cbb919084908110613b4657613b46615259565b9060005260206000200160009054906101000a90046001600160a01b0316613b7f6064611349602d878154811061354857613548615259565b6040516001600160e01b031960e085901b1681526001600160a01b03909216600483015260248201526044016020604051808303816000875af1158015613bca573d6000803e3d6000fd5b505050506040513d601f19601f82011682018060405250810190613bee919061523c565b5080613bf981615221565b915050613b12565b600d8181548110613c1157600080fd5b9060005260206000209060209182820401919006915054906101000a900460ff1681565b3360009081526002602052604090205460ff16613c5157600080fd5b6001600160a01b0382166000908152601d60209081526040918290208351815460ff1916901515178155838201516001820155918301516002830155606083015160038301556080830151600483015560a0830151600583015560c0830151600683015560e08301516007830155610100830151600883015561012083015160098301556101408301518051849392613cf192600a850192910190614853565b5061016082015181600b01559050505050565b60105460ff16613d1357600080fd5b336000818152601d6020526040812091613d2e9060016127e4565b6005546040516370a0823160e01b815230600482015291925082916001600160a01b03909116906370a0823190602401602060405180830381865afa158015613d7b573d6000803e3d6000fd5b505050506040513d601f19601f82011682018060405250810190613d9f91906151bb565b1015613daa57600080fd5b600754811015613db957600080fd5b6005546015546001600160a01b039091169063a9059cbb903390613de59060649061134990879061425b565b6040516001600160e01b031960e085901b1681526001600160a01b03909216600483015260248201526044016020604051808303816000875af1158015613e30573d6000803e3d6000fd5b505050506040513d601f19601f82011682018060405250810190613e54919061523c565b5080826008016000828254613e699190615209565b9091555050426007830155601b8054829190600090611bc6908490615209565b60008060005b602854811015613f2e5760005b600e54811015613f1b57600f8181548110613eb957613eb9615259565b9060005260206000200154602660008481526020019081526020016000205410613f0957600e8181548110613ef057613ef0615259565b906000526020600020015483613f069190615209565b92505b80613f1381615221565b915050613e9c565b5080613f2681615221565b915050613e8f565b50919050565b600c818154811061191157600080fd5b60008060005b602854811015613f2e57600081815260276020526040902054613f6d9083615209565b915080613f7981615221565b915050613f4a565b6001546001600160a01b03163314613f9857600080fd5b6001600160a01b038116613fab57600080fd5b6001546040516001600160a01b038084169216907f8be0079c531659141344cd1fd0a4f28419497f9722a3daafe3b4186f6b6457e090600090a3600180546001600160a01b0319166001600160a01b0392909216919091179055565b3360009081526002602052604081205460ff1661402357600080fd5b50601281905590565b6001546000906001600160a01b0316331461404657600080fd5b6000821161405357600080fd5b60008260085461406391906151ea565b6001600160a01b03858116600090815260216020526040902054919250161561416c576140df8482600a8054806020026020016040519081016040528092919081815260200182805480156133ac5760200282019190600052602060002090815481526020019060010190808311613398575050505050614558565b6001600160a01b038085166000908152602160209081526040808320549093168252601d9052908120600b810180549192869261411d908490615209565b90915550506001600160a01b03808616600090815260216020908152604080832054909316825260248152828220548252602690529081208054869290614165908490615209565b9091555050505b6001600160a01b0384166000908152601d602052604081206005018054859290614197908490615209565b9250508190555080601860008282546141b09190615209565b909155506141c29050848260006142ae565b949350505050565b601e6020528160005260406000208181548110611beb57600080fd5b6001546000906001600160a01b0316331461420057600080fd5b6001546040516001600160a01b03909116904780156108fc02916000818181858888f19350505050158015614239573d6000803e3d6000fd5b5047905090565b602080528160005260406000208181548110611beb57600080fd5b60008261426a575060006115ff565b600061427683856151ea565b90508261428385836152bb565b1461428d57600080fd5b9392505050565b60008082116142a257600080fd5b60006141c283856152bb565b60008083116142bc57600080fd5b6001600160a01b0384166000908152601d60209081526040808320815161018081018352815460ff16151581526001820154938101939093526002810154918301919091526003810154606083015260048101546080830152600581015460a0830152600681015460c0830152600781015460e083015260088101546101008301526009810154610120830152600a810180546101408401919061435f9061526f565b80601f016020809104026020016040519081016040528092919081815260200182805461438b9061526f565b80156143d85780601f106143ad576101008083540402835291602001916143d8565b820191906000526020600020905b8154815290600101906020018083116143bb57829003601f168201915b50505050508152602001600b82015481525050905080600001516143fb57600080fd5b82156144ab57601f6000866001600160a01b03166001600160a01b03168152602001908152602001600020604051806060016040528042815260200161445160646113496014548a61425b90919063ffffffff16565b815260200161447060646113496014548a61425b90919063ffffffff16565b905281546001818101845560009384526020938490208351600390930201918255928201519281019290925560400151600290910155611c85565b601e6000866001600160a01b03166001600160a01b0316815260200190815260200160002060405180606001604052804281526020016144fb60646113496014548a61425b90919063ffffffff16565b815260200161451a60646113496014548a61425b90919063ffffffff16565b905281546001808201845560009384526020938490208351600390930201918255928201518184015560409091015160029091015595945050505050565b6060614565848351611719565b905060008080805b85518110156147105785818151811061458857614588615259565b60200260200101516000146146f957601d60008683815181106145ad576145ad615259565b6020908102919091018101516001600160a01b03168252810191909152604001600020805490925060ff1680156145e8575042826001015410155b156146fe5760006001600160a01b031685828151811061460a5761460a615259565b60200260200101516001600160a01b0316146146f9576146526103e861134988848151811061463b5761463b615259565b60200260200101518a61425b90919063ffffffff16565b93506146896064611349600b848154811061466f5761466f615259565b90600052602060002001548a61425b90919063ffffffff16565b92508382600201600082825461469f9190615209565b92505081905550838260040160008282546146ba9190615209565b92505081905550828260030160008282546146d59190615209565b9250508190555083601960008282546146ee9190615209565b909155506146fe9050565b614710565b8061470881615221565b91505061456d565b5050505050505050565b82805482825590600052602060002090601f0160209004810192821561476857600052602060002091601f016020900482015b8281111561476857825482559160010191906001019061474d565b5061477492915061491b565b5090565b82805482825590600052602060002090601f016020900481019282156147685791602002820160005b838211156147de57835183826101000a81548160ff02191690831515021790555092602001926001016020816000010492830192600103026147a1565b801561480b5782816101000a81549060ff02191690556001016020816000010492830192600103026147de565b505061477492915061491b565b828054828255906000526020600020908101928215614768579160200282015b82811115614768578251825591602001919060010190614838565b82805461485f9061526f565b90600052602060002090601f0160209004810192826148815760008555614768565b82601f1061489a57805160ff1916838001178555614768565b828001600101855582156147685791820182811115614768578251825591602001919060010190614838565b828054828255906000526020600020908101928215614768579160200282015b8281111561476857825182546001600160a01b0319166001600160a01b039091161782556020909201916001909101906148e6565b5b80821115614774576000815560010161491c565b6001600160a01b038116811461494557600080fd5b50565b6000806040838503121561495b57600080fd5b823561496681614930565b9150602083013561497681614930565b809150509250929050565b60006020828403121561499357600080fd5b5035919050565b600080604083850312156149ad57600080fd5b82356149b881614930565b946020939093013593505050565b6020808252825182820181905260009190848201906040850190845b81811015614a075783516001600160a01b0316835292840192918401916001016149e2565b50909695505050505050565b634e487b7160e01b600052604160045260246000fd5b60405161018081016001600160401b0381118282101715614a4c57614a4c614a13565b60405290565b604051601f8201601f191681016001600160401b0381118282101715614a7a57614a7a614a13565b604052919050565b60006001600160401b03821115614a9b57614a9b614a13565b5060051b60200190565b600082601f830112614ab657600080fd5b81356020614acb614ac683614a82565b614a52565b82815260059290921b84018101918181019086841115614aea57600080fd5b8286015b84811015614b0e578035614b0181614930565b8352918301918301614aee565b509695505050505050565b600060208284031215614b2b57600080fd5b81356001600160401b03811115614b4157600080fd5b6141c284828501614aa5565b60008060408385031215614b6057600080fd5b50508035926020909101359150565b600081518084526020808501945080840160005b83811015614b9f57815187529582019590820190600101614b83565b509495945050505050565b60208152600061428d6020830184614b6f565b600060208284031215614bcf57600080fd5b813561428d81614930565b801515811461494557600080fd5b803561171481614bda565b600082601f830112614c0457600080fd5b81356020614c14614ac683614a82565b82815260059290921b84018101918181019086841115614c3357600080fd5b8286015b84811015614b0e578035614c4a81614bda565b8352918301918301614c37565b600082601f830112614c6857600080fd5b81356020614c78614ac683614a82565b82815260059290921b84018101918181019086841115614c9757600080fd5b8286015b84811015614b0e5780358352918301918301614c9b565b600080600060608486031215614cc757600080fd5b83356001600160401b0380821115614cde57600080fd5b614cea87838801614bf3565b94506020860135915080821115614d0057600080fd5b614d0c87838801614c57565b93506040860135915080821115614d2257600080fd5b50614d2f86828701614c57565b9150509250925092565b600080600060608486031215614d4e57600080fd5b8335614d5981614930565b9250602084013591506040840135614d7081614bda565b809150509250925092565b600082601f830112614d8c57600080fd5b81356001600160401b03811115614da557614da5614a13565b614db8601f8201601f1916602001614a52565b818152846020838601011115614dcd57600080fd5b816020850160208301376000918101602001919091529392505050565b600060208284031215614dfc57600080fd5b81356001600160401b03811115614e1257600080fd5b6141c284828501614d7b565b60006101808e1515835260208e818501528d60408501528c60608501528b60808501528a60a08501528960c08501528860e085015287610100850152866101208501528161014085015285518083860152600092505b80831015614e93578683018201518584016101a0015291810191614e74565b80831115614ea65760006101a082870101525b610160850195909552505050601f91909101601f1916016101a0019b9a5050505050505050505050565b600060208284031215614ee257600080fd5b81356001600160401b03811115614ef857600080fd5b6141c284828501614c57565b60008060408385031215614f1757600080fd5b82356001600160401b0380821115614f2e57600080fd5b614f3a86838701614aa5565b93506020850135915080821115614f5057600080fd5b50614f5d85828601614c57565b9150509250929050565b600060208284031215614f7957600080fd5b81356001600160401b03811115614f8f57600080fd5b6141c284828501614bf3565b600081518084526020808501945080840160005b83811015614b9f578151151587529582019590820190600101614faf565b60208152600061428d6020830184614f9b565b60008060408385031215614ff357600080fd5b8235614ffe81614930565b9150602083013561497681614bda565b6000806040838503121561502157600080fd5b823561502c81614930565b915060208301356001600160401b0381111561504757600080fd5b614f5d85828601614d7b565b6080815260006150666080830187614b6f565b82810360208401526150788187614b6f565b9050828103604084015261508c8186614f9b565b91505082606083015295945050505050565b6000602082840312156150b057600080fd5b813561428d81614bda565b600080604083850312156150ce57600080fd5b82356150d981614930565b915060208301356001600160401b03808211156150f557600080fd5b90840190610180828703121561510a57600080fd5b615112614a29565b61511b83614be8565b81526020830135602082015260408301356040820152606083013560608201526080830135608082015260a083013560a082015260c083013560c082015260e083013560e0820152610100808401358183015250610120808401358183015250610140808401358381111561518f57600080fd5b61519b89828701614d7b565b828401525050610160915081830135828201528093505050509250929050565b6000602082840312156151cd57600080fd5b5051919050565b634e487b7160e01b600052601160045260246000fd5b6000816000190483118215151615615204576152046151d4565b500290565b6000821982111561521c5761521c6151d4565b500190565b6000600019821415615235576152356151d4565b5060010190565b60006020828403121561524e57600080fd5b815161428d81614bda565b634e487b7160e01b600052603260045260246000fd5b600181811c9082168061528357607f821691505b60208210811415613f2e57634e487b7160e01b600052602260045260246000fd5b6000828210156152b6576152b66151d4565b500390565b6000826152d857634e487b7160e01b600052601260045260246000fd5b50049056fea26469706673582212208d768829f9c944b8355acb0e7b216235e2de4638aeb975ece75170669aa370ec64736f6c634300080a0033",
    "sourcePath": "c:/Users/STC/Documents/GitHub/0-INFINITY-BLOCKS-TEST-UNILEVEL/contracts/infinitySystemV2/UnilevelSystemV2.1.sol",
    "compiler": {
        "name": "solc",
        "version": "0.8.10+commit.fc410830"
    },
    "functionHashes": {
        "ChangeTokenPrincipal(address)": "50da983f",
        "MIN_RETIRO()": "6c529279",
        "PRECIO_BLOCK()": "24de19f2",
        "actualizarArrayBool(bool[])": "7fcc1e36",
        "actualizarArrayUint256(uint256[])": "7367b080",
        "actualizarNetwork(address[])": "1ce7f99b",
        "addressToId(address)": "cb0e0d7d",
        "admin(address)": "63a846f8",
        "allnetwork(address[])": "7faee047",
        "asignarBloke(address,uint256,bool)": "67f74aab",
        "asignarBlokePago(address,uint256)": "fc5d8615",
        "asignarMembership(address,address)": "1053abb1",
        "baserange(uint256)": "cfda9ee6",
        "baserangelength()": "f5c9dbef",
        "blockesRango(uint256)": "b5df6d44",
        "blokes(address,uint256)": "fcec0fdf",
        "buyBlocks(uint256)": "c17dbdf9",
        "buyInfinityBlock(uint256)": "a5a7e04c",
        "column(address,uint256)": "15e8392b",
        "columnHijos(address)": "815374ca",
        "controlWitdrawl(bool)": "b17b6e44",
        "depositos(address,bool)": "a365528b",
        "descuento()": "7b0412ed",
        "dias()": "ab6db199",
        "duracionMembership()": "c40d5dbc",
        "gananciasRango(uint256)": "81032892",
        "hijo(address,uint256)": "339640b5",
        "idToAddress(uint256)": "2a2d0c47",
        "implementation()": "5c60da1b",
        "inMigracion(address,address)": "047ff6d2",
        "infinity(uint256)": "edf5eb1d",
        "infinityBlokes(address,uint256)": "41f1771c",
        "investors(address)": "6f7bc9be",
        "lastUserId()": "348d4487",
        "makeNewAdmin(address)": "69ed1e0a",
        "makeRemoveAdmin(address)": "70a0966b",
        "newRecompensa()": "69f4a84b",
        "oldBlokes(address,uint256)": "fd9a3fad",
        "onOffWitdrawl()": "e7348e8c",
        "owner()": "8da5cb5b",
        "padre(address)": "b35f0a8f",
        "personas()": "cc759ba2",
        "porcent()": "4728f718",
        "porcientos(uint256)": "28cca719",
        "precioRegistro()": "7db9e9c6",
        "primervez(uint256)": "725fc270",
        "puntosRango(uint256)": "21309f21",
        "rangoReclamado(address,uint256)": "2acc8210",
        "redimBNB()": "fd14d598",
        "redimTokenPrincipal02(uint256)": "1140e85b",
        "registro(address,string)": "8f9ef8c1",
        "setContratoMigracion(address)": "30d2949f",
        "setDescuento(uint256)": "b3d9fa09",
        "setImplementation(address)": "d784d426",
        "setMIN_RETIRO(uint256)": "4de1be62",
        "setPorcientos(uint256,uint256)": "1e403c35",
        "setPorcientosSalida(uint256,uint256)": "5d216c60",
        "setPrecioRegistro(uint256)": "aaa749c5",
        "setPriceBlock(uint256)": "2e8a03cf",
        "setPrimeravezPorcientos(uint256,uint256)": "54822522",
        "setRangos(bool[],uint256[],uint256[])": "43bf0bd4",
        "setRetorno(uint256)": "6589fa8a",
        "setTiempo(uint256)": "f90b3f5a",
        "setTiempoUnidades(uint256)": "2748d29b",
        "setWalletFee(address[],uint256[])": "7583f8fc",
        "setWalletstransfers(address[],uint256[])": "a8beb717",
        "setduracionMembership(uint256)": "4acb7240",
        "tiempo()": "50188c08",
        "tokenPricipal()": "b1390426",
        "totalInvested()": "5216aeec",
        "totalInvestors()": "29b8caff",
        "totalRange()": "ecdb171f",
        "totalRangeWitdrawl()": "eef117fd",
        "totalRefRewards()": "bfe0e020",
        "totalRefWitdrawl()": "9b8ff503",
        "totalRoiWitdrawl()": "70d7e3d5",
        "totalTeamWitdrawl()": "ff0b0cc5",
        "transferOwnership(address)": "f2fde38b",
        "unidades()": "4b9b8203",
        "updateData(string)": "68446ead",
        "updateDataAdmin(address,(bool,uint256,uint256,uint256,uint256,uint256,uint256,uint256,uint256,uint256,string,uint256))": "d01a5a13",
        "usdtRetirado(uint256)": "1f5d65fd",
        "valor(uint256)": "62550916",
        "valorFee(uint256)": "29e1a243",
        "version()": "54fd4d50",
        "wallet(uint256)": "a2781335",
        "walletFee(uint256)": "7251b9ac",
        "withdraw()": "3ccfd60b",
        "withdraw2()": "ea98847b",
        "withdrawTeam()": "bb51f32d",
        "withdrawable(address,bool)": "89b2521c",
        "withdrawableRange(address)": "98c07d0a"
    },
    "gasEstimates": {
        "creation": {
            "codeDepositCost": "4253400",
            "executionCost": "infinite",
            "totalCost": "infinite"
        },
        "external": {
            "": "infinite",
            "ChangeTokenPrincipal(address)": "51157",
            "MIN_RETIRO()": "2362",
            "PRECIO_BLOCK()": "2430",
            "actualizarArrayBool(bool[])": "infinite",
            "actualizarArrayUint256(uint256[])": "infinite",
            "actualizarNetwork(address[])": "infinite",
            "addressToId(address)": "2580",
            "admin(address)": "2582",
            "allnetwork(address[])": "infinite",
            "asignarBloke(address,uint256,bool)": "infinite",
            "asignarBlokePago(address,uint256)": "infinite",
            "asignarMembership(address,address)": "infinite",
            "baserange(uint256)": "6336",
            "baserangelength()": "2469",
            "blockesRango(uint256)": "2506",
            "blokes(address,uint256)": "9135",
            "buyBlocks(uint256)": "infinite",
            "buyInfinityBlock(uint256)": "infinite",
            "column(address,uint256)": "infinite",
            "columnHijos(address)": "infinite",
            "controlWitdrawl(bool)": "26895",
            "depositos(address,bool)": "infinite",
            "descuento()": "2408",
            "dias()": "2384",
            "duracionMembership()": "2451",
            "gananciasRango(uint256)": "4665",
            "hijo(address,uint256)": "4846",
            "idToAddress(uint256)": "2590",
            "implementation()": "2471",
            "inMigracion(address,address)": "infinite",
            "infinity(uint256)": "4686",
            "infinityBlokes(address,uint256)": "9159",
            "investors(address)": "infinite",
            "lastUserId()": "2385",
            "makeNewAdmin(address)": "28153",
            "makeRemoveAdmin(address)": "28051",
            "newRecompensa()": "infinite",
            "oldBlokes(address,uint256)": "9179",
            "onOffWitdrawl()": "2476",
            "owner()": "2493",
            "padre(address)": "2707",
            "personas()": "2384",
            "porcent()": "2473",
            "porcientos(uint256)": "4754",
            "precioRegistro()": "2430",
            "primervez(uint256)": "4752",
            "puntosRango(uint256)": "4688",
            "rangoReclamado(address,uint256)": "6527",
            "redimBNB()": "infinite",
            "redimTokenPrincipal02(uint256)": "infinite",
            "registro(address,string)": "infinite",
            "setContratoMigracion(address)": "26946",
            "setDescuento(uint256)": "24707",
            "setImplementation(address)": "24708",
            "setMIN_RETIRO(uint256)": "24651",
            "setPorcientos(uint256,uint256)": "infinite",
            "setPorcientosSalida(uint256,uint256)": "infinite",
            "setPrecioRegistro(uint256)": "24597",
            "setPriceBlock(uint256)": "24687",
            "setPrimeravezPorcientos(uint256,uint256)": "infinite",
            "setRangos(bool[],uint256[],uint256[])": "infinite",
            "setRetorno(uint256)": "24673",
            "setTiempo(uint256)": "24649",
            "setTiempoUnidades(uint256)": "24695",
            "setWalletFee(address[],uint256[])": "infinite",
            "setWalletstransfers(address[],uint256[])": "infinite",
            "setduracionMembership(uint256)": "24599",
            "tiempo()": "infinite",
            "tokenPricipal()": "2448",
            "totalInvested()": "2363",
            "totalInvestors()": "2364",
            "totalRange()": "infinite",
            "totalRangeWitdrawl()": "infinite",
            "totalRefRewards()": "2407",
            "totalRefWitdrawl()": "2385",
            "totalRoiWitdrawl()": "2428",
            "totalTeamWitdrawl()": "2471",
            "transferOwnership(address)": "30549",
            "unidades()": "2386",
            "updateData(string)": "infinite",
            "updateDataAdmin(address,(bool,uint256,uint256,uint256,uint256,uint256,uint256,uint256,uint256,uint256,string,uint256))": "infinite",
            "usdtRetirado(uint256)": "2529",
            "valor(uint256)": "4753",
            "valorFee(uint256)": "4666",
            "version()": "2407",
            "wallet(uint256)": "4726",
            "walletFee(uint256)": "4769",
            "withdraw()": "infinite",
            "withdraw2()": "infinite",
            "withdrawTeam()": "infinite",
            "withdrawable(address,bool)": "infinite",
            "withdrawableRange(address)": "infinite"
        },
        "internal": {
            "_asignarBloke(address,uint256,bool)": "infinite",
            "rewardReferers(address,uint256,uint256[] memory)": "infinite"
        }
    }
}