{
    "contractName": "InfinitySystemV2",
    "abi": [
        {
            "inputs": [],
            "stateMutability": "nonpayable",
            "type": "constructor"
        },
        {
            "anonymous": false,
            "inputs": [
                {
                    "indexed": true,
                    "internalType": "address",
                    "name": "admin",
                    "type": "address"
                }
            ],
            "name": "AdminRemoved",
            "type": "event"
        },
        {
            "anonymous": false,
            "inputs": [
                {
                    "indexed": true,
                    "internalType": "address",
                    "name": "admin",
                    "type": "address"
                }
            ],
            "name": "NewAdmin",
            "type": "event"
        },
        {
            "anonymous": false,
            "inputs": [
                {
                    "indexed": true,
                    "internalType": "address",
                    "name": "previousOwner",
                    "type": "address"
                },
                {
                    "indexed": true,
                    "internalType": "address",
                    "name": "newOwner",
                    "type": "address"
                }
            ],
            "name": "OwnershipTransferred",
            "type": "event"
        },
        {
            "stateMutability": "payable",
            "type": "fallback"
        },
        {
            "inputs": [
                {
                    "internalType": "address",
                    "name": "_tokenTRC20",
                    "type": "address"
                }
            ],
            "name": "ChangeTokenPrincipal",
            "outputs": [
                {
                    "internalType": "bool",
                    "name": "",
                    "type": "bool"
                }
            ],
            "stateMutability": "nonpayable",
            "type": "function"
        },
        {
            "inputs": [],
            "name": "MIN_RETIRO",
            "outputs": [
                {
                    "internalType": "uint256",
                    "name": "",
                    "type": "uint256"
                }
            ],
            "stateMutability": "view",
            "type": "function"
        },
        {
            "inputs": [],
            "name": "PRECIO_BLOCK",
            "outputs": [
                {
                    "internalType": "uint256",
                    "name": "",
                    "type": "uint256"
                }
            ],
            "stateMutability": "view",
            "type": "function"
        },
        {
            "inputs": [],
            "name": "PRECIO_BLOCK_infinity",
            "outputs": [
                {
                    "internalType": "uint256",
                    "name": "",
                    "type": "uint256"
                }
            ],
            "stateMutability": "view",
            "type": "function"
        },
        {
            "inputs": [
                {
                    "internalType": "bool[]",
                    "name": "old",
                    "type": "bool[]"
                }
            ],
            "name": "actualizarArrayBool",
            "outputs": [
                {
                    "internalType": "bool[]",
                    "name": "",
                    "type": "bool[]"
                }
            ],
            "stateMutability": "pure",
            "type": "function"
        },
        {
            "inputs": [
                {
                    "internalType": "uint256[]",
                    "name": "old",
                    "type": "uint256[]"
                }
            ],
            "name": "actualizarArrayUint256",
            "outputs": [
                {
                    "internalType": "uint256[]",
                    "name": "",
                    "type": "uint256[]"
                }
            ],
            "stateMutability": "pure",
            "type": "function"
        },
        {
            "inputs": [
                {
                    "internalType": "address[]",
                    "name": "oldNetwork",
                    "type": "address[]"
                }
            ],
            "name": "actualizarNetwork",
            "outputs": [
                {
                    "internalType": "address[]",
                    "name": "",
                    "type": "address[]"
                }
            ],
            "stateMutability": "pure",
            "type": "function"
        },
        {
            "inputs": [
                {
                    "internalType": "address",
                    "name": "",
                    "type": "address"
                }
            ],
            "name": "addressToId",
            "outputs": [
                {
                    "internalType": "uint256",
                    "name": "",
                    "type": "uint256"
                }
            ],
            "stateMutability": "view",
            "type": "function"
        },
        {
            "inputs": [
                {
                    "internalType": "address",
                    "name": "",
                    "type": "address"
                }
            ],
            "name": "admin",
            "outputs": [
                {
                    "internalType": "bool",
                    "name": "",
                    "type": "bool"
                }
            ],
            "stateMutability": "view",
            "type": "function"
        },
        {
            "inputs": [
                {
                    "internalType": "address[]",
                    "name": "network",
                    "type": "address[]"
                }
            ],
            "name": "allnetwork",
            "outputs": [
                {
                    "internalType": "address[]",
                    "name": "",
                    "type": "address[]"
                }
            ],
            "stateMutability": "view",
            "type": "function"
        },
        {
            "inputs": [
                {
                    "internalType": "address",
                    "name": "_user",
                    "type": "address"
                },
                {
                    "internalType": "uint256",
                    "name": "_value",
                    "type": "uint256"
                }
            ],
            "name": "asignarBlokePago",
            "outputs": [
                {
                    "internalType": "bool",
                    "name": "",
                    "type": "bool"
                }
            ],
            "stateMutability": "nonpayable",
            "type": "function"
        },
        {
            "inputs": [
                {
                    "internalType": "address",
                    "name": "_user",
                    "type": "address"
                },
                {
                    "internalType": "address",
                    "name": "_sponsor",
                    "type": "address"
                }
            ],
            "name": "asignarMembership",
            "outputs": [
                {
                    "internalType": "bool",
                    "name": "",
                    "type": "bool"
                }
            ],
            "stateMutability": "nonpayable",
            "type": "function"
        },
        {
            "inputs": [
                {
                    "internalType": "uint256",
                    "name": "",
                    "type": "uint256"
                }
            ],
            "name": "baserange",
            "outputs": [
                {
                    "internalType": "bool",
                    "name": "",
                    "type": "bool"
                }
            ],
            "stateMutability": "view",
            "type": "function"
        },
        {
            "inputs": [],
            "name": "baserangelength",
            "outputs": [
                {
                    "internalType": "uint256",
                    "name": "",
                    "type": "uint256"
                }
            ],
            "stateMutability": "view",
            "type": "function"
        },
        {
            "inputs": [
                {
                    "internalType": "uint256",
                    "name": "",
                    "type": "uint256"
                }
            ],
            "name": "blockesRango",
            "outputs": [
                {
                    "internalType": "uint256",
                    "name": "",
                    "type": "uint256"
                }
            ],
            "stateMutability": "view",
            "type": "function"
        },
        {
            "inputs": [
                {
                    "internalType": "address",
                    "name": "",
                    "type": "address"
                },
                {
                    "internalType": "uint256",
                    "name": "",
                    "type": "uint256"
                }
            ],
            "name": "blokes",
            "outputs": [
                {
                    "internalType": "uint256",
                    "name": "inicio",
                    "type": "uint256"
                },
                {
                    "internalType": "uint256",
                    "name": "value",
                    "type": "uint256"
                },
                {
                    "internalType": "uint256",
                    "name": "amount",
                    "type": "uint256"
                }
            ],
            "stateMutability": "view",
            "type": "function"
        },
        {
            "inputs": [
                {
                    "internalType": "uint256",
                    "name": "_value",
                    "type": "uint256"
                }
            ],
            "name": "buyBlocks",
            "outputs": [],
            "stateMutability": "nonpayable",
            "type": "function"
        },
        {
            "inputs": [
                {
                    "internalType": "uint256",
                    "name": "_value",
                    "type": "uint256"
                }
            ],
            "name": "buyInfinityBlock",
            "outputs": [],
            "stateMutability": "nonpayable",
            "type": "function"
        },
        {
            "inputs": [
                {
                    "internalType": "address",
                    "name": "yo",
                    "type": "address"
                },
                {
                    "internalType": "uint256",
                    "name": "_largo",
                    "type": "uint256"
                }
            ],
            "name": "column",
            "outputs": [
                {
                    "internalType": "address[]",
                    "name": "",
                    "type": "address[]"
                }
            ],
            "stateMutability": "view",
            "type": "function"
        },
        {
            "inputs": [
                {
                    "internalType": "address",
                    "name": "yo",
                    "type": "address"
                }
            ],
            "name": "columnHijos",
            "outputs": [
                {
                    "internalType": "address[]",
                    "name": "",
                    "type": "address[]"
                }
            ],
            "stateMutability": "view",
            "type": "function"
        },
        {
            "inputs": [
                {
                    "internalType": "bool",
                    "name": "_true_false",
                    "type": "bool"
                }
            ],
            "name": "controlWitdrawl",
            "outputs": [
                {
                    "internalType": "bool",
                    "name": "",
                    "type": "bool"
                }
            ],
            "stateMutability": "nonpayable",
            "type": "function"
        },
        {
            "inputs": [
                {
                    "internalType": "address",
                    "name": "_user",
                    "type": "address"
                },
                {
                    "internalType": "bool",
                    "name": "_infinity",
                    "type": "bool"
                }
            ],
            "name": "depositos",
            "outputs": [
                {
                    "internalType": "uint256[]",
                    "name": "",
                    "type": "uint256[]"
                },
                {
                    "internalType": "uint256[]",
                    "name": "",
                    "type": "uint256[]"
                },
                {
                    "internalType": "bool[]",
                    "name": "",
                    "type": "bool[]"
                },
                {
                    "internalType": "uint256",
                    "name": "",
                    "type": "uint256"
                }
            ],
            "stateMutability": "view",
            "type": "function"
        },
        {
            "inputs": [],
            "name": "descuento",
            "outputs": [
                {
                    "internalType": "uint256",
                    "name": "",
                    "type": "uint256"
                }
            ],
            "stateMutability": "view",
            "type": "function"
        },
        {
            "inputs": [],
            "name": "dias",
            "outputs": [
                {
                    "internalType": "uint256",
                    "name": "",
                    "type": "uint256"
                }
            ],
            "stateMutability": "view",
            "type": "function"
        },
        {
            "inputs": [],
            "name": "duracionMembership",
            "outputs": [
                {
                    "internalType": "uint256",
                    "name": "",
                    "type": "uint256"
                }
            ],
            "stateMutability": "view",
            "type": "function"
        },
        {
            "inputs": [
                {
                    "internalType": "uint256",
                    "name": "",
                    "type": "uint256"
                }
            ],
            "name": "gananciasRango",
            "outputs": [
                {
                    "internalType": "uint256",
                    "name": "",
                    "type": "uint256"
                }
            ],
            "stateMutability": "view",
            "type": "function"
        },
        {
            "inputs": [
                {
                    "internalType": "address",
                    "name": "",
                    "type": "address"
                },
                {
                    "internalType": "uint256",
                    "name": "",
                    "type": "uint256"
                }
            ],
            "name": "hijo",
            "outputs": [
                {
                    "internalType": "address",
                    "name": "",
                    "type": "address"
                }
            ],
            "stateMutability": "view",
            "type": "function"
        },
        {
            "inputs": [
                {
                    "internalType": "uint256",
                    "name": "",
                    "type": "uint256"
                }
            ],
            "name": "idToAddress",
            "outputs": [
                {
                    "internalType": "address",
                    "name": "",
                    "type": "address"
                }
            ],
            "stateMutability": "view",
            "type": "function"
        },
        {
            "inputs": [],
            "name": "implementation",
            "outputs": [
                {
                    "internalType": "address",
                    "name": "",
                    "type": "address"
                }
            ],
            "stateMutability": "view",
            "type": "function"
        },
        {
            "inputs": [
                {
                    "internalType": "address",
                    "name": "_user",
                    "type": "address"
                },
                {
                    "internalType": "address",
                    "name": "_sponsor",
                    "type": "address"
                }
            ],
            "name": "inMigracion",
            "outputs": [],
            "stateMutability": "nonpayable",
            "type": "function"
        },
        {
            "inputs": [
                {
                    "internalType": "uint256",
                    "name": "",
                    "type": "uint256"
                }
            ],
            "name": "infinity",
            "outputs": [
                {
                    "internalType": "uint256",
                    "name": "",
                    "type": "uint256"
                }
            ],
            "stateMutability": "view",
            "type": "function"
        },
        {
            "inputs": [
                {
                    "internalType": "address",
                    "name": "",
                    "type": "address"
                },
                {
                    "internalType": "uint256",
                    "name": "",
                    "type": "uint256"
                }
            ],
            "name": "infinityBlokes",
            "outputs": [
                {
                    "internalType": "uint256",
                    "name": "inicio",
                    "type": "uint256"
                },
                {
                    "internalType": "uint256",
                    "name": "value",
                    "type": "uint256"
                },
                {
                    "internalType": "uint256",
                    "name": "amount",
                    "type": "uint256"
                }
            ],
            "stateMutability": "view",
            "type": "function"
        },
        {
            "inputs": [
                {
                    "internalType": "address",
                    "name": "",
                    "type": "address"
                }
            ],
            "name": "investors",
            "outputs": [
                {
                    "internalType": "bool",
                    "name": "registered",
                    "type": "bool"
                },
                {
                    "internalType": "uint256",
                    "name": "membership",
                    "type": "uint256"
                },
                {
                    "internalType": "uint256",
                    "name": "balanceRef",
                    "type": "uint256"
                },
                {
                    "internalType": "uint256",
                    "name": "balanceInfinit",
                    "type": "uint256"
                },
                {
                    "internalType": "uint256",
                    "name": "totalRef",
                    "type": "uint256"
                },
                {
                    "internalType": "uint256",
                    "name": "invested",
                    "type": "uint256"
                },
                {
                    "internalType": "uint256",
                    "name": "paidAt",
                    "type": "uint256"
                },
                {
                    "internalType": "uint256",
                    "name": "paidAt2",
                    "type": "uint256"
                },
                {
                    "internalType": "uint256",
                    "name": "withdrawn",
                    "type": "uint256"
                },
                {
                    "internalType": "uint256",
                    "name": "directos",
                    "type": "uint256"
                },
                {
                    "internalType": "string",
                    "name": "data",
                    "type": "string"
                },
                {
                    "internalType": "uint256",
                    "name": "blokesDirectos",
                    "type": "uint256"
                }
            ],
            "stateMutability": "view",
            "type": "function"
        },
        {
            "inputs": [],
            "name": "lastUserId",
            "outputs": [
                {
                    "internalType": "uint256",
                    "name": "",
                    "type": "uint256"
                }
            ],
            "stateMutability": "view",
            "type": "function"
        },
        {
            "inputs": [
                {
                    "internalType": "address payable",
                    "name": "_newadmin",
                    "type": "address"
                }
            ],
            "name": "makeNewAdmin",
            "outputs": [],
            "stateMutability": "nonpayable",
            "type": "function"
        },
        {
            "inputs": [
                {
                    "internalType": "address payable",
                    "name": "_oldadmin",
                    "type": "address"
                }
            ],
            "name": "makeRemoveAdmin",
            "outputs": [],
            "stateMutability": "nonpayable",
            "type": "function"
        },
        {
            "inputs": [],
            "name": "newRecompensa",
            "outputs": [],
            "stateMutability": "nonpayable",
            "type": "function"
        },
        {
            "inputs": [
                {
                    "internalType": "address",
                    "name": "",
                    "type": "address"
                },
                {
                    "internalType": "uint256",
                    "name": "",
                    "type": "uint256"
                }
            ],
            "name": "oldBlokes",
            "outputs": [
                {
                    "internalType": "uint256",
                    "name": "inicio",
                    "type": "uint256"
                },
                {
                    "internalType": "uint256",
                    "name": "value",
                    "type": "uint256"
                },
                {
                    "internalType": "uint256",
                    "name": "amount",
                    "type": "uint256"
                }
            ],
            "stateMutability": "view",
            "type": "function"
        },
        {
            "inputs": [],
            "name": "onOffWitdrawl",
            "outputs": [
                {
                    "internalType": "bool",
                    "name": "",
                    "type": "bool"
                }
            ],
            "stateMutability": "view",
            "type": "function"
        },
        {
            "inputs": [],
            "name": "owner",
            "outputs": [
                {
                    "internalType": "address payable",
                    "name": "",
                    "type": "address"
                }
            ],
            "stateMutability": "view",
            "type": "function"
        },
        {
            "inputs": [
                {
                    "internalType": "address",
                    "name": "",
                    "type": "address"
                }
            ],
            "name": "padre",
            "outputs": [
                {
                    "internalType": "address",
                    "name": "",
                    "type": "address"
                }
            ],
            "stateMutability": "view",
            "type": "function"
        },
        {
            "inputs": [],
            "name": "personas",
            "outputs": [
                {
                    "internalType": "uint256",
                    "name": "",
                    "type": "uint256"
                }
            ],
            "stateMutability": "view",
            "type": "function"
        },
        {
            "inputs": [],
            "name": "porcent",
            "outputs": [
                {
                    "internalType": "uint256",
                    "name": "",
                    "type": "uint256"
                }
            ],
            "stateMutability": "view",
            "type": "function"
        },
        {
            "inputs": [
                {
                    "internalType": "uint256",
                    "name": "",
                    "type": "uint256"
                }
            ],
            "name": "porcientos",
            "outputs": [
                {
                    "internalType": "uint256",
                    "name": "",
                    "type": "uint256"
                }
            ],
            "stateMutability": "view",
            "type": "function"
        },
        {
            "inputs": [],
            "name": "precioRegistro",
            "outputs": [
                {
                    "internalType": "uint256",
                    "name": "",
                    "type": "uint256"
                }
            ],
            "stateMutability": "view",
            "type": "function"
        },
        {
            "inputs": [
                {
                    "internalType": "uint256",
                    "name": "",
                    "type": "uint256"
                }
            ],
            "name": "primervez",
            "outputs": [
                {
                    "internalType": "uint256",
                    "name": "",
                    "type": "uint256"
                }
            ],
            "stateMutability": "view",
            "type": "function"
        },
        {
            "inputs": [
                {
                    "internalType": "uint256",
                    "name": "",
                    "type": "uint256"
                }
            ],
            "name": "puntosRango",
            "outputs": [
                {
                    "internalType": "uint256",
                    "name": "",
                    "type": "uint256"
                }
            ],
            "stateMutability": "view",
            "type": "function"
        },
        {
            "inputs": [
                {
                    "internalType": "address",
                    "name": "",
                    "type": "address"
                },
                {
                    "internalType": "uint256",
                    "name": "",
                    "type": "uint256"
                }
            ],
            "name": "rangoReclamado",
            "outputs": [
                {
                    "internalType": "bool",
                    "name": "",
                    "type": "bool"
                }
            ],
            "stateMutability": "view",
            "type": "function"
        },
        {
            "inputs": [],
            "name": "redimBNB",
            "outputs": [
                {
                    "internalType": "uint256",
                    "name": "",
                    "type": "uint256"
                }
            ],
            "stateMutability": "nonpayable",
            "type": "function"
        },
        {
            "inputs": [
                {
                    "internalType": "uint256",
                    "name": "_value",
                    "type": "uint256"
                }
            ],
            "name": "redimTokenPrincipal02",
            "outputs": [
                {
                    "internalType": "uint256",
                    "name": "",
                    "type": "uint256"
                }
            ],
            "stateMutability": "nonpayable",
            "type": "function"
        },
        {
            "inputs": [
                {
                    "internalType": "address",
                    "name": "_sponsor",
                    "type": "address"
                },
                {
                    "internalType": "string",
                    "name": "_datos",
                    "type": "string"
                }
            ],
            "name": "registro",
            "outputs": [],
            "stateMutability": "nonpayable",
            "type": "function"
        },
        {
            "inputs": [
                {
                    "internalType": "address",
                    "name": "_contarct",
                    "type": "address"
                }
            ],
            "name": "setContratoMigracion",
            "outputs": [
                {
                    "internalType": "bool",
                    "name": "",
                    "type": "bool"
                }
            ],
            "stateMutability": "nonpayable",
            "type": "function"
        },
        {
            "inputs": [
                {
                    "internalType": "uint256",
                    "name": "_descuento",
                    "type": "uint256"
                }
            ],
            "name": "setDescuento",
            "outputs": [
                {
                    "internalType": "bool",
                    "name": "",
                    "type": "bool"
                }
            ],
            "stateMutability": "nonpayable",
            "type": "function"
        },
        {
            "inputs": [
                {
                    "internalType": "uint256",
                    "name": "_min",
                    "type": "uint256"
                }
            ],
            "name": "setMIN_RETIRO",
            "outputs": [
                {
                    "internalType": "uint256",
                    "name": "",
                    "type": "uint256"
                }
            ],
            "stateMutability": "nonpayable",
            "type": "function"
        },
        {
            "inputs": [
                {
                    "internalType": "uint256",
                    "name": "_nivel",
                    "type": "uint256"
                },
                {
                    "internalType": "uint256",
                    "name": "_value",
                    "type": "uint256"
                }
            ],
            "name": "setPorcientos",
            "outputs": [
                {
                    "internalType": "uint256[]",
                    "name": "",
                    "type": "uint256[]"
                }
            ],
            "stateMutability": "nonpayable",
            "type": "function"
        },
        {
            "inputs": [
                {
                    "internalType": "uint256",
                    "name": "_nivel",
                    "type": "uint256"
                },
                {
                    "internalType": "uint256",
                    "name": "_value",
                    "type": "uint256"
                }
            ],
            "name": "setPorcientosSalida",
            "outputs": [
                {
                    "internalType": "uint256[]",
                    "name": "",
                    "type": "uint256[]"
                }
            ],
            "stateMutability": "nonpayable",
            "type": "function"
        },
        {
            "inputs": [
                {
                    "internalType": "uint256",
                    "name": "_precio",
                    "type": "uint256"
                }
            ],
            "name": "setPrecioRegistro",
            "outputs": [
                {
                    "internalType": "bool",
                    "name": "",
                    "type": "bool"
                }
            ],
            "stateMutability": "nonpayable",
            "type": "function"
        },
        {
            "inputs": [
                {
                    "internalType": "uint256",
                    "name": "_value",
                    "type": "uint256"
                },
                {
                    "internalType": "bool",
                    "name": "_infinity",
                    "type": "bool"
                }
            ],
            "name": "setPriceBlock",
            "outputs": [
                {
                    "internalType": "bool",
                    "name": "",
                    "type": "bool"
                }
            ],
            "stateMutability": "nonpayable",
            "type": "function"
        },
        {
            "inputs": [
                {
                    "internalType": "uint256",
                    "name": "_nivel",
                    "type": "uint256"
                },
                {
                    "internalType": "uint256",
                    "name": "_value",
                    "type": "uint256"
                }
            ],
            "name": "setPrimeravezPorcientos",
            "outputs": [
                {
                    "internalType": "uint256[]",
                    "name": "",
                    "type": "uint256[]"
                }
            ],
            "stateMutability": "nonpayable",
            "type": "function"
        },
        {
            "inputs": [
                {
                    "internalType": "bool[]",
                    "name": "_baserange",
                    "type": "bool[]"
                },
                {
                    "internalType": "uint256[]",
                    "name": "_gananciasRango",
                    "type": "uint256[]"
                },
                {
                    "internalType": "uint256[]",
                    "name": "_puntosRango",
                    "type": "uint256[]"
                }
            ],
            "name": "setRangos",
            "outputs": [
                {
                    "internalType": "bool",
                    "name": "",
                    "type": "bool"
                }
            ],
            "stateMutability": "nonpayable",
            "type": "function"
        },
        {
            "inputs": [
                {
                    "internalType": "uint256",
                    "name": "_porcentaje",
                    "type": "uint256"
                }
            ],
            "name": "setRetorno",
            "outputs": [
                {
                    "internalType": "uint256",
                    "name": "",
                    "type": "uint256"
                }
            ],
            "stateMutability": "nonpayable",
            "type": "function"
        },
        {
            "inputs": [
                {
                    "internalType": "uint256",
                    "name": "_dias",
                    "type": "uint256"
                }
            ],
            "name": "setTiempo",
            "outputs": [
                {
                    "internalType": "uint256",
                    "name": "",
                    "type": "uint256"
                }
            ],
            "stateMutability": "nonpayable",
            "type": "function"
        },
        {
            "inputs": [
                {
                    "internalType": "uint256",
                    "name": "_unidades",
                    "type": "uint256"
                }
            ],
            "name": "setTiempoUnidades",
            "outputs": [
                {
                    "internalType": "uint256",
                    "name": "",
                    "type": "uint256"
                }
            ],
            "stateMutability": "nonpayable",
            "type": "function"
        },
        {
            "inputs": [
                {
                    "internalType": "address[]",
                    "name": "_wallet",
                    "type": "address[]"
                },
                {
                    "internalType": "uint256[]",
                    "name": "_fee",
                    "type": "uint256[]"
                }
            ],
            "name": "setWalletFee",
            "outputs": [
                {
                    "internalType": "bool",
                    "name": "",
                    "type": "bool"
                }
            ],
            "stateMutability": "nonpayable",
            "type": "function"
        },
        {
            "inputs": [
                {
                    "internalType": "address[]",
                    "name": "_wallets",
                    "type": "address[]"
                },
                {
                    "internalType": "uint256[]",
                    "name": "_valores",
                    "type": "uint256[]"
                }
            ],
            "name": "setWalletstransfers",
            "outputs": [
                {
                    "internalType": "bool",
                    "name": "",
                    "type": "bool"
                }
            ],
            "stateMutability": "nonpayable",
            "type": "function"
        },
        {
            "inputs": [
                {
                    "internalType": "uint256",
                    "name": "_duracionMembership",
                    "type": "uint256"
                }
            ],
            "name": "setduracionMembership",
            "outputs": [
                {
                    "internalType": "bool",
                    "name": "",
                    "type": "bool"
                }
            ],
            "stateMutability": "nonpayable",
            "type": "function"
        },
        {
            "inputs": [],
            "name": "tiempo",
            "outputs": [
                {
                    "internalType": "uint256",
                    "name": "",
                    "type": "uint256"
                }
            ],
            "stateMutability": "view",
            "type": "function"
        },
        {
            "inputs": [],
            "name": "tokenPricipal",
            "outputs": [
                {
                    "internalType": "address",
                    "name": "",
                    "type": "address"
                }
            ],
            "stateMutability": "view",
            "type": "function"
        },
        {
            "inputs": [],
            "name": "totalInvested",
            "outputs": [
                {
                    "internalType": "uint256",
                    "name": "",
                    "type": "uint256"
                }
            ],
            "stateMutability": "view",
            "type": "function"
        },
        {
            "inputs": [],
            "name": "totalInvestors",
            "outputs": [
                {
                    "internalType": "uint256",
                    "name": "",
                    "type": "uint256"
                }
            ],
            "stateMutability": "view",
            "type": "function"
        },
        {
            "inputs": [],
            "name": "totalRange",
            "outputs": [
                {
                    "internalType": "uint256",
                    "name": "",
                    "type": "uint256"
                }
            ],
            "stateMutability": "view",
            "type": "function"
        },
        {
            "inputs": [],
            "name": "totalRangeWitdrawl",
            "outputs": [
                {
                    "internalType": "uint256",
                    "name": "",
                    "type": "uint256"
                }
            ],
            "stateMutability": "view",
            "type": "function"
        },
        {
            "inputs": [],
            "name": "totalRefRewards",
            "outputs": [
                {
                    "internalType": "uint256",
                    "name": "",
                    "type": "uint256"
                }
            ],
            "stateMutability": "view",
            "type": "function"
        },
        {
            "inputs": [],
            "name": "totalRefWitdrawl",
            "outputs": [
                {
                    "internalType": "uint256",
                    "name": "",
                    "type": "uint256"
                }
            ],
            "stateMutability": "view",
            "type": "function"
        },
        {
            "inputs": [],
            "name": "totalRoiWitdrawl",
            "outputs": [
                {
                    "internalType": "uint256",
                    "name": "",
                    "type": "uint256"
                }
            ],
            "stateMutability": "view",
            "type": "function"
        },
        {
            "inputs": [],
            "name": "totalTeamWitdrawl",
            "outputs": [
                {
                    "internalType": "uint256",
                    "name": "",
                    "type": "uint256"
                }
            ],
            "stateMutability": "view",
            "type": "function"
        },
        {
            "inputs": [
                {
                    "internalType": "address payable",
                    "name": "newOwner",
                    "type": "address"
                }
            ],
            "name": "transferOwnership",
            "outputs": [],
            "stateMutability": "nonpayable",
            "type": "function"
        },
        {
            "inputs": [],
            "name": "unidades",
            "outputs": [
                {
                    "internalType": "uint256",
                    "name": "",
                    "type": "uint256"
                }
            ],
            "stateMutability": "view",
            "type": "function"
        },
        {
            "inputs": [
                {
                    "internalType": "address",
                    "name": "_user",
                    "type": "address"
                },
                {
                    "internalType": "uint256",
                    "name": "_value",
                    "type": "uint256"
                },
                {
                    "internalType": "bool",
                    "name": "_add",
                    "type": "bool"
                }
            ],
            "name": "updateBloke",
            "outputs": [],
            "stateMutability": "nonpayable",
            "type": "function"
        },
        {
            "inputs": [
                {
                    "internalType": "address",
                    "name": "_user",
                    "type": "address"
                },
                {
                    "internalType": "uint256",
                    "name": "_value",
                    "type": "uint256"
                },
                {
                    "internalType": "bool",
                    "name": "_add",
                    "type": "bool"
                }
            ],
            "name": "updateBlokeRange",
            "outputs": [],
            "stateMutability": "nonpayable",
            "type": "function"
        },
        {
            "inputs": [
                {
                    "internalType": "address",
                    "name": "_imp",
                    "type": "address"
                }
            ],
            "name": "upgradeImplementation",
            "outputs": [],
            "stateMutability": "nonpayable",
            "type": "function"
        },
        {
            "inputs": [],
            "name": "upgraded",
            "outputs": [
                {
                    "internalType": "uint256",
                    "name": "",
                    "type": "uint256"
                }
            ],
            "stateMutability": "view",
            "type": "function"
        },
        {
            "inputs": [
                {
                    "internalType": "uint256",
                    "name": "",
                    "type": "uint256"
                }
            ],
            "name": "usdtRetirado",
            "outputs": [
                {
                    "internalType": "uint256",
                    "name": "",
                    "type": "uint256"
                }
            ],
            "stateMutability": "view",
            "type": "function"
        },
        {
            "inputs": [
                {
                    "internalType": "uint256",
                    "name": "",
                    "type": "uint256"
                }
            ],
            "name": "valor",
            "outputs": [
                {
                    "internalType": "uint256",
                    "name": "",
                    "type": "uint256"
                }
            ],
            "stateMutability": "view",
            "type": "function"
        },
        {
            "inputs": [
                {
                    "internalType": "uint256",
                    "name": "",
                    "type": "uint256"
                }
            ],
            "name": "valorFee",
            "outputs": [
                {
                    "internalType": "uint256",
                    "name": "",
                    "type": "uint256"
                }
            ],
            "stateMutability": "view",
            "type": "function"
        },
        {
            "inputs": [],
            "name": "version",
            "outputs": [
                {
                    "internalType": "uint256",
                    "name": "",
                    "type": "uint256"
                }
            ],
            "stateMutability": "view",
            "type": "function"
        },
        {
            "inputs": [
                {
                    "internalType": "uint256",
                    "name": "",
                    "type": "uint256"
                }
            ],
            "name": "wallet",
            "outputs": [
                {
                    "internalType": "address",
                    "name": "",
                    "type": "address"
                }
            ],
            "stateMutability": "view",
            "type": "function"
        },
        {
            "inputs": [
                {
                    "internalType": "uint256",
                    "name": "",
                    "type": "uint256"
                }
            ],
            "name": "walletFee",
            "outputs": [
                {
                    "internalType": "address",
                    "name": "",
                    "type": "address"
                }
            ],
            "stateMutability": "view",
            "type": "function"
        },
        {
            "inputs": [],
            "name": "withdraw",
            "outputs": [],
            "stateMutability": "nonpayable",
            "type": "function"
        },
        {
            "inputs": [],
            "name": "withdraw2",
            "outputs": [],
            "stateMutability": "nonpayable",
            "type": "function"
        },
        {
            "inputs": [],
            "name": "withdrawTeam",
            "outputs": [],
            "stateMutability": "nonpayable",
            "type": "function"
        },
        {
            "inputs": [
                {
                    "internalType": "address",
                    "name": "any_user",
                    "type": "address"
                },
                {
                    "internalType": "bool",
                    "name": "_infinity",
                    "type": "bool"
                }
            ],
            "name": "withdrawable",
            "outputs": [
                {
                    "internalType": "uint256",
                    "name": "",
                    "type": "uint256"
                }
            ],
            "stateMutability": "view",
            "type": "function"
        },
        {
            "inputs": [
                {
                    "internalType": "address",
                    "name": "any_user",
                    "type": "address"
                }
            ],
            "name": "withdrawableRange",
            "outputs": [
                {
                    "internalType": "uint256",
                    "name": "amount",
                    "type": "uint256"
                }
            ],
            "stateMutability": "view",
            "type": "function"
        },
        {
            "stateMutability": "payable",
            "type": "receive"
        }
    ],
    "bytecode": "600480546001600160a01b03199081167355d398326f99059ff775485246999027b31979559081179092556005805482167347da06e10cf59f00cce3aeb66f9779b5e1da2b7f1781556006805490921690921790556002600755674563918244f400006008556802b5e3af16b18800006009556801a055690d9db80000600a90815561012060405260326080908152601e60a052601460c05260e082905261010091909152620000b391600b919062000581565b506040805160a081018252600f8152600960208201526006918101919091526003606082018190526080820152620000f090600c90600562000581565b506040805160a08101825260058082526003602083015260029282019290925260016060820181905260808201526200012d91600d919062000581565b506040805161016081018252600080825260208201819052918101829052606081018290526080810182905260a0810182905260c0810182905260e08101829052610100810182905261012081018290526101408101919091526200019790600e90600b620005d6565b506040805161016081018252680410d586a20a4c00008152680821ab0d441498000060208201526814542ba12a337c0000918101919091526828a857425466f800006060820152685150ae84a8cdf00000608082015268cb49b44ba602d8000060a08201526901969368974c05b0000060c082015269032d26d12e980b60000060e0820152690a968163f0a57b400000610100820152691fc3842bd1f071c000006101208201526934f086f3b33b684000006101408201526200025f90600f90600b6200067d565b50604080516101608101825269010f0cf064dd59200000815269021e19e0c9bab2400000602082015269054b40b1f852bda0000091810191909152690a968163f0a57b400000606082015269152d02c7e14af680000060808201526934f086f3b33b6840000060a08201526969e10de76676d080000060c082015269d3c21bcecceda100000060e08201526a0422ca8b0a00a4250000006101008201526a0c685fa11e01ec6f0000006101208201526a14adf4b7320334b90000006101408201526200033090601090600b620006c6565b506011805460ff1916600190811790915561016d6012556103846013556201518060145560f0601555606460165560026017819055601882905560299190915560408051808201909152734490566647735e8cbce0ce96efc8fb91c164859b815273d0f2fcdf7d399205e9709c6d0fbee434335e42dd6020820152620003ba91602a91906200070f565b506040805180820190915260058152605f6020820152620003e090602b90600262000581565b506801a055690d9db80000602c55604080516060810182527317a7e5b2d9b5d191f7307e990e630c9dc18e1396815273afe9d039ec7d4409b1b8c2f1556f20843079b7286020820152738dd59f5670e9809c8a800a49d1ff1cea471c53da918101919091526200045590602d9060036200070f565b506040805160608101825260468152600860208201526005918101919091526200048490602e90600362000581565b503480156200049257600080fd5b50600080546001600160a01b0319163390811782558152600160208181526040808420805460ff19908116851790915584546001600160a01b03168552601e9092529092208054909216178155601454601254620004f19190620007e5565b6200050590670de0b6b3a7640000620007e5565b62000511904262000807565b6001820155336000908152602660205260409020600e80546200053692919062000767565b50507fb7634ec2165a7280a285aac3ec10cf370eca86d8aa9d3243c90b2151434091ad80546001600160a01b0319163390811790915560009081526025602052604081205562000822565b828054828255906000526020600020908101928215620005c4579160200282015b82811115620005c4578251829060ff16905591602001919060010190620005a2565b50620005d2929150620007b8565b5090565b82805482825590600052602060002090601f01602090048101928215620005c45791602002820160005b838211156200063f57835183826101000a81548160ff021916908315150217905550926020019260010160208160000104928301926001030262000600565b80156200066e5782816101000a81549060ff02191690556001016020816000010492830192600103026200063f565b5050620005d2929150620007b8565b828054828255906000526020600020908101928215620005c4579160200282015b82811115620005c457825182906001600160501b03169055916020019190600101906200069e565b828054828255906000526020600020908101928215620005c4579160200282015b82811115620005c457825182906001600160581b0316905591602001919060010190620006e7565b828054828255906000526020600020908101928215620005c4579160200282015b82811115620005c457825182546001600160a01b0319166001600160a01b0390911617825560209092019160019091019062000730565b82805482825590600052602060002090601f01602090048101928215620005c457600052602060002091601f016020900482015b82811115620005c45782548255916001019190600101906200079b565b5b80821115620005d25760008155600101620007b9565b634e487b7160e01b600052601160045260246000fd5b6000816000190483118215151615620008025762000802620007cf565b500290565b600082198211156200081d576200081d620007cf565b500190565b6153a380620008326000396000f3fe6080604052600436106105065760003560e01c8063725fc27011610297578063b35f0a8f11610165578063ea98847b116100cc578063f90b3f5a11610085578063f90b3f5a1461100d578063fc5d86151461102d578063fcec0fdf1461104d578063fd14d5981461106d578063fd9a3fad14611082578063ff0b0cc5146110a257610522565b8063ea98847b14610f79578063ecdb171f14610f8e578063edf5eb1d14610fa3578063eef117fd14610fc3578063f2fde38b14610fd8578063f5c9dbef14610ff857610522565b8063c28de2cd1161011e578063c28de2cd14610ed0578063c40d5dbc14610ee6578063cb0e0d7d14610efc578063cc759ba214610f29578063cfda9ee614610f3f578063e7348e8c14610f5f57610522565b8063b35f0a8f14610e02578063b3d9fa0914610e38578063b5df6d4414610e58578063bb51f32d14610e85578063bfe0e02014610e9a578063c17dbdf914610eb057610522565b80638da5cb5b11610209578063a5a7e04c116101c2578063a5a7e04c14610d4c578063a8beb71714610d6c578063aaa749c514610d8c578063ab6db19914610dac578063b139042614610dc2578063b17b6e4414610de257610522565b80638da5cb5b14610c865780638f9ef8c114610ca657806398c07d0a14610cc65780639b8ff50314610ce6578063a278133514610cfc578063a365528b14610d1c57610522565b80637faee0471161025b5780637faee04714610bb95780637fcc1e3614610bd95780638103289214610c06578063815374ca14610c2657806383f94db714610c4657806389b2521c14610c6657610522565b8063725fc27014610b2d5780637367b08014610b4d5780637583f8fc14610b6d5780637b0412ed14610b8d5780637db9e9c614610ba357610522565b80634728f718116103d4578063625509161161034657806369f4a84b116102ff57806369f4a84b14610a745780636c52927914610a895780636f7bc9be14610a9f57806370a0966b14610ad757806370d7e3d514610af75780637251b9ac14610b0d57610522565b806362550916146109ae578063627b31b0146109ce57806363a846f8146109e457806365535cb014610a145780636589fa8a14610a3457806369ed1e0a14610a5457610522565b806350da983f1161039857806350da983f146109025780635216aeec14610922578063548225221461093857806354fd4d50146109585780635c60da1b1461096e5780635d216c601461098e57610522565b80634728f718146108815780634acb7240146108975780634b9b8203146108b75780634de1be62146108cd57806350188c08146108ed57610522565b806328cca71911610478578063317cc77211610431578063317cc772146107bb578063339640b5146107db578063348d4487146107fb5780633ccfd60b1461081157806341f1771c1461082657806343bf0bd41461086157610522565b806328cca719146106d757806329b8caff146106f757806329e1a2431461070d5780632a2d0c471461072d5780632acc82101461077b57806330d2949f1461079b57610522565b80631e403c35116104ca5780631e403c35146106075780631f5d65fd1461063457806321309f211461066157806323e5a5a11461068157806324de19f2146106a15780632748d29b146106b757610522565b8063047ff6d2146105375780631053abb1146105575780631140e85b1461058c57806315e8392b146105ba5780631ce7f99b146105e757610522565b3661052257600254610520906001600160a01b03166110b8565b005b600254610520906001600160a01b03166110b8565b34801561054357600080fd5b50610520610552366004614b20565b6110e1565b34801561056357600080fd5b50610577610572366004614b20565b611542565b60405190151581526020015b60405180910390f35b34801561059857600080fd5b506105ac6105a7366004614b59565b61170b565b604051908152602001610583565b3480156105c657600080fd5b506105da6105d5366004614b72565b61181a565b6040516105839190614b9e565b3480156105f357600080fd5b506105da610602366004614cca565b6118af565b34801561061357600080fd5b50610627610622366004614cff565b61196e565b6040516105839190614d5c565b34801561064057600080fd5b506105ac61064f366004614b59565b60286020526000908152604090205481565b34801561066d57600080fd5b506105ac61067c366004614b59565b611a03565b34801561068d57600080fd5b5061057761069c366004614d7d565b611a24565b3480156106ad57600080fd5b506105ac60095481565b3480156106c357600080fd5b506105ac6106d2366004614b59565b611a5b565b3480156106e357600080fd5b506105ac6106f2366004614b59565b611a7c565b34801561070357600080fd5b506105ac60185481565b34801561071957600080fd5b506105ac610728366004614b59565b611a8c565b34801561073957600080fd5b50610763610748366004614b59565b6024602052600090815260409020546001600160a01b031681565b6040516001600160a01b039091168152602001610583565b34801561078757600080fd5b50610577610796366004614b72565b611a9c565b3480156107a757600080fd5b506105776107b6366004614da2565b611adf565b3480156107c757600080fd5b506105206107d6366004614dbf565b611b1c565b3480156107e757600080fd5b506107636107f6366004614b72565b611c91565b34801561080757600080fd5b506105ac60295481565b34801561081d57600080fd5b50610520611cc9565b34801561083257600080fd5b50610846610841366004614b72565b611e56565b60408051938452602084019290925290820152606001610583565b34801561086d57600080fd5b5061057761087c366004614ec0565b611e97565b34801561088d57600080fd5b506105ac60155481565b3480156108a357600080fd5b506105776108b2366004614b59565b611f14565b3480156108c357600080fd5b506105ac60145481565b3480156108d957600080fd5b506105ac6108e8366004614b59565b611f35565b3480156108f957600080fd5b506105ac611f56565b34801561090e57600080fd5b5061057761091d366004614da2565b611f74565b34801561092e57600080fd5b506105ac60195481565b34801561094457600080fd5b50610627610953366004614cff565b611fbf565b34801561096457600080fd5b506105ac60075481565b34801561097a57600080fd5b50600254610763906001600160a01b031681565b34801561099a57600080fd5b506106276109a9366004614cff565b612052565b3480156109ba57600080fd5b506105ac6109c9366004614b59565b6120e5565b3480156109da57600080fd5b506105ac600a5481565b3480156109f057600080fd5b506105776109ff366004614da2565b60016020526000908152604090205460ff1681565b348015610a2057600080fd5b50610520610a2f366004614dbf565b6120f5565b348015610a4057600080fd5b506105ac610a4f366004614b59565b612191565b348015610a6057600080fd5b50610520610a6f366004614da2565b6121b6565b348015610a8057600080fd5b50610520612240565b348015610a9557600080fd5b506105ac60085481565b348015610aab57600080fd5b50610abf610aba366004614da2565b61255a565b6040516105839c9b9a99989796959493929190614f48565b348015610ae357600080fd5b50610520610af2366004614da2565b612647565b348015610b0357600080fd5b506105ac601b5481565b348015610b1957600080fd5b50610763610b28366004614b59565b6126c6565b348015610b3957600080fd5b506105ac610b48366004614b59565b6126f0565b348015610b5957600080fd5b50610627610b68366004614ffa565b612700565b348015610b7957600080fd5b50610577610b8836600461502f565b6127ab565b348015610b9957600080fd5b506105ac60165481565b348015610baf57600080fd5b506105ac602c5481565b348015610bc557600080fd5b506105da610bd4366004614cca565b6127f4565b348015610be557600080fd5b50610bf9610bf4366004615093565b612911565b60405161058391906150fa565b348015610c1257600080fd5b506105ac610c21366004614b59565b6129c1565b348015610c3257600080fd5b506105da610c41366004614da2565b6129d1565b348015610c5257600080fd5b50610520610c61366004614da2565b612a88565b348015610c7257600080fd5b506105ac610c8136600461510d565b612ad2565b348015610c9257600080fd5b50600054610763906001600160a01b031681565b348015610cb257600080fd5b50610520610cc136600461513b565b612af3565b348015610cd257600080fd5b506105ac610ce1366004614da2565b612ea3565b348015610cf257600080fd5b506105ac601c5481565b348015610d0857600080fd5b50610763610d17366004614b59565b613093565b348015610d2857600080fd5b50610d3c610d3736600461510d565b6130a3565b60405161058394939291906151e3565b348015610d5857600080fd5b50610520610d67366004614b59565b6135b0565b348015610d7857600080fd5b50610577610d8736600461502f565b6137c1565b348015610d9857600080fd5b50610577610da7366004614b59565b613800565b348015610db857600080fd5b506105ac60135481565b348015610dce57600080fd5b50600454610763906001600160a01b031681565b348015610dee57600080fd5b50610577610dfd36600461522e565b613821565b348015610e0e57600080fd5b50610763610e1d366004614da2565b6022602052600090815260409020546001600160a01b031681565b348015610e4457600080fd5b50610577610e53366004614b59565b61384f565b348015610e6457600080fd5b506105ac610e73366004614b59565b60276020526000908152604090205481565b348015610e9157600080fd5b50610520613870565b348015610ea657600080fd5b506105ac601a5481565b348015610ebc57600080fd5b50610520610ecb366004614b59565b6139c5565b348015610edc57600080fd5b506105ac60035481565b348015610ef257600080fd5b506105ac60125481565b348015610f0857600080fd5b506105ac610f17366004614da2565b60256020526000908152604090205481565b348015610f3557600080fd5b506105ac60175481565b348015610f4b57600080fd5b50610577610f5a366004614b59565b613dfe565b348015610f6b57600080fd5b506011546105779060ff1681565b348015610f8557600080fd5b50610520613e32565b348015610f9a57600080fd5b506105ac613fb7565b348015610faf57600080fd5b506105ac610fbe366004614b59565b614062565b348015610fcf57600080fd5b506105ac614072565b348015610fe457600080fd5b50610520610ff3366004614da2565b6140af565b34801561100457600080fd5b50600e546105ac565b34801561101957600080fd5b506105ac611028366004614b59565b6141c0565b34801561103957600080fd5b50610577611048366004614b72565b6141e5565b34801561105957600080fd5b50610846611068366004614b72565b61436a565b34801561107957600080fd5b506105ac614386565b34801561108e57600080fd5b5061084661109d366004614b72565b6143df565b3480156110ae57600080fd5b506105ac601d5481565b3660008037600080366000845af43d6000803e8080156110d7573d6000f35b3d6000fd5b505050565b336000908152601e6020526040808220600554915163226c948760e21b81526001600160a01b0386811660048301526024820185905291939291909116906389b2521c90604401602060405180830381865afa158015611145573d6000803e3d6000fd5b505050506040513d601f19601f82011682018060405250810190611169919061524b565b1180156111785750805460ff16155b1561153d57805460ff19166001178155601454601254611198919061527a565b6111a29042615299565b600182015533600090815260226020908152604080832080546001600160a01b0319166001600160a01b0387169081179091558352601e90915281206009018054916111ed836152b1565b90915550506001600160a01b0382166000908152602360209081526040822080546001810182559083529082200180546001600160a01b031916331790556018805491611239836152b1565b9091555050336000908152602660205260409020600e805461125c9291906148f2565b5060298054600090815260246020908152604080832080546001600160a01b03191633908117909155845490845260259092528220819055919061129f836152b1565b90915550504260068201819055600782015560055460405163226c948760e21b81526001600160a01b038581166004830152600060248301819052926113439260f09261133d926064929116906389b2521c906044015b602060405180830381865afa158015611313573d6000803e3d6000fd5b505050506040513d601f19601f82011682018060405250810190611337919061524b565b906143fb565b9061442d565b600583018190556001600160a01b038581166000908152602260205260409020549192501615611410576001600160a01b038085166000908152602260209081526040808320549093168252601e9052908120600b0180548392906113a9908490615299565b90915550506001600160a01b038085166000908152602260209081526040808320549093168252602581528282205482526027905290812080548392906113f1908490615299565b92505081905550806019600082825461140a9190615299565b90915550505b60055460405163226c948760e21b81526001600160a01b0380871660048301526000602483015261146492879261145d9260f09261133d92606492909116906389b2521c906044016112f6565b600061444f565b5060055460405163226c948760e21b81526001600160a01b0386811660048301526001602483015260009216906389b2521c90604401602060405180830381865afa1580156114b7573d6000803e3d6000fd5b505050506040513d601f19601f820116820180604052508101906114db919061524b565b11156115375760055460405163226c948760e21b81526001600160a01b0380871660048301526001602483015261153592879261152e9260f09261133d92606492909116906389b2521c906044016112f6565b600161444f565b505b50505050565b600080fd5b3360009081526001602052604081205460ff1661155e57600080fd5b6001600160a01b03821661157157600080fd5b6001600160a01b0383166000908152601e60205260409020805460ff166116da57805460ff191660011781556014546012546115ad919061527a565b6115b79042615299565b60018201556001600160a01b03848116600090815260226020908152604080832080546001600160a01b0319169488169485179055928252601e9052908120600901805491611605836152b1565b90915550506001600160a01b038381166000908152602360209081526040822080546001810182559083529082200180546001600160a01b031916928716929092179091556018805491611658836152b1565b90915550506001600160a01b0384166000908152602660205260409020600e80546116849291906148f2565b5060298054600090815260246020908152604080832080546001600160a01b0319166001600160a01b038a1690811790915584549084526025909252822081905591906116d0836152b1565b91905055506116ff565b6014546012546116ea919061527a565b81600101546116f99190615299565b60018201555b60019150505b92915050565b600080546001600160a01b0316331461172357600080fd5b6006546040516370a0823160e01b815230600482015283916001600160a01b0316906370a0823190602401602060405180830381865afa15801561176b573d6000803e3d6000fd5b505050506040513d601f19601f8201168201806040525081019061178f919061524b565b101561179a57600080fd5b60065460005460405163a9059cbb60e01b81526001600160a01b0391821660048201526024810185905291169063a9059cbb906044016020604051808303816000875af11580156117ef573d6000803e3d6000fd5b505050506040513d601f19601f8201168201806040525081019061181391906152cc565b5090919050565b60608060005b838110156118a757611831826118af565b6001600160a01b0380871660009081526022602052604090205482519294501690839083908110611864576118646152e9565b6001600160a01b0392831660209182029290920181019190915295811660009081526022909652604090952054909416938061189f816152b1565b915050611820565b509392505050565b60606000825160016118c19190615299565b67ffffffffffffffff8111156118d9576118d9614beb565b604051908082528060200260200182016040528015611902578160200160208202803683370190505b50905060005b835181101561196757838181518110611923576119236152e9565b602002602001015182828151811061193d5761193d6152e9565b6001600160a01b03909216602092830291909101909101528061195f816152b1565b915050611908565b5092915050565b6000546060906001600160a01b0316331461198857600080fd5b81600c848154811061199c5761199c6152e9565b9060005260206000200181905550600c8054806020026020016040519081016040528092919081815260200182805480156119f657602002820191906000526020600020905b8154815260200190600101908083116119e2575b5050505050905092915050565b60108181548110611a1357600080fd5b600091825260209091200154905081565b600080546001600160a01b03163314611a3c57600080fd5b8115611a4c57600a839055611a52565b60098390555b50600192915050565b600080546001600160a01b03163314611a7357600080fd5b50601481905590565b600c8181548110611a1357600080fd5b602b8181548110611a1357600080fd5b60266020528160005260406000208181548110611ab857600080fd5b9060005260206000209060209182820401919006915091509054906101000a900460ff1681565b600080546001600160a01b03163314611af757600080fd5b50600580546001600160a01b0383166001600160a01b03199091161790556001919050565b3360009081526001602052604090205460ff16611b3857600080fd5b60008211611b4557600080fd5b8015611c4a576001600160a01b0383166000908152601e6020526040902060050154611b7190836146f9565b6001600160a01b038085166000908152601e602090815260408083206005019490945560229052919091205416156110dc576001600160a01b038084166000908152602260209081526040808320549093168252601e9052908120600b018054849290611bdf908490615299565b90915550506001600160a01b03808416600090815260226020908152604080832054909316825260258152828220548252602790529081208054849290611c27908490615299565b925050819055508160196000828254611c409190615299565b9091555050505050565b6001600160a01b0383166000908152601e6020526040902060050154611c709083614715565b6001600160a01b0384166000908152601e6020526040902060050155505050565b60236020528160005260406000208181548110611cad57600080fd5b6000918252602090912001546001600160a01b03169150829050565b60115460ff16611cd857600080fd5b336000818152601e6020526040812091611cf29082612ad2565b6006546040516370a0823160e01b815230600482015291925082916001600160a01b03909116906370a0823190602401602060405180830381865afa158015611d3f573d6000803e3d6000fd5b505050506040513d601f19601f82011682018060405250810190611d63919061524b565b1015611d6e57600080fd5b600854811015611d7d57600080fd5b6006546016546001600160a01b039091169063a9059cbb903390611da99060649061133d9087906143fb565b6040516001600160e01b031960e085901b1681526001600160a01b03909216600483015260248201526044016020604051808303816000875af1158015611df4573d6000803e3d6000fd5b505050506040513d601f19601f82011682018060405250810190611e1891906152cc565b5080826008016000828254611e2d9190615299565b9091555050426006830155601b8054829190600090611e4d908490615299565b90915550505050565b602080528160005260406000208181548110611e7157600080fd5b600091825260209091206003909102018054600182015460029092015490935090915083565b600080546001600160a01b03163314611eaf57600080fd5b8351611ec290600e906020870190614950565b508251611ed690600f9060208601906149f0565b508151611eea9060109060208501906149f0565b50336000908152602660205260409020600e8054611f099291906148f2565b506001949350505050565b600080546001600160a01b03163314611f2c57600080fd5b50601255600190565b600080546001600160a01b03163314611f4d57600080fd5b50600881905590565b6000611f6f6014546013546143fb90919063ffffffff16565b905090565b600080546001600160a01b03163314611f8c57600080fd5b50600680546001600160a01b0383166001600160a01b031991821681179092556004805490911690911790556001919050565b6000546060906001600160a01b03163314611fd957600080fd5b81600b8481548110611fed57611fed6152e9565b9060005260206000200181905550600b8054806020026020016040519081016040528092919081815260200182805480156119f657602002820191906000526020600020908154815260200190600101908083116119e2575050505050905092915050565b6000546060906001600160a01b0316331461206c57600080fd5b81600d8481548110612080576120806152e9565b9060005260206000200181905550600d8054806020026020016040519081016040528092919081815260200182805480156119f657602002820191906000526020600020908154815260200190600101908083116119e2575050505050905092915050565b602e8181548110611a1357600080fd5b3360009081526001602052604090205460ff1661211157600080fd5b6000821161211e57600080fd5b801561216b576001600160a01b0383166000908152601e60205260409020600b015461214a90836146f9565b6001600160a01b0384166000908152601e60205260409020600b0155505050565b6001600160a01b0383166000908152601e60205260409020600b015461214a9083614715565b3360009081526001602052604081205460ff166121ad57600080fd5b50601581905590565b3360009081526001602052604090205460ff166121d257600080fd5b6001600160a01b0381166121e557600080fd5b6040516001600160a01b038216907f71614071b88dee5e0b2ae578a9dd7b2ebbe9ae832ba419dc0242cd065a290b6c90600090a26001600160a01b03166000908152600160208190526040909120805460ff19169091179055565b600061224b33612ea3565b90506000811161225a57600080fd5b336000908152601e60209081526040808320815161018081018352815460ff16151581526001820154938101939093526002810154918301919091526003810154606083015260048101546080830152600581015460a0830152600681015460c0830152600781015460e083015260088101546101008301526009810154610120830152600a81018054610140840191906122f4906152ff565b80601f0160208091040260200160405190810160405280929190818152602001828054612320906152ff565b801561236d5780601f106123425761010080835404028352916020019161236d565b820191906000526020600020905b81548152906001019060200180831161235057829003601f168201915b50505050508152602001600b82015481525050905060005b600f548110156110dc57601081815481106123a2576123a26152e9565b9060005260206000200154826101600151101580156123ff57503360009081526026602052604090208054829081106123dd576123dd6152e9565b90600052602060002090602091828204019190069054906101000a900460ff16155b1561254857600654600f80546001600160a01b039092169163a9059cbb9133918590811061242f5761242f6152e9565b6000918252602090912001546040516001600160e01b031960e085901b1681526001600160a01b03909216600483015260248201526044016020604051808303816000875af1158015612486573d6000803e3d6000fd5b505050506040513d601f19601f820116820180604052508101906124aa91906152cc565b50336000908152602660205260409020805460019190839081106124d0576124d06152e9565b90600052602060002090602091828204019190066101000a81548160ff021916908315150217905550600f818154811061250c5761250c6152e9565b60009182526020808320909101543383526025825260408084205484526028909252908220805491929091612542908490615299565b90915550505b80612552816152b1565b915050612385565b601e60205260009081526040902080546001820154600283015460038401546004850154600586015460068701546007880154600889015460098a0154600a8b01805460ff909b169b999a989997989697959694959394929391926125be906152ff565b80601f01602080910402602001604051908101604052809291908181526020018280546125ea906152ff565b80156126375780601f1061260c57610100808354040283529160200191612637565b820191906000526020600020905b81548152906001019060200180831161261a57829003601f168201915b50505050509080600b015490508c565b6000546001600160a01b0316331461265e57600080fd5b6001600160a01b03811661267157600080fd5b6040516001600160a01b038216907fa3b62bc36326052d97ea62d63c3d60308ed4c3ea8ac079dd8499f1e9c4f80c0f90600090a26001600160a01b03166000908152600160205260409020805460ff19169055565b602a81815481106126d657600080fd5b6000918252602090912001546001600160a01b0316905081565b600b8181548110611a1357600080fd5b60606000825160016127129190615299565b67ffffffffffffffff81111561272a5761272a614beb565b604051908082528060200260200182016040528015612753578160200160208202803683370190505b50905060005b835181101561196757838181518110612774576127746152e9565b602002602001015182828151811061278e5761278e6152e9565b6020908102919091010152806127a3816152b1565b915050612759565b600080546001600160a01b031633146127c357600080fd5b82516127d690602a906020860190614a2b565b5081516127ea90602b9060208501906149f0565b5060019392505050565b60606000805b835181101561290957601e6000858381518110612819576128196152e9565b60200260200101516001600160a01b03166001600160a01b0316815260200190815260200160002091506000805b855181101561289a57858181518110612862576128626152e9565b60200260200101516001600160a01b0316826001600160a01b0316141561288857600091505b80612892816152b1565b915050612847565b506001600160a01b038116156128f6576128b3856118af565b94508085600187516128c59190615334565b815181106128d5576128d56152e9565b60200260200101906001600160a01b031690816001600160a01b0316815250505b5080612901816152b1565b9150506127fa565b509192915050565b60606000825160016129239190615299565b67ffffffffffffffff81111561293b5761293b614beb565b604051908082528060200260200182016040528015612964578160200160208202803683370190505b50905060005b835181101561196757838181518110612985576129856152e9565b602002602001015182828151811061299f5761299f6152e9565b91151560209283029190910190910152806129b9816152b1565b91505061296a565b600f8181548110611a1357600080fd5b60608060005b6001600160a01b03841660009081526023602052604090205481101561196757612a00826118af565b6001600160a01b038516600090815260236020526040902080549193509082908110612a2e57612a2e6152e9565b9060005260206000200160009054906101000a90046001600160a01b0316828281518110612a5e57612a5e6152e9565b6001600160a01b039092166020928302919091019091015280612a80816152b1565b9150506129d7565b6000546001600160a01b03163314612a9f57600080fd5b600280546001600160a01b0319166001600160a01b03831617905560038054906000612aca836152b1565b919050555050565b600060608060606000612ae587876130a3565b9a9950505050505050505050565b336000908152601e602052604090206001600160a01b038316612b1557600080fd5b602c5415612c2557602c54600654604051636eb1769f60e11b81523360048201523060248201526001600160a01b039091169063dd62ed3e90604401602060405180830381865afa158015612b6e573d6000803e3d6000fd5b505050506040513d601f19601f82011682018060405250810190612b92919061524b565b1015612b9d57600080fd5b600654602c546040516323b872dd60e01b815233600482015230602482015260448101919091526001600160a01b03909116906323b872dd906064016020604051808303816000875af1158015612bf8573d6000803e3d6000fd5b505050506040513d601f19601f82011682018060405250810190612c1c91906152cc565b612c2557600080fd5b60005b602a54811015612d3357600654602a80546001600160a01b039092169163a9059cbb919084908110612c5c57612c5c6152e9565b9060005260206000200160009054906101000a90046001600160a01b0316612cb1606461133d602b8781548110612c9557612c956152e9565b9060005260206000200154602c546143fb90919063ffffffff16565b6040516001600160e01b031960e085901b1681526001600160a01b03909216600483015260248201526044016020604051808303816000875af1158015612cfc573d6000803e3d6000fd5b505050506040513d601f19601f82011682018060405250810190612d2091906152cc565b5080612d2b816152b1565b915050612c28565b50805460ff16612e6957805460ff19166001178155601454601254612d58919061527a565b612d629042615299565b600182015533600090815260226020908152604080832080546001600160a01b0319166001600160a01b0388169081179091558352601e9091528120600901805491612dad836152b1565b90915550506001600160a01b0383166000908152602360209081526040822080546001810182559083529082200180546001600160a01b031916331790556018805491612df9836152b1565b9091555050336000908152602660205260409020600e8054612e1c9291906148f2565b5060298054600090815260246020908152604080832080546001600160a01b031916339081179091558454908452602590925282208190559190612e5f836152b1565b9190505550612e8e565b601454601254612e79919061527a565b8160010154612e889190615299565b60018201555b815161153790600a8301906020850190614a80565b6001600160a01b0381166000908152601e60209081526040808320815161018081018352815460ff16151581526001820154938101939093526002810154918301919091526003810154606083015260048101546080830152600581015460a0830152600681015460c0830152600781015460e083015260088101546101008301526009810154610120830152600a8101805484939291610140840191612f49906152ff565b80601f0160208091040260200160405190810160405280929190818152602001828054612f75906152ff565b8015612fc25780601f10612f9757610100808354040283529160200191612fc2565b820191906000526020600020905b815481529060010190602001808311612fa557829003601f168201915b50505050508152602001600b82015481525050905060005b600f5481101561308c5760108181548110612ff757612ff76152e9565b9060005260206000200154826101600151101580156130545750336000908152602660205260409020805482908110613032576130326152e9565b90600052602060002090602091828204019190069054906101000a900460ff16155b1561307a57600f818154811061306c5761306c6152e9565b906000526020600020015492505b80613084816152b1565b915050612fda565b5050919050565b602d81815481106126d657600080fd5b6060806060600080601e6000886001600160a01b03166001600160a01b03168152602001908152602001600020604051806101800160405290816000820160009054906101000a900460ff16151515158152602001600182015481526020016002820154815260200160038201548152602001600482015481526020016005820154815260200160068201548152602001600782015481526020016008820154815260200160098201548152602001600a82018054613161906152ff565b80601f016020809104026020016040519081016040528092919081815260200182805461318d906152ff565b80156131da5780601f106131af576101008083540402835291602001916131da565b820191906000526020600020905b8154815290600101906020018083116131bd57829003601f168201915b5050509183525050600b91909101546020918201526001600160a01b0389166000908152601f82526040808220805482518186028101860190935280835294955091939092849084015b828210156132745783829060005260206000209060030201604051806060016040529081600082015481526020016001820154815260200160028201548152505081526020019060010190613224565b505050509050606080606060008060008c15613312576001600160a01b038e1660009081526020808052604080832080548251818502810185019093528083529193909284015b8282101561330b57838290600052602060002090600302016040518060600160405290816000820154815260200160018201548152602001600282015481525050815260200190600101906132bb565b5050505096505b865160005b818110156135985761332888612700565b975061333387612700565b965061333e86612911565b9550888181518110613352576133526152e9565b602002602001015160000151876001895161336d9190615334565b8151811061337d5761337d6152e9565b602002602001018181525050613391611f56565b8982815181106133a3576133a36152e9565b6020026020010151600001516133b99190615299565b42116133c557426133f5565b6133cd611f56565b8982815181106133df576133df6152e9565b6020026020010151600001516133f59190615299565b92508e156134555788818151811061340f5761340f6152e9565b6020026020010151600001518a60e001511161344857888181518110613437576134376152e9565b60200260200101516000015161344e565b8960e001515b93506134a9565b888181518110613467576134676152e9565b6020026020010151600001518a60c00151116134a05788818151811061348f5761348f6152e9565b6020026020010151600001516134a6565b8960c001515b93505b83158015906134b757508284105b1561353e576134c4611f56565b6134ce8585615334565b8a83815181106134e0576134e06152e9565b6020026020010151604001516134f6919061527a565b613500919061534b565b61350a9086615299565b94506001866001885161351d9190615334565b8151811061352d5761352d6152e9565b911515602092830291909101909101525b888181518110613550576135506152e9565b6020026020010151604001518860018a5161356b9190615334565b8151811061357b5761357b6152e9565b602090810291909101015280613590816152b1565b915050613317565b50959e949d50929b5090995091975050505050505050565b600a548110156135bf57600080fd5b336000908152601e60205260409020805460ff1615806135e3575080600101544210155b806135ec575081155b806135fa5750818160030154105b1561360457600080fd5b818160030160008282546136189190615334565b9091555050336000908152602260205260409020546001600160a01b031615613718576136963383600b80548060200260200160405190810160405280929190818152602001828054801561368c57602002820191906000526020600020905b815481526020019060010190808311613678575b5050505050614730565b336000908152602260209081526040808320546001600160a01b03168352601e9091528120600b0180548492906136ce908490615299565b9091555050336000908152602260209081526040808320546001600160a01b0316835260258252808320548352602790915281208054849290613712908490615299565b90915550505b60206000336001600160a01b03166001600160a01b031681526020019081526020016000206040518060600160405280428152602001613768606461133d601554886143fb90919063ffffffff16565b8152602001613787606461133d601554886143fb90919063ffffffff16565b9052815460018181018455600093845260209384902083516003909302019182559282015192810192909255604001516002909101555050565b600080546001600160a01b031633146137d957600080fd5b82516137ec90602d906020860190614a2b565b5081516127ea90602e9060208501906149f0565b600080546001600160a01b0316331461381857600080fd5b50602c55600190565b3360009081526001602052604081205460ff1661383d57600080fd5b506011805460ff191682151517905590565b600080546001600160a01b0316331461386757600080fd5b50601655600190565b336000908152601e602052604090819020600281015460065492516370a0823160e01b81523060048201529192909182916001600160a01b0316906370a0823190602401602060405180830381865afa1580156138d1573d6000803e3d6000fd5b505050506040513d601f19601f820116820180604052508101906138f5919061524b565b101561390057600080fd5b60085481101561390f57600080fd5b6006546016546001600160a01b039091169063a9059cbb90339061393b9060649061133d9087906143fb565b6040516001600160e01b031960e085901b1681526001600160a01b03909216600483015260248201526044016020604051808303816000875af1158015613986573d6000803e3d6000fd5b505050506040513d601f19601f820116820180604052508101906139aa91906152cc565b50816002016000905580601d6000828254611e4d9190615299565b6009548110156139d457600080fd5b336000908152601e60205260409020805460ff166139f157600080fd5b80600101544210613a0157600080fd5b600654604051636eb1769f60e11b815233600482015230602482015283916001600160a01b03169063dd62ed3e90604401602060405180830381865afa158015613a4f573d6000803e3d6000fd5b505050506040513d601f19601f82011682018060405250810190613a73919061524b565b1015613a7e57600080fd5b6006546040516323b872dd60e01b8152336004820152306024820152604481018490526001600160a01b03909116906323b872dd906064016020604051808303816000875af1158015613ad5573d6000803e3d6000fd5b505050506040513d601f19601f82011682018060405250810190613af991906152cc565b613b0257600080fd5b336000908152602260205260409020546001600160a01b031615613bfe57613b793383600b80548060200260200160405190810160405280929190818152602001828054801561368c5760200282019190600052602060002090815481526020019060010190808311613678575050505050614730565b336000908152602260209081526040808320546001600160a01b03168352601e9091528120600b8101805491928592613bb3908490615299565b9091555050336000908152602260209081526040808320546001600160a01b0316835260258252808320548352602790915281208054859290613bf7908490615299565b9091555050505b601f6000336001600160a01b03166001600160a01b031681526020019081526020016000206040518060600160405280428152602001613c4e606461133d601554886143fb90919063ffffffff16565b8152602001613c6d606461133d601554886143fb90919063ffffffff16565b905281546001818101845560009384526020808520845160039094020192835583015190820155604090910151600290910155600582018054849290613cb4908490615299565b925050819055508160196000828254613ccd9190615299565b90915550600090505b602d54811015613ddf57600654602d80546001600160a01b039092169163a9059cbb919084908110613d0a57613d0a6152e9565b9060005260206000200160009054906101000a90046001600160a01b0316613d5d606461133d602e8781548110613d4357613d436152e9565b9060005260206000200154896143fb90919063ffffffff16565b6040516001600160e01b031960e085901b1681526001600160a01b03909216600483015260248201526044016020604051808303816000875af1158015613da8573d6000803e3d6000fd5b505050506040513d601f19601f82011682018060405250810190613dcc91906152cc565b5080613dd7816152b1565b915050613cd6565b50600a54816003015410613dfa57613dfa81600301546135b0565b5050565b600e8181548110613e0e57600080fd5b9060005260206000209060209182820401919006915054906101000a900460ff1681565b60115460ff16613e4157600080fd5b336000818152601e6020526040812091613e5c906001612ad2565b6006546040516370a0823160e01b815230600482015291925082916001600160a01b03909116906370a0823190602401602060405180830381865afa158015613ea9573d6000803e3d6000fd5b505050506040513d601f19601f82011682018060405250810190613ecd919061524b565b1015613ed857600080fd5b600854811015613ee757600080fd5b6006546016546001600160a01b039091169063a9059cbb903390613f139060649061133d9087906143fb565b6040516001600160e01b031960e085901b1681526001600160a01b03909216600483015260248201526044016020604051808303816000875af1158015613f5e573d6000803e3d6000fd5b505050506040513d601f19601f82011682018060405250810190613f8291906152cc565b5080826008016000828254613f979190615299565b9091555050426007830155601c8054829190600090611e4d908490615299565b60008060005b60295481101561405c5760005b600f548110156140495760108181548110613fe757613fe76152e9565b906000526020600020015460276000848152602001908152602001600020541061403757600f818154811061401e5761401e6152e9565b9060005260206000200154836140349190615299565b92505b80614041816152b1565b915050613fca565b5080614054816152b1565b915050613fbd565b50919050565b600d8181548110611a1357600080fd5b60008060005b60295481101561405c5760008181526028602052604090205461409b9083615299565b9150806140a7816152b1565b915050614078565b6000546001600160a01b031633146140c657600080fd5b6001600160a01b0381166140d957600080fd5b600080546040516001600160a01b03808516939216917f8be0079c531659141344cd1fd0a4f28419497f9722a3daafe3b4186f6b6457e091a3600080546001600160a01b03908116825260016020526040808320805460ff19169055825490519116917fa3b62bc36326052d97ea62d63c3d60308ed4c3ea8ac079dd8499f1e9c4f80c0f91a2600080546001600160a01b0319166001600160a01b0383169081178255808252600160208190526040808420805460ff19169092179091555190917f71614071b88dee5e0b2ae578a9dd7b2ebbe9ae832ba419dc0242cd065a290b6c91a250565b3360009081526001602052604081205460ff166141dc57600080fd5b50601381905590565b600080546001600160a01b031633146141fd57600080fd5b6000821161420a57600080fd5b6001600160a01b03838116600090815260226020526040902054161561430d576142838383600b80548060200260200160405190810160405280929190818152602001828054801561368c5760200282019190600052602060002090815481526020019060010190808311613678575050505050614730565b6001600160a01b038084166000908152602260209081526040808320549093168252601e9052908120600b0180548492906142bf908490615299565b90915550506001600160a01b03808416600090815260226020908152604080832054909316825260258152828220548252602790529081208054849290614307908490615299565b90915550505b6001600160a01b0383166000908152601e602052604081206005018054849290614338908490615299565b9250508190555081601960008282546143519190615299565b9091555061436390508383600061444f565b9392505050565b601f6020528160005260406000208181548110611e7157600080fd5b600080546001600160a01b0316331461439e57600080fd5b600080546040516001600160a01b03909116914780156108fc02929091818181858888f193505050501580156143d8573d6000803e3d6000fd5b5047905090565b60216020528160005260406000208181548110611e7157600080fd5b60008261440a57506000611705565b6000614416838561527a565b905082614423858361534b565b1461436357600080fd5b600080821161443b57600080fd5b6000614447838561534b565b949350505050565b600080831161445d57600080fd5b6001600160a01b0384166000908152601e60209081526040808320815161018081018352815460ff16151581526001820154938101939093526002810154918301919091526003810154606083015260048101546080830152600581015460a0830152600681015460c0830152600781015460e083015260088101546101008301526009810154610120830152600a8101805461014084019190614500906152ff565b80601f016020809104026020016040519081016040528092919081815260200182805461452c906152ff565b80156145795780601f1061454e57610100808354040283529160200191614579565b820191906000526020600020905b81548152906001019060200180831161455c57829003601f168201915b50505050508152602001600b820154815250509050806000015161459c57600080fd5b821561464c5760206000866001600160a01b03166001600160a01b0316815260200190815260200160002060405180606001604052804281526020016145f2606461133d6015548a6143fb90919063ffffffff16565b8152602001614611606461133d6015548a6143fb90919063ffffffff16565b905281546001818101845560009384526020938490208351600390930201918255928201519281019290925560400151600290910155611f09565b601f6000866001600160a01b03166001600160a01b03168152602001908152602001600020604051806060016040528042815260200161469c606461133d6015548a6143fb90919063ffffffff16565b81526020016146bb606461133d6015548a6143fb90919063ffffffff16565b905281546001808201845560009384526020938490208351600390930201918255928201518184015560409091015160029091015595945050505050565b6000806147068385615299565b90508381101561436357600080fd5b60008282111561472457600080fd5b60006144478385615334565b606061473d84835161181a565b905060008080805b85518110156148e857858181518110614760576147606152e9565b60200260200101516000146148d157601e6000868381518110614785576147856152e9565b6020908102919091018101516001600160a01b03168252810191909152604001600020805490925060ff1680156147c0575042826001015410155b156148d65760006001600160a01b03168582815181106147e2576147e26152e9565b60200260200101516001600160a01b0316146148d15761482a6103e861133d888481518110614813576148136152e9565b60200260200101518a6143fb90919063ffffffff16565b9350614861606461133d600c8481548110614847576148476152e9565b90600052602060002001548a6143fb90919063ffffffff16565b9250838260020160008282546148779190615299565b92505081905550838260040160008282546148929190615299565b92505081905550828260030160008282546148ad9190615299565b9250508190555083601a60008282546148c69190615299565b909155506148d69050565b6148e8565b806148e0816152b1565b915050614745565b5050505050505050565b82805482825590600052602060002090601f0160209004810192821561494057600052602060002091601f016020900482015b82811115614940578254825591600101919060010190614925565b5061494c929150614af3565b5090565b82805482825590600052602060002090601f016020900481019282156149405791602002820160005b838211156149b657835183826101000a81548160ff0219169083151502179055509260200192600101602081600001049283019260010302614979565b80156149e35782816101000a81549060ff02191690556001016020816000010492830192600103026149b6565b505061494c929150614af3565b828054828255906000526020600020908101928215614940579160200282015b82811115614940578251825591602001919060010190614a10565b828054828255906000526020600020908101928215614940579160200282015b8281111561494057825182546001600160a01b0319166001600160a01b03909116178255602090920191600190910190614a4b565b828054614a8c906152ff565b90600052602060002090601f016020900481019282614aae5760008555614940565b82601f10614ac757805160ff1916838001178555614940565b828001600101855582156149405791820182811115614940578251825591602001919060010190614a10565b5b8082111561494c5760008155600101614af4565b6001600160a01b0381168114614b1d57600080fd5b50565b60008060408385031215614b3357600080fd5b8235614b3e81614b08565b91506020830135614b4e81614b08565b809150509250929050565b600060208284031215614b6b57600080fd5b5035919050565b60008060408385031215614b8557600080fd5b8235614b9081614b08565b946020939093013593505050565b6020808252825182820181905260009190848201906040850190845b81811015614bdf5783516001600160a01b031683529284019291840191600101614bba565b50909695505050505050565b634e487b7160e01b600052604160045260246000fd5b604051601f8201601f1916810167ffffffffffffffff81118282101715614c2a57614c2a614beb565b604052919050565b600067ffffffffffffffff821115614c4c57614c4c614beb565b5060051b60200190565b600082601f830112614c6757600080fd5b81356020614c7c614c7783614c32565b614c01565b82815260059290921b84018101918181019086841115614c9b57600080fd5b8286015b84811015614cbf578035614cb281614b08565b8352918301918301614c9f565b509695505050505050565b600060208284031215614cdc57600080fd5b813567ffffffffffffffff811115614cf357600080fd5b61444784828501614c56565b60008060408385031215614d1257600080fd5b50508035926020909101359150565b600081518084526020808501945080840160005b83811015614d5157815187529582019590820190600101614d35565b509495945050505050565b6020815260006143636020830184614d21565b8015158114614b1d57600080fd5b60008060408385031215614d9057600080fd5b823591506020830135614b4e81614d6f565b600060208284031215614db457600080fd5b813561436381614b08565b600080600060608486031215614dd457600080fd5b8335614ddf81614b08565b9250602084013591506040840135614df681614d6f565b809150509250925092565b600082601f830112614e1257600080fd5b81356020614e22614c7783614c32565b82815260059290921b84018101918181019086841115614e4157600080fd5b8286015b84811015614cbf578035614e5881614d6f565b8352918301918301614e45565b600082601f830112614e7657600080fd5b81356020614e86614c7783614c32565b82815260059290921b84018101918181019086841115614ea557600080fd5b8286015b84811015614cbf5780358352918301918301614ea9565b600080600060608486031215614ed557600080fd5b833567ffffffffffffffff80821115614eed57600080fd5b614ef987838801614e01565b94506020860135915080821115614f0f57600080fd5b614f1b87838801614e65565b93506040860135915080821115614f3157600080fd5b50614f3e86828701614e65565b9150509250925092565b60006101808e1515835260208e818501528d60408501528c60608501528b60808501528a60a08501528960c08501528860e085015287610100850152866101208501528161014085015285518083860152600092505b80831015614fbd578683018201518584016101a0015291810191614f9e565b80831115614fd05760006101a082870101525b610160850195909552505050601f91909101601f1916016101a0019b9a5050505050505050505050565b60006020828403121561500c57600080fd5b813567ffffffffffffffff81111561502357600080fd5b61444784828501614e65565b6000806040838503121561504257600080fd5b823567ffffffffffffffff8082111561505a57600080fd5b61506686838701614c56565b9350602085013591508082111561507c57600080fd5b5061508985828601614e65565b9150509250929050565b6000602082840312156150a557600080fd5b813567ffffffffffffffff8111156150bc57600080fd5b61444784828501614e01565b600081518084526020808501945080840160005b83811015614d515781511515875295820195908201906001016150dc565b60208152600061436360208301846150c8565b6000806040838503121561512057600080fd5b823561512b81614b08565b91506020830135614b4e81614d6f565b6000806040838503121561514e57600080fd5b823561515981614b08565b915060208381013567ffffffffffffffff8082111561517757600080fd5b818601915086601f83011261518b57600080fd5b81358181111561519d5761519d614beb565b6151af601f8201601f19168501614c01565b915080825287848285010111156151c557600080fd5b80848401858401376000848284010152508093505050509250929050565b6080815260006151f66080830187614d21565b82810360208401526152088187614d21565b9050828103604084015261521c81866150c8565b91505082606083015295945050505050565b60006020828403121561524057600080fd5b813561436381614d6f565b60006020828403121561525d57600080fd5b5051919050565b634e487b7160e01b600052601160045260246000fd5b600081600019048311821515161561529457615294615264565b500290565b600082198211156152ac576152ac615264565b500190565b60006000198214156152c5576152c5615264565b5060010190565b6000602082840312156152de57600080fd5b815161436381614d6f565b634e487b7160e01b600052603260045260246000fd5b600181811c9082168061531357607f821691505b6020821081141561405c57634e487b7160e01b600052602260045260246000fd5b60008282101561534657615346615264565b500390565b60008261536857634e487b7160e01b600052601260045260246000fd5b50049056fea26469706673582212202a111e873a8f91f082cfa8af64460d6aa4ba3d49fa3d64be7621d1594e790b0e64736f6c634300080a0033",
    "sourcePath": "c:/Users/STC/Documents/GitHub/00-IB-2-last/contracts/infinitySystemV2/UnilevelSystemV2.1.sol",
    "compiler": {
        "name": "solc",
        "version": "0.8.10+commit.fc410830"
    },
    "functionHashes": {
        "ChangeTokenPrincipal(address)": "50da983f",
        "MIN_RETIRO()": "6c529279",
        "PRECIO_BLOCK()": "24de19f2",
        "PRECIO_BLOCK_infinity()": "627b31b0",
        "actualizarArrayBool(bool[])": "7fcc1e36",
        "actualizarArrayUint256(uint256[])": "7367b080",
        "actualizarNetwork(address[])": "1ce7f99b",
        "addressToId(address)": "cb0e0d7d",
        "admin(address)": "63a846f8",
        "allnetwork(address[])": "7faee047",
        "asignarBlokePago(address,uint256)": "fc5d8615",
        "asignarMembership(address,address)": "1053abb1",
        "baserange(uint256)": "cfda9ee6",
        "baserangelength()": "f5c9dbef",
        "blockesRango(uint256)": "b5df6d44",
        "blokes(address,uint256)": "fcec0fdf",
        "buyBlocks(uint256)": "c17dbdf9",
        "buyInfinityBlock(uint256)": "a5a7e04c",
        "column(address,uint256)": "15e8392b",
        "columnHijos(address)": "815374ca",
        "controlWitdrawl(bool)": "b17b6e44",
        "depositos(address,bool)": "a365528b",
        "descuento()": "7b0412ed",
        "dias()": "ab6db199",
        "duracionMembership()": "c40d5dbc",
        "gananciasRango(uint256)": "81032892",
        "hijo(address,uint256)": "339640b5",
        "idToAddress(uint256)": "2a2d0c47",
        "implementation()": "5c60da1b",
        "inMigracion(address,address)": "047ff6d2",
        "infinity(uint256)": "edf5eb1d",
        "infinityBlokes(address,uint256)": "41f1771c",
        "investors(address)": "6f7bc9be",
        "lastUserId()": "348d4487",
        "makeNewAdmin(address)": "69ed1e0a",
        "makeRemoveAdmin(address)": "70a0966b",
        "newRecompensa()": "69f4a84b",
        "oldBlokes(address,uint256)": "fd9a3fad",
        "onOffWitdrawl()": "e7348e8c",
        "owner()": "8da5cb5b",
        "padre(address)": "b35f0a8f",
        "personas()": "cc759ba2",
        "porcent()": "4728f718",
        "porcientos(uint256)": "28cca719",
        "precioRegistro()": "7db9e9c6",
        "primervez(uint256)": "725fc270",
        "puntosRango(uint256)": "21309f21",
        "rangoReclamado(address,uint256)": "2acc8210",
        "redimBNB()": "fd14d598",
        "redimTokenPrincipal02(uint256)": "1140e85b",
        "registro(address,string)": "8f9ef8c1",
        "setContratoMigracion(address)": "30d2949f",
        "setDescuento(uint256)": "b3d9fa09",
        "setMIN_RETIRO(uint256)": "4de1be62",
        "setPorcientos(uint256,uint256)": "1e403c35",
        "setPorcientosSalida(uint256,uint256)": "5d216c60",
        "setPrecioRegistro(uint256)": "aaa749c5",
        "setPriceBlock(uint256,bool)": "23e5a5a1",
        "setPrimeravezPorcientos(uint256,uint256)": "54822522",
        "setRangos(bool[],uint256[],uint256[])": "43bf0bd4",
        "setRetorno(uint256)": "6589fa8a",
        "setTiempo(uint256)": "f90b3f5a",
        "setTiempoUnidades(uint256)": "2748d29b",
        "setWalletFee(address[],uint256[])": "7583f8fc",
        "setWalletstransfers(address[],uint256[])": "a8beb717",
        "setduracionMembership(uint256)": "4acb7240",
        "tiempo()": "50188c08",
        "tokenPricipal()": "b1390426",
        "totalInvested()": "5216aeec",
        "totalInvestors()": "29b8caff",
        "totalRange()": "ecdb171f",
        "totalRangeWitdrawl()": "eef117fd",
        "totalRefRewards()": "bfe0e020",
        "totalRefWitdrawl()": "9b8ff503",
        "totalRoiWitdrawl()": "70d7e3d5",
        "totalTeamWitdrawl()": "ff0b0cc5",
        "transferOwnership(address)": "f2fde38b",
        "unidades()": "4b9b8203",
        "updateBloke(address,uint256,bool)": "317cc772",
        "updateBlokeRange(address,uint256,bool)": "65535cb0",
        "upgradeImplementation(address)": "83f94db7",
        "upgraded()": "c28de2cd",
        "usdtRetirado(uint256)": "1f5d65fd",
        "valor(uint256)": "62550916",
        "valorFee(uint256)": "29e1a243",
        "version()": "54fd4d50",
        "wallet(uint256)": "a2781335",
        "walletFee(uint256)": "7251b9ac",
        "withdraw()": "3ccfd60b",
        "withdraw2()": "ea98847b",
        "withdrawTeam()": "bb51f32d",
        "withdrawable(address,bool)": "89b2521c",
        "withdrawableRange(address)": "98c07d0a"
    },
    "gasEstimates": {
        "creation": {
            "codeDepositCost": "4282200",
            "executionCost": "infinite",
            "totalCost": "infinite"
        },
        "external": {
            "": "infinite",
            "ChangeTokenPrincipal(address)": "51065",
            "MIN_RETIRO()": "2384",
            "PRECIO_BLOCK()": "2452",
            "PRECIO_BLOCK_infinity()": "2385",
            "actualizarArrayBool(bool[])": "infinite",
            "actualizarArrayUint256(uint256[])": "infinite",
            "actualizarNetwork(address[])": "infinite",
            "addressToId(address)": "2624",
            "admin(address)": "2626",
            "allnetwork(address[])": "infinite",
            "asignarBlokePago(address,uint256)": "infinite",
            "asignarMembership(address,address)": "infinite",
            "baserange(uint256)": "6380",
            "baserangelength()": "2469",
            "blockesRango(uint256)": "2550",
            "blokes(address,uint256)": "9135",
            "buyBlocks(uint256)": "infinite",
            "buyInfinityBlock(uint256)": "infinite",
            "column(address,uint256)": "infinite",
            "columnHijos(address)": "infinite",
            "controlWitdrawl(bool)": "26939",
            "depositos(address,bool)": "infinite",
            "descuento()": "2430",
            "dias()": "2428",
            "duracionMembership()": "2384",
            "gananciasRango(uint256)": "4687",
            "hijo(address,uint256)": "4868",
            "idToAddress(uint256)": "2612",
            "implementation()": "2493",
            "inMigracion(address,address)": "infinite",
            "infinity(uint256)": "4686",
            "infinityBlokes(address,uint256)": "9181",
            "investors(address)": "infinite",
            "lastUserId()": "2407",
            "makeNewAdmin(address)": "28187",
            "makeRemoveAdmin(address)": "28073",
            "newRecompensa()": "infinite",
            "oldBlokes(address,uint256)": "9179",
            "onOffWitdrawl()": "2476",
            "owner()": "2405",
            "padre(address)": "2620",
            "personas()": "2428",
            "porcent()": "2364",
            "porcientos(uint256)": "4644",
            "precioRegistro()": "2452",
            "primervez(uint256)": "4644",
            "puntosRango(uint256)": "4688",
            "rangoReclamado(address,uint256)": "6549",
            "redimBNB()": "infinite",
            "redimTokenPrincipal02(uint256)": "infinite",
            "registro(address,string)": "infinite",
            "setContratoMigracion(address)": "26943",
            "setDescuento(uint256)": "24617",
            "setMIN_RETIRO(uint256)": "24670",
            "setPorcientos(uint256,uint256)": "infinite",
            "setPorcientosSalida(uint256,uint256)": "infinite",
            "setPrecioRegistro(uint256)": "24638",
            "setPriceBlock(uint256,bool)": "24800",
            "setPrimeravezPorcientos(uint256,uint256)": "infinite",
            "setRangos(bool[],uint256[],uint256[])": "infinite",
            "setRetorno(uint256)": "24739",
            "setTiempo(uint256)": "24649",
            "setTiempoUnidades(uint256)": "24714",
            "setWalletFee(address[],uint256[])": "infinite",
            "setWalletstransfers(address[],uint256[])": "infinite",
            "setduracionMembership(uint256)": "24618",
            "tiempo()": "infinite",
            "tokenPricipal()": "2492",
            "totalInvested()": "2385",
            "totalInvestors()": "2386",
            "totalRange()": "infinite",
            "totalRangeWitdrawl()": "infinite",
            "totalRefRewards()": "2451",
            "totalRefWitdrawl()": "2429",
            "totalRoiWitdrawl()": "2450",
            "totalTeamWitdrawl()": "2471",
            "transferOwnership(address)": "85644",
            "unidades()": "2408",
            "updateBloke(address,uint256,bool)": "infinite",
            "updateBlokeRange(address,uint256,bool)": "infinite",
            "upgradeImplementation(address)": "51140",
            "upgraded()": "2362",
            "usdtRetirado(uint256)": "2529",
            "valor(uint256)": "4643",
            "valorFee(uint256)": "4688",
            "version()": "2429",
            "wallet(uint256)": "4770",
            "walletFee(uint256)": "4791",
            "withdraw()": "infinite",
            "withdraw2()": "infinite",
            "withdrawTeam()": "infinite",
            "withdrawable(address,bool)": "infinite",
            "withdrawableRange(address)": "infinite"
        },
        "internal": {
            "_asignarBloke(address,uint256,bool)": "infinite",
            "rewardReferers(address,uint256,uint256[] memory)": "infinite"
        }
    }
}