{
    "contractName": "InfinitySystemV2",
    "abi": [
        {
            "inputs": [
                {
                    "internalType": "address",
                    "name": "_owner",
                    "type": "address"
                }
            ],
            "stateMutability": "nonpayable",
            "type": "constructor"
        },
        {
            "inputs": [
                {
                    "internalType": "address",
                    "name": "_tokenTRC20",
                    "type": "address"
                }
            ],
            "name": "ChangeTokenPrincipal",
            "outputs": [
                {
                    "internalType": "bool",
                    "name": "",
                    "type": "bool"
                }
            ],
            "stateMutability": "nonpayable",
            "type": "function"
        },
        {
            "inputs": [],
            "name": "MIN_RETIRO",
            "outputs": [
                {
                    "internalType": "uint256",
                    "name": "",
                    "type": "uint256"
                }
            ],
            "stateMutability": "view",
            "type": "function"
        },
        {
            "inputs": [],
            "name": "PRECIO_BLOCK",
            "outputs": [
                {
                    "internalType": "uint256",
                    "name": "",
                    "type": "uint256"
                }
            ],
            "stateMutability": "view",
            "type": "function"
        },
        {
            "inputs": [],
            "name": "PRECIO_BLOCK_infinity",
            "outputs": [
                {
                    "internalType": "uint256",
                    "name": "",
                    "type": "uint256"
                }
            ],
            "stateMutability": "view",
            "type": "function"
        },
        {
            "inputs": [
                {
                    "internalType": "bool[]",
                    "name": "old",
                    "type": "bool[]"
                }
            ],
            "name": "actualizarArrayBool",
            "outputs": [
                {
                    "internalType": "bool[]",
                    "name": "",
                    "type": "bool[]"
                }
            ],
            "stateMutability": "pure",
            "type": "function"
        },
        {
            "inputs": [
                {
                    "internalType": "uint256[]",
                    "name": "old",
                    "type": "uint256[]"
                }
            ],
            "name": "actualizarArrayUint256",
            "outputs": [
                {
                    "internalType": "uint256[]",
                    "name": "",
                    "type": "uint256[]"
                }
            ],
            "stateMutability": "pure",
            "type": "function"
        },
        {
            "inputs": [
                {
                    "internalType": "address[]",
                    "name": "oldNetwork",
                    "type": "address[]"
                }
            ],
            "name": "actualizarNetwork",
            "outputs": [
                {
                    "internalType": "address[]",
                    "name": "",
                    "type": "address[]"
                }
            ],
            "stateMutability": "pure",
            "type": "function"
        },
        {
            "inputs": [
                {
                    "internalType": "address",
                    "name": "",
                    "type": "address"
                }
            ],
            "name": "adInfinity",
            "outputs": [
                {
                    "internalType": "uint256",
                    "name": "",
                    "type": "uint256"
                }
            ],
            "stateMutability": "view",
            "type": "function"
        },
        {
            "inputs": [
                {
                    "internalType": "address",
                    "name": "",
                    "type": "address"
                }
            ],
            "name": "adRoi",
            "outputs": [
                {
                    "internalType": "uint256",
                    "name": "",
                    "type": "uint256"
                }
            ],
            "stateMutability": "view",
            "type": "function"
        },
        {
            "inputs": [
                {
                    "internalType": "address",
                    "name": "_user",
                    "type": "address"
                },
                {
                    "internalType": "bool",
                    "name": "_sumar",
                    "type": "bool"
                },
                {
                    "internalType": "uint256",
                    "name": "_value",
                    "type": "uint256"
                }
            ],
            "name": "addInfinity",
            "outputs": [],
            "stateMutability": "nonpayable",
            "type": "function"
        },
        {
            "inputs": [
                {
                    "internalType": "address",
                    "name": "_user",
                    "type": "address"
                },
                {
                    "internalType": "bool",
                    "name": "_sumar",
                    "type": "bool"
                },
                {
                    "internalType": "uint256",
                    "name": "_value",
                    "type": "uint256"
                }
            ],
            "name": "addReferal",
            "outputs": [],
            "stateMutability": "nonpayable",
            "type": "function"
        },
        {
            "inputs": [
                {
                    "internalType": "address",
                    "name": "_user",
                    "type": "address"
                },
                {
                    "internalType": "bool",
                    "name": "_sumar",
                    "type": "bool"
                },
                {
                    "internalType": "uint256",
                    "name": "_value",
                    "type": "uint256"
                }
            ],
            "name": "addRoi",
            "outputs": [],
            "stateMutability": "nonpayable",
            "type": "function"
        },
        {
            "inputs": [
                {
                    "internalType": "address",
                    "name": "",
                    "type": "address"
                }
            ],
            "name": "addressToId",
            "outputs": [
                {
                    "internalType": "uint256",
                    "name": "",
                    "type": "uint256"
                }
            ],
            "stateMutability": "view",
            "type": "function"
        },
        {
            "inputs": [
                {
                    "internalType": "address",
                    "name": "",
                    "type": "address"
                }
            ],
            "name": "admin",
            "outputs": [
                {
                    "internalType": "bool",
                    "name": "",
                    "type": "bool"
                }
            ],
            "stateMutability": "view",
            "type": "function"
        },
        {
            "inputs": [
                {
                    "internalType": "address",
                    "name": "",
                    "type": "address"
                }
            ],
            "name": "admin2",
            "outputs": [
                {
                    "internalType": "bool",
                    "name": "",
                    "type": "bool"
                }
            ],
            "stateMutability": "view",
            "type": "function"
        },
        {
            "inputs": [
                {
                    "internalType": "address",
                    "name": "_user",
                    "type": "address"
                },
                {
                    "internalType": "uint256",
                    "name": "_value",
                    "type": "uint256"
                }
            ],
            "name": "asignarBlokePago",
            "outputs": [
                {
                    "internalType": "bool",
                    "name": "",
                    "type": "bool"
                }
            ],
            "stateMutability": "nonpayable",
            "type": "function"
        },
        {
            "inputs": [
                {
                    "internalType": "address",
                    "name": "_user",
                    "type": "address"
                },
                {
                    "internalType": "uint256",
                    "name": "_value",
                    "type": "uint256"
                },
                {
                    "internalType": "bool",
                    "name": "_infinit",
                    "type": "bool"
                }
            ],
            "name": "asignarBlokePago2",
            "outputs": [
                {
                    "internalType": "bool",
                    "name": "",
                    "type": "bool"
                }
            ],
            "stateMutability": "nonpayable",
            "type": "function"
        },
        {
            "inputs": [
                {
                    "internalType": "address",
                    "name": "_user",
                    "type": "address"
                },
                {
                    "internalType": "address",
                    "name": "_sponsor",
                    "type": "address"
                }
            ],
            "name": "asignarMembership",
            "outputs": [
                {
                    "internalType": "bool",
                    "name": "",
                    "type": "bool"
                }
            ],
            "stateMutability": "nonpayable",
            "type": "function"
        },
        {
            "inputs": [
                {
                    "internalType": "uint256",
                    "name": "",
                    "type": "uint256"
                }
            ],
            "name": "baserange",
            "outputs": [
                {
                    "internalType": "bool",
                    "name": "",
                    "type": "bool"
                }
            ],
            "stateMutability": "view",
            "type": "function"
        },
        {
            "inputs": [],
            "name": "baserangelength",
            "outputs": [
                {
                    "internalType": "uint256",
                    "name": "",
                    "type": "uint256"
                }
            ],
            "stateMutability": "view",
            "type": "function"
        },
        {
            "inputs": [
                {
                    "internalType": "uint256",
                    "name": "",
                    "type": "uint256"
                }
            ],
            "name": "blockesRango",
            "outputs": [
                {
                    "internalType": "uint256",
                    "name": "",
                    "type": "uint256"
                }
            ],
            "stateMutability": "view",
            "type": "function"
        },
        {
            "inputs": [
                {
                    "internalType": "address",
                    "name": "",
                    "type": "address"
                },
                {
                    "internalType": "uint256",
                    "name": "",
                    "type": "uint256"
                }
            ],
            "name": "blokes",
            "outputs": [
                {
                    "internalType": "uint256",
                    "name": "inicio",
                    "type": "uint256"
                },
                {
                    "internalType": "uint256",
                    "name": "value",
                    "type": "uint256"
                },
                {
                    "internalType": "uint256",
                    "name": "amount",
                    "type": "uint256"
                }
            ],
            "stateMutability": "view",
            "type": "function"
        },
        {
            "inputs": [
                {
                    "internalType": "uint256",
                    "name": "_value",
                    "type": "uint256"
                }
            ],
            "name": "buyBlocks",
            "outputs": [],
            "stateMutability": "nonpayable",
            "type": "function"
        },
        {
            "inputs": [
                {
                    "internalType": "uint256",
                    "name": "_value",
                    "type": "uint256"
                }
            ],
            "name": "buyInfinityBlock",
            "outputs": [],
            "stateMutability": "nonpayable",
            "type": "function"
        },
        {
            "inputs": [
                {
                    "internalType": "address",
                    "name": "yo",
                    "type": "address"
                },
                {
                    "internalType": "uint256",
                    "name": "_largo",
                    "type": "uint256"
                }
            ],
            "name": "column",
            "outputs": [
                {
                    "internalType": "address[]",
                    "name": "",
                    "type": "address[]"
                }
            ],
            "stateMutability": "view",
            "type": "function"
        },
        {
            "inputs": [
                {
                    "internalType": "address",
                    "name": "yo",
                    "type": "address"
                }
            ],
            "name": "columnHijos",
            "outputs": [
                {
                    "internalType": "address[]",
                    "name": "",
                    "type": "address[]"
                }
            ],
            "stateMutability": "view",
            "type": "function"
        },
        {
            "inputs": [
                {
                    "internalType": "bool",
                    "name": "_true_false",
                    "type": "bool"
                }
            ],
            "name": "controlWitdrawl",
            "outputs": [
                {
                    "internalType": "bool",
                    "name": "",
                    "type": "bool"
                }
            ],
            "stateMutability": "nonpayable",
            "type": "function"
        },
        {
            "inputs": [
                {
                    "internalType": "address",
                    "name": "_user",
                    "type": "address"
                },
                {
                    "internalType": "bool",
                    "name": "_infinity",
                    "type": "bool"
                }
            ],
            "name": "depositos",
            "outputs": [
                {
                    "internalType": "uint256[]",
                    "name": "",
                    "type": "uint256[]"
                },
                {
                    "internalType": "uint256[]",
                    "name": "",
                    "type": "uint256[]"
                },
                {
                    "internalType": "bool[]",
                    "name": "",
                    "type": "bool[]"
                },
                {
                    "internalType": "uint256",
                    "name": "",
                    "type": "uint256"
                }
            ],
            "stateMutability": "view",
            "type": "function"
        },
        {
            "inputs": [],
            "name": "descuento",
            "outputs": [
                {
                    "internalType": "uint256",
                    "name": "",
                    "type": "uint256"
                }
            ],
            "stateMutability": "view",
            "type": "function"
        },
        {
            "inputs": [],
            "name": "dias",
            "outputs": [
                {
                    "internalType": "uint256",
                    "name": "",
                    "type": "uint256"
                }
            ],
            "stateMutability": "view",
            "type": "function"
        },
        {
            "inputs": [],
            "name": "duracionMembership",
            "outputs": [
                {
                    "internalType": "uint256",
                    "name": "",
                    "type": "uint256"
                }
            ],
            "stateMutability": "view",
            "type": "function"
        },
        {
            "inputs": [
                {
                    "internalType": "uint256",
                    "name": "",
                    "type": "uint256"
                }
            ],
            "name": "gananciasRango",
            "outputs": [
                {
                    "internalType": "uint256",
                    "name": "",
                    "type": "uint256"
                }
            ],
            "stateMutability": "view",
            "type": "function"
        },
        {
            "inputs": [
                {
                    "internalType": "address",
                    "name": "",
                    "type": "address"
                },
                {
                    "internalType": "uint256",
                    "name": "",
                    "type": "uint256"
                }
            ],
            "name": "hijo",
            "outputs": [
                {
                    "internalType": "address",
                    "name": "",
                    "type": "address"
                }
            ],
            "stateMutability": "view",
            "type": "function"
        },
        {
            "inputs": [
                {
                    "internalType": "uint256",
                    "name": "",
                    "type": "uint256"
                }
            ],
            "name": "idToAddress",
            "outputs": [
                {
                    "internalType": "address",
                    "name": "",
                    "type": "address"
                }
            ],
            "stateMutability": "view",
            "type": "function"
        },
        {
            "inputs": [
                {
                    "internalType": "uint256",
                    "name": "",
                    "type": "uint256"
                }
            ],
            "name": "infinity",
            "outputs": [
                {
                    "internalType": "uint256",
                    "name": "",
                    "type": "uint256"
                }
            ],
            "stateMutability": "view",
            "type": "function"
        },
        {
            "inputs": [
                {
                    "internalType": "address",
                    "name": "",
                    "type": "address"
                },
                {
                    "internalType": "uint256",
                    "name": "",
                    "type": "uint256"
                }
            ],
            "name": "infinityBlokes",
            "outputs": [
                {
                    "internalType": "uint256",
                    "name": "inicio",
                    "type": "uint256"
                },
                {
                    "internalType": "uint256",
                    "name": "value",
                    "type": "uint256"
                },
                {
                    "internalType": "uint256",
                    "name": "amount",
                    "type": "uint256"
                }
            ],
            "stateMutability": "view",
            "type": "function"
        },
        {
            "inputs": [
                {
                    "internalType": "address",
                    "name": "",
                    "type": "address"
                }
            ],
            "name": "investors",
            "outputs": [
                {
                    "internalType": "bool",
                    "name": "registered",
                    "type": "bool"
                },
                {
                    "internalType": "uint256",
                    "name": "membership",
                    "type": "uint256"
                },
                {
                    "internalType": "uint256",
                    "name": "balanceRef",
                    "type": "uint256"
                },
                {
                    "internalType": "uint256",
                    "name": "balanceInfinit",
                    "type": "uint256"
                },
                {
                    "internalType": "uint256",
                    "name": "totalRef",
                    "type": "uint256"
                },
                {
                    "internalType": "uint256",
                    "name": "invested",
                    "type": "uint256"
                },
                {
                    "internalType": "uint256",
                    "name": "paidAt",
                    "type": "uint256"
                },
                {
                    "internalType": "uint256",
                    "name": "paidAt2",
                    "type": "uint256"
                },
                {
                    "internalType": "uint256",
                    "name": "withdrawn",
                    "type": "uint256"
                },
                {
                    "internalType": "uint256",
                    "name": "directos",
                    "type": "uint256"
                },
                {
                    "internalType": "string",
                    "name": "data",
                    "type": "string"
                },
                {
                    "internalType": "uint256",
                    "name": "blokesDirectos",
                    "type": "uint256"
                }
            ],
            "stateMutability": "view",
            "type": "function"
        },
        {
            "inputs": [],
            "name": "lastUserId",
            "outputs": [
                {
                    "internalType": "uint256",
                    "name": "",
                    "type": "uint256"
                }
            ],
            "stateMutability": "view",
            "type": "function"
        },
        {
            "inputs": [
                {
                    "internalType": "address payable",
                    "name": "_newadmin",
                    "type": "address"
                }
            ],
            "name": "makeNewAdmin",
            "outputs": [],
            "stateMutability": "nonpayable",
            "type": "function"
        },
        {
            "inputs": [
                {
                    "internalType": "address payable",
                    "name": "_newadmin",
                    "type": "address"
                }
            ],
            "name": "makeNewAdmin2",
            "outputs": [],
            "stateMutability": "nonpayable",
            "type": "function"
        },
        {
            "inputs": [
                {
                    "internalType": "address payable",
                    "name": "_oldadmin",
                    "type": "address"
                }
            ],
            "name": "makeRemoveAdmin",
            "outputs": [],
            "stateMutability": "nonpayable",
            "type": "function"
        },
        {
            "inputs": [
                {
                    "internalType": "address payable",
                    "name": "_oldadmin",
                    "type": "address"
                }
            ],
            "name": "makeRemoveAdmin2",
            "outputs": [],
            "stateMutability": "nonpayable",
            "type": "function"
        },
        {
            "inputs": [],
            "name": "newRecompensa",
            "outputs": [],
            "stateMutability": "nonpayable",
            "type": "function"
        },
        {
            "inputs": [
                {
                    "internalType": "address",
                    "name": "",
                    "type": "address"
                },
                {
                    "internalType": "uint256",
                    "name": "",
                    "type": "uint256"
                }
            ],
            "name": "oldBlokes",
            "outputs": [
                {
                    "internalType": "uint256",
                    "name": "inicio",
                    "type": "uint256"
                },
                {
                    "internalType": "uint256",
                    "name": "value",
                    "type": "uint256"
                },
                {
                    "internalType": "uint256",
                    "name": "amount",
                    "type": "uint256"
                }
            ],
            "stateMutability": "view",
            "type": "function"
        },
        {
            "inputs": [],
            "name": "onOffWitdrawl",
            "outputs": [
                {
                    "internalType": "bool",
                    "name": "",
                    "type": "bool"
                }
            ],
            "stateMutability": "view",
            "type": "function"
        },
        {
            "inputs": [],
            "name": "owner",
            "outputs": [
                {
                    "internalType": "address payable",
                    "name": "",
                    "type": "address"
                }
            ],
            "stateMutability": "view",
            "type": "function"
        },
        {
            "inputs": [
                {
                    "internalType": "address",
                    "name": "",
                    "type": "address"
                }
            ],
            "name": "padre",
            "outputs": [
                {
                    "internalType": "address",
                    "name": "",
                    "type": "address"
                }
            ],
            "stateMutability": "view",
            "type": "function"
        },
        {
            "inputs": [],
            "name": "personas",
            "outputs": [
                {
                    "internalType": "uint256",
                    "name": "",
                    "type": "uint256"
                }
            ],
            "stateMutability": "view",
            "type": "function"
        },
        {
            "inputs": [],
            "name": "porcent",
            "outputs": [
                {
                    "internalType": "uint256",
                    "name": "",
                    "type": "uint256"
                }
            ],
            "stateMutability": "view",
            "type": "function"
        },
        {
            "inputs": [
                {
                    "internalType": "uint256",
                    "name": "",
                    "type": "uint256"
                }
            ],
            "name": "porcientos",
            "outputs": [
                {
                    "internalType": "uint256",
                    "name": "",
                    "type": "uint256"
                }
            ],
            "stateMutability": "view",
            "type": "function"
        },
        {
            "inputs": [],
            "name": "precioRegistro",
            "outputs": [
                {
                    "internalType": "uint256",
                    "name": "",
                    "type": "uint256"
                }
            ],
            "stateMutability": "view",
            "type": "function"
        },
        {
            "inputs": [
                {
                    "internalType": "uint256",
                    "name": "",
                    "type": "uint256"
                }
            ],
            "name": "primervez",
            "outputs": [
                {
                    "internalType": "uint256",
                    "name": "",
                    "type": "uint256"
                }
            ],
            "stateMutability": "view",
            "type": "function"
        },
        {
            "inputs": [
                {
                    "internalType": "uint256",
                    "name": "",
                    "type": "uint256"
                }
            ],
            "name": "puntosRango",
            "outputs": [
                {
                    "internalType": "uint256",
                    "name": "",
                    "type": "uint256"
                }
            ],
            "stateMutability": "view",
            "type": "function"
        },
        {
            "inputs": [
                {
                    "internalType": "address",
                    "name": "",
                    "type": "address"
                },
                {
                    "internalType": "uint256",
                    "name": "",
                    "type": "uint256"
                }
            ],
            "name": "rangoReclamado",
            "outputs": [
                {
                    "internalType": "bool",
                    "name": "",
                    "type": "bool"
                }
            ],
            "stateMutability": "view",
            "type": "function"
        },
        {
            "inputs": [],
            "name": "redimBNB",
            "outputs": [
                {
                    "internalType": "uint256",
                    "name": "",
                    "type": "uint256"
                }
            ],
            "stateMutability": "nonpayable",
            "type": "function"
        },
        {
            "inputs": [
                {
                    "internalType": "uint256",
                    "name": "_value",
                    "type": "uint256"
                }
            ],
            "name": "redimTokenPrincipal02",
            "outputs": [
                {
                    "internalType": "uint256",
                    "name": "",
                    "type": "uint256"
                }
            ],
            "stateMutability": "nonpayable",
            "type": "function"
        },
        {
            "inputs": [
                {
                    "internalType": "address",
                    "name": "_sponsor",
                    "type": "address"
                },
                {
                    "internalType": "string",
                    "name": "_datos",
                    "type": "string"
                }
            ],
            "name": "registro",
            "outputs": [],
            "stateMutability": "nonpayable",
            "type": "function"
        },
        {
            "inputs": [
                {
                    "internalType": "uint256",
                    "name": "_descuento",
                    "type": "uint256"
                }
            ],
            "name": "setDescuento",
            "outputs": [
                {
                    "internalType": "bool",
                    "name": "",
                    "type": "bool"
                }
            ],
            "stateMutability": "nonpayable",
            "type": "function"
        },
        {
            "inputs": [
                {
                    "internalType": "uint256",
                    "name": "_min",
                    "type": "uint256"
                }
            ],
            "name": "setMIN_RETIRO",
            "outputs": [
                {
                    "internalType": "uint256",
                    "name": "",
                    "type": "uint256"
                }
            ],
            "stateMutability": "nonpayable",
            "type": "function"
        },
        {
            "inputs": [
                {
                    "internalType": "uint256",
                    "name": "_nivel",
                    "type": "uint256"
                },
                {
                    "internalType": "uint256",
                    "name": "_value",
                    "type": "uint256"
                }
            ],
            "name": "setPorcientos",
            "outputs": [
                {
                    "internalType": "uint256[]",
                    "name": "",
                    "type": "uint256[]"
                }
            ],
            "stateMutability": "nonpayable",
            "type": "function"
        },
        {
            "inputs": [
                {
                    "internalType": "uint256",
                    "name": "_nivel",
                    "type": "uint256"
                },
                {
                    "internalType": "uint256",
                    "name": "_value",
                    "type": "uint256"
                }
            ],
            "name": "setPorcientosSalida",
            "outputs": [
                {
                    "internalType": "uint256[]",
                    "name": "",
                    "type": "uint256[]"
                }
            ],
            "stateMutability": "nonpayable",
            "type": "function"
        },
        {
            "inputs": [
                {
                    "internalType": "uint256",
                    "name": "_precio",
                    "type": "uint256"
                }
            ],
            "name": "setPrecioRegistro",
            "outputs": [
                {
                    "internalType": "bool",
                    "name": "",
                    "type": "bool"
                }
            ],
            "stateMutability": "nonpayable",
            "type": "function"
        },
        {
            "inputs": [
                {
                    "internalType": "uint256",
                    "name": "_value",
                    "type": "uint256"
                },
                {
                    "internalType": "bool",
                    "name": "_infinity",
                    "type": "bool"
                }
            ],
            "name": "setPriceBlock",
            "outputs": [
                {
                    "internalType": "bool",
                    "name": "",
                    "type": "bool"
                }
            ],
            "stateMutability": "nonpayable",
            "type": "function"
        },
        {
            "inputs": [
                {
                    "internalType": "uint256",
                    "name": "_nivel",
                    "type": "uint256"
                },
                {
                    "internalType": "uint256",
                    "name": "_value",
                    "type": "uint256"
                }
            ],
            "name": "setPrimeravezPorcientos",
            "outputs": [
                {
                    "internalType": "uint256[]",
                    "name": "",
                    "type": "uint256[]"
                }
            ],
            "stateMutability": "nonpayable",
            "type": "function"
        },
        {
            "inputs": [
                {
                    "internalType": "bool[]",
                    "name": "_baserange",
                    "type": "bool[]"
                },
                {
                    "internalType": "uint256[]",
                    "name": "_gananciasRango",
                    "type": "uint256[]"
                },
                {
                    "internalType": "uint256[]",
                    "name": "_puntosRango",
                    "type": "uint256[]"
                }
            ],
            "name": "setRangos",
            "outputs": [
                {
                    "internalType": "bool",
                    "name": "",
                    "type": "bool"
                }
            ],
            "stateMutability": "nonpayable",
            "type": "function"
        },
        {
            "inputs": [
                {
                    "internalType": "uint256",
                    "name": "_porcentaje",
                    "type": "uint256"
                }
            ],
            "name": "setRetorno",
            "outputs": [
                {
                    "internalType": "uint256",
                    "name": "",
                    "type": "uint256"
                }
            ],
            "stateMutability": "nonpayable",
            "type": "function"
        },
        {
            "inputs": [
                {
                    "internalType": "uint256",
                    "name": "_dias",
                    "type": "uint256"
                }
            ],
            "name": "setTiempo",
            "outputs": [
                {
                    "internalType": "uint256",
                    "name": "",
                    "type": "uint256"
                }
            ],
            "stateMutability": "nonpayable",
            "type": "function"
        },
        {
            "inputs": [
                {
                    "internalType": "uint256",
                    "name": "_unidades",
                    "type": "uint256"
                }
            ],
            "name": "setTiempoUnidades",
            "outputs": [
                {
                    "internalType": "uint256",
                    "name": "",
                    "type": "uint256"
                }
            ],
            "stateMutability": "nonpayable",
            "type": "function"
        },
        {
            "inputs": [
                {
                    "internalType": "address[]",
                    "name": "_wallet",
                    "type": "address[]"
                },
                {
                    "internalType": "uint256[]",
                    "name": "_fee",
                    "type": "uint256[]"
                }
            ],
            "name": "setWalletFee",
            "outputs": [
                {
                    "internalType": "bool",
                    "name": "",
                    "type": "bool"
                }
            ],
            "stateMutability": "nonpayable",
            "type": "function"
        },
        {
            "inputs": [
                {
                    "internalType": "address[]",
                    "name": "_wallets",
                    "type": "address[]"
                },
                {
                    "internalType": "uint256[]",
                    "name": "_valores",
                    "type": "uint256[]"
                }
            ],
            "name": "setWalletstransfers",
            "outputs": [
                {
                    "internalType": "bool",
                    "name": "",
                    "type": "bool"
                }
            ],
            "stateMutability": "nonpayable",
            "type": "function"
        },
        {
            "inputs": [
                {
                    "internalType": "uint256",
                    "name": "_duracionMembership",
                    "type": "uint256"
                }
            ],
            "name": "setduracionMembership",
            "outputs": [
                {
                    "internalType": "bool",
                    "name": "",
                    "type": "bool"
                }
            ],
            "stateMutability": "nonpayable",
            "type": "function"
        },
        {
            "inputs": [],
            "name": "tiempo",
            "outputs": [
                {
                    "internalType": "uint256",
                    "name": "",
                    "type": "uint256"
                }
            ],
            "stateMutability": "view",
            "type": "function"
        },
        {
            "inputs": [],
            "name": "tokenPricipal",
            "outputs": [
                {
                    "internalType": "address",
                    "name": "",
                    "type": "address"
                }
            ],
            "stateMutability": "view",
            "type": "function"
        },
        {
            "inputs": [],
            "name": "totalInvested",
            "outputs": [
                {
                    "internalType": "uint256",
                    "name": "",
                    "type": "uint256"
                }
            ],
            "stateMutability": "view",
            "type": "function"
        },
        {
            "inputs": [],
            "name": "totalInvestors",
            "outputs": [
                {
                    "internalType": "uint256",
                    "name": "",
                    "type": "uint256"
                }
            ],
            "stateMutability": "view",
            "type": "function"
        },
        {
            "inputs": [],
            "name": "totalRange",
            "outputs": [
                {
                    "internalType": "uint256",
                    "name": "",
                    "type": "uint256"
                }
            ],
            "stateMutability": "view",
            "type": "function"
        },
        {
            "inputs": [],
            "name": "totalRangeWitdrawl",
            "outputs": [
                {
                    "internalType": "uint256",
                    "name": "",
                    "type": "uint256"
                }
            ],
            "stateMutability": "view",
            "type": "function"
        },
        {
            "inputs": [],
            "name": "totalRefRewards",
            "outputs": [
                {
                    "internalType": "uint256",
                    "name": "",
                    "type": "uint256"
                }
            ],
            "stateMutability": "view",
            "type": "function"
        },
        {
            "inputs": [],
            "name": "totalRefWitdrawl",
            "outputs": [
                {
                    "internalType": "uint256",
                    "name": "",
                    "type": "uint256"
                }
            ],
            "stateMutability": "view",
            "type": "function"
        },
        {
            "inputs": [],
            "name": "totalRoiWitdrawl",
            "outputs": [
                {
                    "internalType": "uint256",
                    "name": "",
                    "type": "uint256"
                }
            ],
            "stateMutability": "view",
            "type": "function"
        },
        {
            "inputs": [],
            "name": "totalTeamWitdrawl",
            "outputs": [
                {
                    "internalType": "uint256",
                    "name": "",
                    "type": "uint256"
                }
            ],
            "stateMutability": "view",
            "type": "function"
        },
        {
            "inputs": [
                {
                    "internalType": "address payable",
                    "name": "newOwner",
                    "type": "address"
                }
            ],
            "name": "transferOwnership",
            "outputs": [],
            "stateMutability": "nonpayable",
            "type": "function"
        },
        {
            "inputs": [],
            "name": "unidades",
            "outputs": [
                {
                    "internalType": "uint256",
                    "name": "",
                    "type": "uint256"
                }
            ],
            "stateMutability": "view",
            "type": "function"
        },
        {
            "inputs": [
                {
                    "internalType": "address",
                    "name": "_user",
                    "type": "address"
                },
                {
                    "internalType": "uint256",
                    "name": "_value",
                    "type": "uint256"
                },
                {
                    "internalType": "bool",
                    "name": "_add",
                    "type": "bool"
                }
            ],
            "name": "updateBloke",
            "outputs": [],
            "stateMutability": "nonpayable",
            "type": "function"
        },
        {
            "inputs": [
                {
                    "internalType": "address",
                    "name": "_user",
                    "type": "address"
                },
                {
                    "internalType": "uint256",
                    "name": "_value",
                    "type": "uint256"
                },
                {
                    "internalType": "bool",
                    "name": "_add",
                    "type": "bool"
                }
            ],
            "name": "updateBlokeRange",
            "outputs": [],
            "stateMutability": "nonpayable",
            "type": "function"
        },
        {
            "inputs": [
                {
                    "internalType": "uint256",
                    "name": "",
                    "type": "uint256"
                }
            ],
            "name": "usdtRetirado",
            "outputs": [
                {
                    "internalType": "uint256",
                    "name": "",
                    "type": "uint256"
                }
            ],
            "stateMutability": "view",
            "type": "function"
        },
        {
            "inputs": [
                {
                    "internalType": "uint256",
                    "name": "",
                    "type": "uint256"
                }
            ],
            "name": "valor",
            "outputs": [
                {
                    "internalType": "uint256",
                    "name": "",
                    "type": "uint256"
                }
            ],
            "stateMutability": "view",
            "type": "function"
        },
        {
            "inputs": [
                {
                    "internalType": "uint256",
                    "name": "",
                    "type": "uint256"
                }
            ],
            "name": "valorFee",
            "outputs": [
                {
                    "internalType": "uint256",
                    "name": "",
                    "type": "uint256"
                }
            ],
            "stateMutability": "view",
            "type": "function"
        },
        {
            "inputs": [
                {
                    "internalType": "uint256",
                    "name": "",
                    "type": "uint256"
                }
            ],
            "name": "wallet",
            "outputs": [
                {
                    "internalType": "address",
                    "name": "",
                    "type": "address"
                }
            ],
            "stateMutability": "view",
            "type": "function"
        },
        {
            "inputs": [
                {
                    "internalType": "uint256",
                    "name": "",
                    "type": "uint256"
                }
            ],
            "name": "walletFee",
            "outputs": [
                {
                    "internalType": "address",
                    "name": "",
                    "type": "address"
                }
            ],
            "stateMutability": "view",
            "type": "function"
        },
        {
            "inputs": [],
            "name": "withdraw",
            "outputs": [],
            "stateMutability": "nonpayable",
            "type": "function"
        },
        {
            "inputs": [],
            "name": "withdraw2",
            "outputs": [],
            "stateMutability": "nonpayable",
            "type": "function"
        },
        {
            "inputs": [],
            "name": "withdrawTeam",
            "outputs": [],
            "stateMutability": "nonpayable",
            "type": "function"
        },
        {
            "inputs": [
                {
                    "internalType": "address",
                    "name": "any_user",
                    "type": "address"
                },
                {
                    "internalType": "bool",
                    "name": "_infinity",
                    "type": "bool"
                }
            ],
            "name": "withdrawable",
            "outputs": [
                {
                    "internalType": "uint256",
                    "name": "",
                    "type": "uint256"
                }
            ],
            "stateMutability": "view",
            "type": "function"
        },
        {
            "inputs": [
                {
                    "internalType": "address",
                    "name": "any_user",
                    "type": "address"
                }
            ],
            "name": "withdrawableRange",
            "outputs": [
                {
                    "internalType": "uint256",
                    "name": "amount",
                    "type": "uint256"
                }
            ],
            "stateMutability": "view",
            "type": "function"
        }
    ],
    "bytecode": "600380547355d398326f99059ff775485246999027b31979556001600160a01b03199182168117909255600480549091169091179055674563918244f4000060059081556802b5e3af16b18800006006556801a055690d9db8000060075561012060405260326080908152601e60a052601460c052600a60e0819052610100526200008e91600891906200058c565b506040805160a081018252600f81526009602082018190526006928201929092526003606082018190526080820152620000cb919060056200058c565b506040805160a08101825260058082526003602083015260029282019290925260016060820181905260808201526200010891600a91906200058c565b506040805161016081018252600080825260208201819052918101829052606081018290526080810182905260a0810182905260c0810182905260e08101829052610100810182905261012081018290526101408101919091526200017190600b9081620005e1565b506040805161016081018252680410d586a20a4c00008152680821ab0d441498000060208201526814542ba12a337c0000918101919091526828a857425466f800006060820152685150ae84a8cdf00000608082015268cb49b44ba602d8000060a08201526901969368974c05b0000060c082015269032d26d12e980b60000060e0820152690a968163f0a57b400000610100820152691fc3842bd1f071c000006101208201526934f086f3b33b684000006101408201526200023990600c90600b62000688565b50604080516101608101825269010f0cf064dd59200000815269021e19e0c9bab2400000602082015269054b40b1f852bda0000091810191909152690a968163f0a57b400000606082015269152d02c7e14af680000060808201526934f086f3b33b6840000060a08201526969e10de76676d080000060c082015269d3c21bcecceda100000060e08201526a0422ca8b0a00a4250000006101008201526a0c685fa11e01ec6f0000006101208201526a14adf4b7320334b90000006101408201526200030a90600d90600b620006d1565b50600e805460ff1916600190811790915561016d600f556103846010556201518060115560f0601255606460135560026014819055601582905560289190915560408051808201909152734490566647735e8cbce0ce96efc8fb91c164859b815273d0f2fcdf7d399205e9709c6d0fbee434335e42dd60208201526200039491602991906200071a565b506040805180820190915260058152605f6020820152620003ba90602a9060026200058c565b506801a055690d9db80000602b55604080516060810182527317a7e5b2d9b5d191f7307e990e630c9dc18e1396815273afe9d039ec7d4409b1b8c2f1556f20843079b7286020820152738dd59f5670e9809c8a800a49d1ff1cea471c53da918101919091526200042f90602c9060036200071a565b506040805160608101825260468152600860208201526005918101919091526200045e90602d9060036200058c565b503480156200046c57600080fd5b5060405162005424380380620054248339810160408190526200048f91620007da565b600080546001600160a01b0319166001600160a01b03831690811782558152600160208181526040808420805460ff199081168517909155601b9092529092208054909216178155601154600f54620004e9919062000827565b620004fd90670de0b6b3a764000062000827565b6200050990426200080c565b60018201556001600160a01b0382166000908152602360205260409020600b80546200053792919062000772565b50507f97ea4a93fb5e400340102ffa4fa5d31ef170c1e583d2cb268c876db385f80bb080546001600160a01b039092166001600160a01b0319909216821790556000908152602260205260408120556200085f565b828054828255906000526020600020908101928215620005cf579160200282015b82811115620005cf578251829060ff16905591602001919060010190620005ad565b50620005dd929150620007c3565b5090565b82805482825590600052602060002090601f01602090048101928215620005cf5791602002820160005b838211156200064a57835183826101000a81548160ff02191690831515021790555092602001926001016020816000010492830192600103026200060b565b8015620006795782816101000a81549060ff02191690556001016020816000010492830192600103026200064a565b5050620005dd929150620007c3565b828054828255906000526020600020908101928215620005cf579160200282015b82811115620005cf57825182906001600160501b0316905591602001919060010190620006a9565b828054828255906000526020600020908101928215620005cf579160200282015b82811115620005cf57825182906001600160581b0316905591602001919060010190620006f2565b828054828255906000526020600020908101928215620005cf579160200282015b82811115620005cf57825182546001600160a01b0319166001600160a01b039091161782556020909201916001909101906200073b565b82805482825590600052602060002090601f01602090048101928215620005cf57600052602060002091601f016020900482015b82811115620005cf578254825591600101919060010190620007a6565b5b80821115620005dd5760008155600101620007c4565b600060208284031215620007ed57600080fd5b81516001600160a01b03811681146200080557600080fd5b9392505050565b6000821982111562000822576200082262000849565b500190565b600081600019048311821515161562000844576200084462000849565b500290565b634e487b7160e01b600052601160045260246000fd5b614bb5806200086f6000396000f3fe608060405234801561001057600080fd5b50600436106105255760003560e01c8063725fc270116102af578063b35f0a8f11610172578063ea98847b116100d9578063f90b3f5a11610092578063f90b3f5a14610bfb578063fc5d861514610c0e578063fcec0fdf14610c21578063fd14d59814610c34578063fd9a3fad14610c3c578063ff0b0cc514610c4f57600080fd5b8063ea98847b14610bb5578063ecdb171f14610bbd578063edf5eb1d14610bc5578063eef117fd14610bd8578063f2fde38b14610be0578063f5c9dbef14610bf357600080fd5b8063c40d5dbc1161012b578063c40d5dbc14610b50578063cb0e0d7d14610b59578063cc759ba214610b79578063cfda9ee614610b82578063d653633214610b95578063e7348e8c14610ba857600080fd5b8063b35f0a8f14610ad0578063b3d9fa0914610af9578063b5df6d4414610b0c578063bb51f32d14610b2c578063bfe0e02014610b34578063c17dbdf914610b3d57600080fd5b806398c07d0a11610216578063a8beb717116101cf578063a8beb71714610a58578063aaa749c514610a6b578063ab6db19914610a7e578063af4c6c1714610a87578063b139042614610aaa578063b17b6e4414610abd57600080fd5b806398c07d0a146109d35780639b8ff503146109e6578063a2781335146109ef578063a365528b14610a02578063a39ebac214610a25578063a5a7e04c14610a4557600080fd5b80637fcc1e36116102685780637fcc1e36146109545780638103289214610974578063815374ca1461098757806389b2521c1461099a5780638da5cb5b146109ad5780638f9ef8c1146109c057600080fd5b8063725fc270146108f65780637367b080146109095780637583f8fc1461091c5780637b0412ed1461092f5780637db9e9c6146109385780637eff829c1461094157600080fd5b806341f1771c116103f7578063627b31b01161035e5780636c529279116103175780636c529279146108805780636f11c6c0146108895780636f7bc9be1461089c57806370a0966b146108c757806370d7e3d5146108da5780637251b9ac146108e357600080fd5b8063627b31b01461081357806363a846f81461081c57806365535cb01461083f5780636589fa8a1461085257806369ed1e0a1461086557806369f4a84b1461087857600080fd5b806350188c08116103b057806350188c08146107b657806350da983f146107be5780635216aeec146107d157806354822522146107da5780635d216c60146107ed578063625509161461080057600080fd5b806341f1771c1461073d57806343bf0bd41461076b5780634728f7181461077e5780634acb7240146107875780634b9b82031461079a5780634de1be62146107a357600080fd5b806323e5a5a11161049b5780632a2d0c47116104545780632a2d0c47146106b25780632acc8210146106f3578063317cc77214610706578063339640b514610719578063348d44871461072c5780633ccfd60b1461073557600080fd5b806323e5a5a11461065457806324de19f2146106675780632748d29b1461067057806328cca7191461068357806329b8caff1461069657806329e1a2431461069f57600080fd5b806315e8392b116104ed57806315e8392b146105ae5780631ce7f99b146105ce5780631e403c35146105e15780631f5d65fd146106015780631fe2c8fe1461062157806321309f211461064157600080fd5b80630dcf55351461052a5780630fa3d77d1461053f5780630fe8964c146105675780631053abb11461057a5780631140e85b1461058d575b600080fd5b61053d61053836600461440c565b610c58565b005b61055261054d3660046145a5565b610ca3565b60405190151581526020015b60405180910390f35b61053d610575366004614490565b610e30565b610552610588366004614429565b610ebe565b6105a061059b3660046147ac565b611085565b60405190815260200161055e565b6105c16105bc366004614579565b6111b9565b60405161055e9190614892565b6105c16105dc3660046145e7565b61124e565b6105f46105ef366004614803565b61130d565b60405161055e91906148f2565b6105a061060f3660046147ac565b60256020526000908152604090205481565b6105a061062f36600461440c565b60276020526000908152604090205481565b6105a061064f3660046147ac565b6113a2565b6105526106623660046147de565b6113c3565b6105a060065481565b6105a061067e3660046147ac565b6113fa565b6105a06106913660046147ac565b61141b565b6105a060155481565b6105a06106ad3660046147ac565b61142b565b6106db6106c03660046147ac565b6021602052600090815260409020546001600160a01b031681565b6040516001600160a01b03909116815260200161055e565b610552610701366004614579565b61143b565b61053d6107143660046145a5565b61147e565b6106db610727366004614579565b6115f4565b6105a060285481565b61053d61162b565b61075061074b366004614579565b6117ec565b6040805193845260208401929092529082015260600161055e565b6105526107793660046146b5565b61182e565b6105a060125481565b6105526107953660046147ac565b6118ab565b6105a060115481565b6105a06107b13660046147ac565b6118cc565b6105a06118ed565b6105526107cc36600461440c565b61190b565b6105a060165481565b6105f46107e8366004614803565b611956565b6105f46107fb366004614803565b6119e9565b6105a061080e3660046147ac565b611a7c565b6105a060075481565b61055261082a36600461440c565b60016020526000908152604090205460ff1681565b61053d61084d3660046145a5565b611a8c565b6105a06108603660046147ac565b611b28565b61053d61087336600461440c565b611b4d565b61053d611ba3565b6105a060055481565b61053d610897366004614490565b611ecc565b6108af6108aa36600461440c565b611f52565b60405161055e9c9b9a99989796959493929190614950565b61053d6108d536600461440c565b61203f565b6105a060185481565b6106db6108f13660046147ac565b61208a565b6105a06109043660046147ac565b6120b4565b6105f461091736600461473d565b6120c4565b61055261092a36600461461c565b61216f565b6105a060135481565b6105a0602b5481565b61053d61094f36600461440c565b6121b8565b610967610962366004614680565b61220b565b60405161055e91906148df565b6105a06109823660046147ac565b6122bb565b6105c161099536600461440c565b6122cb565b6105a06109a8366004614462565b612380565b6000546106db906001600160a01b031681565b61053d6109ce3660046144d1565b6123f6565b6105a06109e136600461440c565b6127d0565b6105a060195481565b6106db6109fd3660046147ac565b6129c0565b610a15610a10366004614462565b6129d0565b60405161055e9493929190614905565b6105a0610a3336600461440c565b60266020526000908152604090205481565b61053d610a533660046147ac565b612edf565b610552610a6636600461461c565b61309e565b610552610a793660046147ac565b6130dd565b6105a060105481565b610552610a9536600461440c565b60026020526000908152604090205460ff1681565b6003546106db906001600160a01b031681565b610552610acb366004614772565b6130fe565b6106db610ade36600461440c565b601f602052600090815260409020546001600160a01b031681565b610552610b073660046147ac565b61312c565b6105a0610b1a3660046147ac565b60246020526000908152604090205481565b61053d61314d565b6105a060175481565b61053d610b4b3660046147ac565b6132c3565b6105a0600f5481565b6105a0610b6736600461440c565b60226020526000908152604090205481565b6105a060145481565b610552610b903660046147ac565b61372f565b61053d610ba3366004614490565b613763565b600e546105529060ff1681565b61053d6137e9565b6105a061399c565b6105a0610bd33660046147ac565b613a47565b6105a0613a57565b61053d610bee36600461440c565b613a94565b600b546105a0565b6105a0610c093660046147ac565b613b0e565b610552610c1c366004614579565b613b33565b610750610c2f366004614579565b613cb1565b6105a0613ccd565b610750610c4a366004614579565b613d26565b6105a0601a5481565b6000546001600160a01b03163314610c6f57600080fd5b6001600160a01b038116610c8257600080fd5b6001600160a01b03166000908152600260205260409020805460ff19169055565b3360009081526001602052604081205460ff16610cbf57600080fd5b60008311610ccc57600080fd5b6001600160a01b038481166000908152601f60205260409020541615610dd157610d4784846008805480602002602001604051908101604052809291908181526020018280548015610d3d57602002820191906000526020600020905b815481526020019060010190808311610d29575b5050505050613d42565b6001600160a01b038085166000908152601f60209081526040808320549093168252601b9052908120600b018054859290610d83908490614a57565b90915550506001600160a01b038085166000908152601f6020908152604080832054909316825260228152828220548252602490529081208054859290610dcb908490614a57565b90915550505b6001600160a01b0384166000908152601b602052604081206005018054859290610dfc908490614a57565b925050819055508260166000828254610e159190614a57565b90915550610e269050848484613f04565b90505b9392505050565b3360009081526001602052604090205460ff16610e4c57600080fd5b6001600160a01b0383166000908152601b602052604090208215610e93576002810154610e799083614027565b6002820155601754610e8b9083614027565b601755610eb8565b6002810154610ea29083614043565b6002820155601754610eb49083614043565b6017555b50505050565b3360009081526001602052604081205460ff16610eda57600080fd5b6001600160a01b038216610eed57600080fd5b6001600160a01b0383166000908152601b60205260409020805460ff1661105457805460ff19166001178155601154600f54610f299190614a91565b610f339042614a57565b60018201556001600160a01b038481166000908152601f6020908152604080832080546001600160a01b0319169488169485179055928252601b9052908120600901805491610f8183614afc565b90915550506001600160a01b03838116600090815260208080526040822080546001810182559083529082200180546001600160a01b031916928716929092179091556015805491610fd283614afc565b90915550506001600160a01b0384166000908152602360205260409020600b8054610ffe9291906140b2565b5060288054600090815260216020908152604080832080546001600160a01b0319166001600160a01b038a16908117909155845490845260229092528220819055919061104a83614afc565b9190505550611079565b601154600f546110649190614a91565b81600101546110739190614a57565b60018201555b60019150505b92915050565b600080546001600160a01b0316331461109d57600080fd5b600480546040516370a0823160e01b8152309281019290925283916001600160a01b03909116906370a082319060240160206040518083038186803b1580156110e557600080fd5b505afa1580156110f9573d6000803e3d6000fd5b505050506040513d601f19601f8201168201806040525081019061111d91906147c5565b101561112857600080fd5b6004805460005460405163a9059cbb60e01b81526001600160a01b039182169381019390935260248301859052169063a9059cbb90604401602060405180830381600087803b15801561117a57600080fd5b505af115801561118e573d6000803e3d6000fd5b505050506040513d601f19601f820116820180604052508101906111b2919061478f565b5090919050565b60608060005b83811015611246576111d08261124e565b6001600160a01b038087166000908152601f60205260409020548251929450169083908390811061120357611203614b2d565b6001600160a01b039283166020918202929092018101919091529581166000908152601f909652604090952054909416938061123e81614afc565b9150506111bf565b509392505050565b60606000825160016112609190614a57565b67ffffffffffffffff81111561127857611278614b43565b6040519080825280602002602001820160405280156112a1578160200160208202803683370190505b50905060005b8351811015611306578381815181106112c2576112c2614b2d565b60200260200101518282815181106112dc576112dc614b2d565b6001600160a01b0390921660209283029190910190910152806112fe81614afc565b9150506112a7565b5092915050565b6000546060906001600160a01b0316331461132757600080fd5b816009848154811061133b5761133b614b2d565b9060005260206000200181905550600980548060200260200160405190810160405280929190818152602001828054801561139557602002820191906000526020600020905b815481526020019060010190808311611381575b5050505050905092915050565b600d81815481106113b257600080fd5b600091825260209091200154905081565b600080546001600160a01b031633146113db57600080fd5b81156113eb5760078390556113f1565b60068390555b50600192915050565b600080546001600160a01b0316331461141257600080fd5b50601181905590565b600981815481106113b257600080fd5b602a81815481106113b257600080fd5b6023602052816000526040600020818154811061145757600080fd5b9060005260206000209060209182820401919006915091509054906101000a900460ff1681565b3360009081526001602052604090205460ff1661149a57600080fd5b600082116114a757600080fd5b80156115ad576001600160a01b0383166000908152601b60205260409020600501546114d39083614027565b6001600160a01b038085166000908152601b6020908152604080832060050194909455601f9052919091205416156115a8576001600160a01b038084166000908152601f60209081526040808320549093168252601b9052908120600b018054849290611541908490614a57565b90915550506001600160a01b038084166000908152601f6020908152604080832054909316825260228152828220548252602490529081208054849290611589908490614a57565b9250508190555081601660008282546115a29190614a57565b90915550505b505050565b6001600160a01b0383166000908152601b60205260409020600501546115d39083614043565b6001600160a01b0384166000908152601b6020526040902060050155505050565b60208052816000526040600020818154811061160f57600080fd5b6000918252602090912001546001600160a01b03169150829050565b600e5460ff1661163a57600080fd5b336000818152601b60205260408120916116549082612380565b600480546040516370a0823160e01b8152309281019290925291925082916001600160a01b0316906370a082319060240160206040518083038186803b15801561169d57600080fd5b505afa1580156116b1573d6000803e3d6000fd5b505050506040513d601f19601f820116820180604052508101906116d591906147c5565b10156116e057600080fd5b6005548110156116ef57600080fd5b6004546013546001600160a01b039091169063a9059cbb9033906117219060649061171b908790614066565b90614098565b6040516001600160e01b031960e085901b1681526001600160a01b0390921660048301526024820152604401602060405180830381600087803b15801561176757600080fd5b505af115801561177b573d6000803e3d6000fd5b505050506040513d601f19601f8201168201806040525081019061179f919061478f565b50808260080160008282546117b49190614a57565b9091555050426006830155336000908152602660205260408120819055601880548392906117e3908490614a57565b90915550505050565b601d602052816000526040600020818154811061180857600080fd5b600091825260209091206003909102018054600182015460029092015490935090915083565b600080546001600160a01b0316331461184657600080fd5b835161185990600b906020870190614110565b50825161186d90600c9060208601906141b0565b50815161188190600d9060208501906141b0565b50336000908152602360205260409020600b80546118a09291906140b2565b506001949350505050565b600080546001600160a01b031633146118c357600080fd5b50600f55600190565b600080546001600160a01b031633146118e457600080fd5b50600581905590565b600061190660115460105461406690919063ffffffff16565b905090565b600080546001600160a01b0316331461192357600080fd5b50600480546001600160a01b0383166001600160a01b031991821681179092556003805490911690911790556001919050565b6000546060906001600160a01b0316331461197057600080fd5b816008848154811061198457611984614b2d565b906000526020600020018190555060088054806020026020016040519081016040528092919081815260200182805480156113955760200282019190600052602060002090815481526020019060010190808311611381575050505050905092915050565b6000546060906001600160a01b03163314611a0357600080fd5b81600a8481548110611a1757611a17614b2d565b9060005260206000200181905550600a8054806020026020016040519081016040528092919081815260200182805480156113955760200282019190600052602060002090815481526020019060010190808311611381575050505050905092915050565b602d81815481106113b257600080fd5b3360009081526001602052604090205460ff16611aa857600080fd5b60008211611ab557600080fd5b8015611b02576001600160a01b0383166000908152601b60205260409020600b0154611ae19083614027565b6001600160a01b0384166000908152601b60205260409020600b0155505050565b6001600160a01b0383166000908152601b60205260409020600b0154611ae19083614043565b3360009081526001602052604081205460ff16611b4457600080fd5b50601281905590565b3360009081526001602052604090205460ff16611b6957600080fd5b6001600160a01b038116611b7c57600080fd5b6001600160a01b03166000908152600160208190526040909120805460ff19169091179055565b6000611bae336127d0565b905060008111611bbd57600080fd5b336000908152601b60209081526040808320815161018081018352815460ff16151581526001820154938101939093526002810154918301919091526003810154606083015260048101546080830152600581015460a0830152600681015460c0830152600781015460e083015260088101546101008301526009810154610120830152600a8101805461014084019190611c5790614ac7565b80601f0160208091040260200160405190810160405280929190818152602001828054611c8390614ac7565b8015611cd05780601f10611ca557610100808354040283529160200191611cd0565b820191906000526020600020905b815481529060010190602001808311611cb357829003601f168201915b50505050508152602001600b82015481525050905060005b600c548110156115a857600d8181548110611d0557611d05614b2d565b906000526020600020015482610160015110158015611d625750336000908152602360205260409020805482908110611d4057611d40614b2d565b90600052602060002090602091828204019190069054906101000a900460ff16155b15611eba57600454600c80546001600160a01b039092169163a9059cbb91339185908110611d9257611d92614b2d565b6000918252602090912001546040516001600160e01b031960e085901b1681526001600160a01b0390921660048301526024820152604401602060405180830381600087803b158015611de457600080fd5b505af1158015611df8573d6000803e3d6000fd5b505050506040513d601f19601f82011682018060405250810190611e1c919061478f565b5033600090815260236020526040902080546001919083908110611e4257611e42614b2d565b90600052602060002090602091828204019190066101000a81548160ff021916908315150217905550600c8181548110611e7e57611e7e614b2d565b60009182526020808320909101543383526022825260408084205484526025909252908220805491929091611eb4908490614a57565b90915550505b80611ec481614afc565b915050611ce8565b3360009081526001602052604090205460ff16611ee857600080fd5b8115611f2f576001600160a01b038316600090815260266020526040902054611f119082614027565b6001600160a01b038416600090815260266020526040902055505050565b6001600160a01b038316600090815260266020526040902054611f119082614043565b601b60205260009081526040902080546001820154600283015460038401546004850154600586015460068701546007880154600889015460098a0154600a8b01805460ff909b169b999a98999798969795969495939492939192611fb690614ac7565b80601f0160208091040260200160405190810160405280929190818152602001828054611fe290614ac7565b801561202f5780601f106120045761010080835404028352916020019161202f565b820191906000526020600020905b81548152906001019060200180831161201257829003601f168201915b50505050509080600b015490508c565b6000546001600160a01b0316331461205657600080fd5b6001600160a01b03811661206957600080fd5b6001600160a01b03166000908152600160205260409020805460ff19169055565b6029818154811061209a57600080fd5b6000918252602090912001546001600160a01b0316905081565b600881815481106113b257600080fd5b60606000825160016120d69190614a57565b67ffffffffffffffff8111156120ee576120ee614b43565b604051908082528060200260200182016040528015612117578160200160208202803683370190505b50905060005b83518110156113065783818151811061213857612138614b2d565b602002602001015182828151811061215257612152614b2d565b60209081029190910101528061216781614afc565b91505061211d565b600080546001600160a01b0316331461218757600080fd5b825161219a9060299060208601906141eb565b5081516121ae90602a9060208501906141b0565b5060019392505050565b3360009081526001602052604090205460ff166121d457600080fd5b6001600160a01b0381166121e757600080fd5b6001600160a01b03166000908152600260205260409020805460ff19166001179055565b606060008251600161221d9190614a57565b67ffffffffffffffff81111561223557612235614b43565b60405190808252806020026020018201604052801561225e578160200160208202803683370190505b50905060005b83518110156113065783818151811061227f5761227f614b2d565b602002602001015182828151811061229957612299614b2d565b91151560209283029190910190910152806122b381614afc565b915050612264565b600c81815481106113b257600080fd5b60608060005b6001600160a01b0384166000908152602080526040902054811015611306576122f98261124e565b6001600160a01b038516600090815260208052604090208054919350908290811061232657612326614b2d565b9060005260206000200160009054906101000a90046001600160a01b031682828151811061235657612356614b2d565b6001600160a01b03909216602092830291909101909101528061237881614afc565b9150506122d1565b60006060806060600061239387876129d0565b9296509094509250905085156123d2576001600160a01b0387166000908152602760205260409020546123c7908290614027565b94505050505061107f565b6001600160a01b0387166000908152602660205260409020546123c7908290614027565b336000908152601b602052604090206001600160a01b03831661241857600080fd5b602b541561254557602b5460048054604051636eb1769f60e11b815233928101929092523060248301526001600160a01b03169063dd62ed3e9060440160206040518083038186803b15801561246d57600080fd5b505afa158015612481573d6000803e3d6000fd5b505050506040513d601f19601f820116820180604052508101906124a591906147c5565b10156124b057600080fd5b60048054602b546040516323b872dd60e01b8152339381019390935230602484015260448301526001600160a01b0316906323b872dd90606401602060405180830381600087803b15801561250457600080fd5b505af1158015612518573d6000803e3d6000fd5b505050506040513d601f19601f8201168201806040525081019061253c919061478f565b61254557600080fd5b60005b60295481101561266257600454602980546001600160a01b039092169163a9059cbb91908490811061257c5761257c614b2d565b9060005260206000200160009054906101000a90046001600160a01b03166125d1606461171b602a87815481106125b5576125b5614b2d565b9060005260206000200154602b5461406690919063ffffffff16565b6040516001600160e01b031960e085901b1681526001600160a01b0390921660048301526024820152604401602060405180830381600087803b15801561261757600080fd5b505af115801561262b573d6000803e3d6000fd5b505050506040513d601f19601f8201168201806040525081019061264f919061478f565b508061265a81614afc565b915050612548565b50805460ff1661279657805460ff19166001178155601154600f546126879190614a91565b6126919042614a57565b6001820155336000908152601f6020908152604080832080546001600160a01b0319166001600160a01b0388169081179091558352601b90915281206009018054916126dc83614afc565b90915550506001600160a01b038316600090815260208080526040822080546001810182559083529082200180546001600160a01b03191633179055601580549161272683614afc565b9091555050336000908152602360205260409020600b80546127499291906140b2565b5060288054600090815260216020908152604080832080546001600160a01b03191633908117909155845490845260229092528220819055919061278c83614afc565b91905055506127bb565b601154600f546127a69190614a91565b81600101546127b59190614a57565b60018201555b8151610eb890600a8301906020850190614240565b6001600160a01b0381166000908152601b60209081526040808320815161018081018352815460ff16151581526001820154938101939093526002810154918301919091526003810154606083015260048101546080830152600581015460a0830152600681015460c0830152600781015460e083015260088101546101008301526009810154610120830152600a810180548493929161014084019161287690614ac7565b80601f01602080910402602001604051908101604052809291908181526020018280546128a290614ac7565b80156128ef5780601f106128c4576101008083540402835291602001916128ef565b820191906000526020600020905b8154815290600101906020018083116128d257829003601f168201915b50505050508152602001600b82015481525050905060005b600c548110156129b957600d818154811061292457612924614b2d565b906000526020600020015482610160015110158015612981575033600090815260236020526040902080548290811061295f5761295f614b2d565b90600052602060002090602091828204019190069054906101000a900460ff16155b156129a757600c818154811061299957612999614b2d565b906000526020600020015492505b806129b181614afc565b915050612907565b5050919050565b602c818154811061209a57600080fd5b6060806060600080601b6000886001600160a01b03166001600160a01b03168152602001908152602001600020604051806101800160405290816000820160009054906101000a900460ff16151515158152602001600182015481526020016002820154815260200160038201548152602001600482015481526020016005820154815260200160068201548152602001600782015481526020016008820154815260200160098201548152602001600a82018054612a8e90614ac7565b80601f0160208091040260200160405190810160405280929190818152602001828054612aba90614ac7565b8015612b075780601f10612adc57610100808354040283529160200191612b07565b820191906000526020600020905b815481529060010190602001808311612aea57829003601f168201915b5050509183525050600b91909101546020918201526001600160a01b0389166000908152601c82526040808220805482518186028101860190935280835294955091939092849084015b82821015612ba15783829060005260206000209060030201604051806060016040529081600082015481526020016001820154815260200160028201548152505081526020019060010190612b51565b505050509050606080606060008060008c15612c41576001600160a01b038e166000908152601d6020908152604080832080548251818502810185019093528083529193909284015b82821015612c3a5783829060005260206000209060030201604051806060016040529081600082015481526020016001820154815260200160028201548152505081526020019060010190612bea565b5050505096505b865160005b81811015612ec757612c57886120c4565b9750612c62876120c4565b9650612c6d8661220b565b9550888181518110612c8157612c81614b2d565b6020026020010151600001518760018951612c9c9190614ab0565b81518110612cac57612cac614b2d565b602002602001018181525050612cc06118ed565b898281518110612cd257612cd2614b2d565b602002602001015160000151612ce89190614a57565b4211612cf45742612d24565b612cfc6118ed565b898281518110612d0e57612d0e614b2d565b602002602001015160000151612d249190614a57565b92508e15612d8457888181518110612d3e57612d3e614b2d565b6020026020010151600001518a60e0015111612d7757888181518110612d6657612d66614b2d565b602002602001015160000151612d7d565b8960e001515b9350612dd8565b888181518110612d9657612d96614b2d565b6020026020010151600001518a60c0015111612dcf57888181518110612dbe57612dbe614b2d565b602002602001015160000151612dd5565b8960c001515b93505b8315801590612de657508284105b15612e6d57612df36118ed565b612dfd8585614ab0565b8a8381518110612e0f57612e0f614b2d565b602002602001015160400151612e259190614a91565b612e2f9190614a6f565b612e399086614a57565b945060018660018851612e4c9190614ab0565b81518110612e5c57612e5c614b2d565b911515602092830291909101909101525b888181518110612e7f57612e7f614b2d565b6020026020010151604001518860018a51612e9a9190614ab0565b81518110612eaa57612eaa614b2d565b602090810291909101015280612ebf81614afc565b915050612c46565b50959e949d50929b5090995091975050505050505050565b600754811015612eee57600080fd5b336000908152601b60205260409020805460ff161580612f12575080600101544210155b80612f1b575081155b80612f295750818160030154105b15612f3357600080fd5b81816003016000828254612f479190614ab0565b9091555050336000908152601f60205260409020546001600160a01b03161561304557612fc333836008805480602002602001604051908101604052809291908181526020018280548015610d3d5760200282019190600052602060002090815481526020019060010190808311610d29575050505050613d42565b336000908152601f60209081526040808320546001600160a01b03168352601b9091528120600b018054849290612ffb908490614a57565b9091555050336000908152601f60209081526040808320546001600160a01b031683526022825280832054835260249091528120805484929061303f908490614a57565b90915550505b50336000908152601d602090815260408083208151606081018352428152808401868152928101958652815460018181018455928652939094209351600390930290930191825551918101919091559051600290910155565b600080546001600160a01b031633146130b657600080fd5b82516130c990602c9060208601906141eb565b5081516121ae90602d9060208501906141b0565b600080546001600160a01b031633146130f557600080fd5b50602b55600190565b3360009081526001602052604081205460ff1661311a57600080fd5b50600e805460ff191682151517905590565b600080546001600160a01b0316331461314457600080fd5b50601355600190565b336000908152601b60205260409081902060028101546004805493516370a0823160e01b815230918101919091529192909182916001600160a01b0316906370a082319060240160206040518083038186803b1580156131ac57600080fd5b505afa1580156131c0573d6000803e3d6000fd5b505050506040513d601f19601f820116820180604052508101906131e491906147c5565b10156131ef57600080fd5b6005548110156131fe57600080fd5b6004546013546001600160a01b039091169063a9059cbb90339061322a9060649061171b908790614066565b6040516001600160e01b031960e085901b1681526001600160a01b0390921660048301526024820152604401602060405180830381600087803b15801561327057600080fd5b505af1158015613284573d6000803e3d6000fd5b505050506040513d601f19601f820116820180604052508101906132a8919061478f565b50816002016000905580601a60008282546117e39190614a57565b6006548110156132d257600080fd5b336000908152601b60205260409020805460ff166132ef57600080fd5b806001015442106132ff57600080fd5b60048054604051636eb1769f60e11b8152339281019290925230602483015283916001600160a01b039091169063dd62ed3e9060440160206040518083038186803b15801561334d57600080fd5b505afa158015613361573d6000803e3d6000fd5b505050506040513d601f19601f8201168201806040525081019061338591906147c5565b101561339057600080fd5b600480546040516323b872dd60e01b81523392810192909252306024830152604482018490526001600160a01b0316906323b872dd90606401602060405180830381600087803b1580156133e357600080fd5b505af11580156133f7573d6000803e3d6000fd5b505050506040513d601f19601f8201168201806040525081019061341b919061478f565b61342457600080fd5b336000908152601f60205260409020546001600160a01b0316156135205761349b33836008805480602002602001604051908101604052809291908181526020018280548015610d3d5760200282019190600052602060002090815481526020019060010190808311610d29575050505050613d42565b336000908152601f60209081526040808320546001600160a01b03168352601b9091528120600b81018054919285926134d5908490614a57565b9091555050336000908152601f60209081526040808320546001600160a01b0316835260228252808320548352602490915281208054859290613519908490614a57565b9091555050505b601c6000336001600160a01b03166001600160a01b031681526020019081526020016000206040518060600160405280428152602001613570606461171b6012548861406690919063ffffffff16565b815260200161358f606461171b6012548861406690919063ffffffff16565b9052815460018181018455600093845260208085208451600390940201928355830151908201556040909101516002909101556005820180548492906135d6908490614a57565b9250508190555081601660008282546135ef9190614a57565b90915550600090505b602c5481101561371057600454602c80546001600160a01b039092169163a9059cbb91908490811061362c5761362c614b2d565b9060005260206000200160009054906101000a90046001600160a01b031661367f606461171b602d878154811061366557613665614b2d565b90600052602060002001548961406690919063ffffffff16565b6040516001600160e01b031960e085901b1681526001600160a01b0390921660048301526024820152604401602060405180830381600087803b1580156136c557600080fd5b505af11580156136d9573d6000803e3d6000fd5b505050506040513d601f19601f820116820180604052508101906136fd919061478f565b508061370881614afc565b9150506135f8565b5060075481600301541061372b5761372b8160030154612edf565b5050565b600b818154811061373f57600080fd5b9060005260206000209060209182820401919006915054906101000a900460ff1681565b3360009081526001602052604090205460ff1661377f57600080fd5b81156137c6576001600160a01b0383166000908152602760205260409020546137a89082614027565b6001600160a01b038416600090815260276020526040902055505050565b6001600160a01b0383166000908152602760205260409020546137a89082614043565b600e5460ff166137f857600080fd5b336000818152601b6020526040812091613813906001612380565b600480546040516370a0823160e01b8152309281019290925291925082916001600160a01b0316906370a082319060240160206040518083038186803b15801561385c57600080fd5b505afa158015613870573d6000803e3d6000fd5b505050506040513d601f19601f8201168201806040525081019061389491906147c5565b101561389f57600080fd5b6005548110156138ae57600080fd5b6004546013546001600160a01b039091169063a9059cbb9033906138da9060649061171b908790614066565b6040516001600160e01b031960e085901b1681526001600160a01b0390921660048301526024820152604401602060405180830381600087803b15801561392057600080fd5b505af1158015613934573d6000803e3d6000fd5b505050506040513d601f19601f82011682018060405250810190613958919061478f565b508082600801600082825461396d9190614a57565b9091555050426007830155336000908152602760205260408120819055601980548392906117e3908490614a57565b60008060005b602854811015613a415760005b600c54811015613a2e57600d81815481106139cc576139cc614b2d565b9060005260206000200154602460008481526020019081526020016000205410613a1c57600c8181548110613a0357613a03614b2d565b906000526020600020015483613a199190614a57565b92505b80613a2681614afc565b9150506139af565b5080613a3981614afc565b9150506139a2565b50919050565b600a81815481106113b257600080fd5b60008060005b602854811015613a4157600081815260256020526040902054613a809083614a57565b915080613a8c81614afc565b915050613a5d565b6000546001600160a01b03163314613aab57600080fd5b6001600160a01b038116613abe57600080fd5b600080546001600160a01b039081168252600160208190526040808420805460ff1990811690915584546001600160a01b0319169590931694851784559383529290912080549091169091179055565b3360009081526001602052604081205460ff16613b2a57600080fd5b50601081905590565b600080546001600160a01b03163314613b4b57600080fd5b60008211613b5857600080fd5b6001600160a01b038381166000908152601f60205260409020541615613c5b57613bd183836008805480602002602001604051908101604052809291908181526020018280548015610d3d5760200282019190600052602060002090815481526020019060010190808311610d29575050505050613d42565b6001600160a01b038084166000908152601f60209081526040808320549093168252601b9052908120600b018054849290613c0d908490614a57565b90915550506001600160a01b038084166000908152601f6020908152604080832054909316825260228152828220548252602490529081208054849290613c55908490614a57565b90915550505b6001600160a01b0383166000908152601b602052604081206005018054849290613c86908490614a57565b925050819055508160166000828254613c9f9190614a57565b90915550610e29905083836000613f04565b601c602052816000526040600020818154811061180857600080fd5b600080546001600160a01b03163314613ce557600080fd5b600080546040516001600160a01b03909116914780156108fc02929091818181858888f19350505050158015613d1f573d6000803e3d6000fd5b5047905090565b601e602052816000526040600020818154811061180857600080fd5b6060613d4f8483516111b9565b905060008080805b8551811015613efa57858181518110613d7257613d72614b2d565b6020026020010151600014613ee357601b6000868381518110613d9757613d97614b2d565b6020908102919091018101516001600160a01b03168252810191909152604001600020805490925060ff168015613dd2575042826001015410155b15613ee85760006001600160a01b0316858281518110613df457613df4614b2d565b60200260200101516001600160a01b031614613ee357613e3c6103e861171b888481518110613e2557613e25614b2d565b60200260200101518a61406690919063ffffffff16565b9350613e73606461171b60098481548110613e5957613e59614b2d565b90600052602060002001548a61406690919063ffffffff16565b925083826002016000828254613e899190614a57565b9250508190555083826004016000828254613ea49190614a57565b9250508190555082826003016000828254613ebf9190614a57565b925050819055508360176000828254613ed89190614a57565b90915550613ee89050565b613efa565b80613ef281614afc565b915050613d57565b5050505050505050565b6000808311613f1557506000610e29565b8115613f7b576001600160a01b0384166000908152601d60209081526040808320815160608101835242815280840188815292810188815282546001818101855593875294909520905160039094020192835590519082015590516002909101556121ae565b601c6000856001600160a01b03166001600160a01b031681526020019081526020016000206040518060600160405280428152602001613fcb606461171b6012548961406690919063ffffffff16565b8152602001613fea606461171b6012548961406690919063ffffffff16565b9052815460018082018455600093845260209384902083516003909302019182559282015181840155604090910151600290910155949350505050565b6000806140348385614a57565b905083811015610e2957600080fd5b60008282111561405257600080fd5b600061405e8385614ab0565b949350505050565b6000826140755750600061107f565b60006140818385614a91565b90508261408e8583614a6f565b14610e2957600080fd5b60008082116140a657600080fd5b600061405e8385614a6f565b82805482825590600052602060002090601f0160209004810192821561410057600052602060002091601f016020900482015b828111156141005782548255916001019190600101906140e5565b5061410c9291506142b3565b5090565b82805482825590600052602060002090601f016020900481019282156141005791602002820160005b8382111561417657835183826101000a81548160ff0219169083151502179055509260200192600101602081600001049283019260010302614139565b80156141a35782816101000a81549060ff0219169055600101602081600001049283019260010302614176565b505061410c9291506142b3565b828054828255906000526020600020908101928215614100579160200282015b828111156141005782518255916020019190600101906141d0565b828054828255906000526020600020908101928215614100579160200282015b8281111561410057825182546001600160a01b0319166001600160a01b0390911617825560209092019160019091019061420b565b82805461424c90614ac7565b90600052602060002090601f01602090048101928261426e5760008555614100565b82601f1061428757805160ff1916838001178555614100565b8280016001018555821561410057918201828111156141005782518255916020019190600101906141d0565b5b8082111561410c57600081556001016142b4565b600082601f8301126142d957600080fd5b813560206142ee6142e983614a33565b614a02565b80838252828201915082860187848660051b890101111561430e57600080fd5b60005b8581101561433657813561432481614b59565b84529284019290840190600101614311565b5090979650505050505050565b600082601f83011261435457600080fd5b813560206143646142e983614a33565b80838252828201915082860187848660051b890101111561438457600080fd5b60005b8581101561433657813561439a81614b71565b84529284019290840190600101614387565b600082601f8301126143bd57600080fd5b813560206143cd6142e983614a33565b80838252828201915082860187848660051b89010111156143ed57600080fd5b60005b85811015614336578135845292840192908401906001016143f0565b60006020828403121561441e57600080fd5b8135610e2981614b59565b6000806040838503121561443c57600080fd5b823561444781614b59565b9150602083013561445781614b59565b809150509250929050565b6000806040838503121561447557600080fd5b823561448081614b59565b9150602083013561445781614b71565b6000806000606084860312156144a557600080fd5b83356144b081614b59565b925060208401356144c081614b71565b929592945050506040919091013590565b600080604083850312156144e457600080fd5b82356144ef81614b59565b915060208381013567ffffffffffffffff8082111561450d57600080fd5b818601915086601f83011261452157600080fd5b81358181111561453357614533614b43565b614545601f8201601f19168501614a02565b9150808252878482850101111561455b57600080fd5b80848401858401376000848284010152508093505050509250929050565b6000806040838503121561458c57600080fd5b823561459781614b59565b946020939093013593505050565b6000806000606084860312156145ba57600080fd5b83356145c581614b59565b92506020840135915060408401356145dc81614b71565b809150509250925092565b6000602082840312156145f957600080fd5b813567ffffffffffffffff81111561461057600080fd5b61405e848285016142c8565b6000806040838503121561462f57600080fd5b823567ffffffffffffffff8082111561464757600080fd5b614653868387016142c8565b9350602085013591508082111561466957600080fd5b50614676858286016143ac565b9150509250929050565b60006020828403121561469257600080fd5b813567ffffffffffffffff8111156146a957600080fd5b61405e84828501614343565b6000806000606084860312156146ca57600080fd5b833567ffffffffffffffff808211156146e257600080fd5b6146ee87838801614343565b9450602086013591508082111561470457600080fd5b614710878388016143ac565b9350604086013591508082111561472657600080fd5b50614733868287016143ac565b9150509250925092565b60006020828403121561474f57600080fd5b813567ffffffffffffffff81111561476657600080fd5b61405e848285016143ac565b60006020828403121561478457600080fd5b8135610e2981614b71565b6000602082840312156147a157600080fd5b8151610e2981614b71565b6000602082840312156147be57600080fd5b5035919050565b6000602082840312156147d757600080fd5b5051919050565b600080604083850312156147f157600080fd5b82359150602083013561445781614b71565b6000806040838503121561481657600080fd5b50508035926020909101359150565b600081518084526020808501945080840160005b83811015614857578151151587529582019590820190600101614839565b509495945050505050565b600081518084526020808501945080840160005b8381101561485757815187529582019590820190600101614876565b6020808252825182820181905260009190848201906040850190845b818110156148d35783516001600160a01b0316835292840192918401916001016148ae565b50909695505050505050565b602081526000610e296020830184614825565b602081526000610e296020830184614862565b6080815260006149186080830187614862565b828103602084015261492a8187614862565b9050828103604084015261493e8186614825565b91505082606083015295945050505050565b60006101808e1515835260208e818501528d60408501528c60608501528b60808501528a60a08501528960c08501528860e085015287610100850152866101208501528161014085015285518083860152600092505b808310156149c5578683018201518584016101a00152918101916149a6565b808311156149d85760006101a082870101525b610160850195909552505050601f91909101601f1916016101a0019b9a5050505050505050505050565b604051601f8201601f1916810167ffffffffffffffff81118282101715614a2b57614a2b614b43565b604052919050565b600067ffffffffffffffff821115614a4d57614a4d614b43565b5060051b60200190565b60008219821115614a6a57614a6a614b17565b500190565b600082614a8c57634e487b7160e01b600052601260045260246000fd5b500490565b6000816000190483118215151615614aab57614aab614b17565b500290565b600082821015614ac257614ac2614b17565b500390565b600181811c90821680614adb57607f821691505b60208210811415613a4157634e487b7160e01b600052602260045260246000fd5b6000600019821415614b1057614b10614b17565b5060010190565b634e487b7160e01b600052601160045260246000fd5b634e487b7160e01b600052603260045260246000fd5b634e487b7160e01b600052604160045260246000fd5b6001600160a01b0381168114614b6e57600080fd5b50565b8015158114614b6e57600080fdfea26469706673582212205fb3595afbb8c8207e2424838d399b894b6dec6a745d75954a1e8066980667a164736f6c63430008070033",
    "sourcePath": "c:/Users/STC/Documents/GitHub/00-IB-2-last/contracts/infinitySystemV2/UnilevelSystemV2.sol",
    "compiler": {
        "name": "solc",
        "version": "0.8.7+commit.e28d00a7"
    },
    "functionHashes": {
        "ChangeTokenPrincipal(address)": "50da983f",
        "MIN_RETIRO()": "6c529279",
        "PRECIO_BLOCK()": "24de19f2",
        "PRECIO_BLOCK_infinity()": "627b31b0",
        "actualizarArrayBool(bool[])": "7fcc1e36",
        "actualizarArrayUint256(uint256[])": "7367b080",
        "actualizarNetwork(address[])": "1ce7f99b",
        "adInfinity(address)": "1fe2c8fe",
        "adRoi(address)": "a39ebac2",
        "addInfinity(address,bool,uint256)": "d6536332",
        "addReferal(address,bool,uint256)": "0fe8964c",
        "addRoi(address,bool,uint256)": "6f11c6c0",
        "addressToId(address)": "cb0e0d7d",
        "admin(address)": "63a846f8",
        "admin2(address)": "af4c6c17",
        "asignarBlokePago(address,uint256)": "fc5d8615",
        "asignarBlokePago2(address,uint256,bool)": "0fa3d77d",
        "asignarMembership(address,address)": "1053abb1",
        "baserange(uint256)": "cfda9ee6",
        "baserangelength()": "f5c9dbef",
        "blockesRango(uint256)": "b5df6d44",
        "blokes(address,uint256)": "fcec0fdf",
        "buyBlocks(uint256)": "c17dbdf9",
        "buyInfinityBlock(uint256)": "a5a7e04c",
        "column(address,uint256)": "15e8392b",
        "columnHijos(address)": "815374ca",
        "controlWitdrawl(bool)": "b17b6e44",
        "depositos(address,bool)": "a365528b",
        "descuento()": "7b0412ed",
        "dias()": "ab6db199",
        "duracionMembership()": "c40d5dbc",
        "gananciasRango(uint256)": "81032892",
        "hijo(address,uint256)": "339640b5",
        "idToAddress(uint256)": "2a2d0c47",
        "infinity(uint256)": "edf5eb1d",
        "infinityBlokes(address,uint256)": "41f1771c",
        "investors(address)": "6f7bc9be",
        "lastUserId()": "348d4487",
        "makeNewAdmin(address)": "69ed1e0a",
        "makeNewAdmin2(address)": "7eff829c",
        "makeRemoveAdmin(address)": "70a0966b",
        "makeRemoveAdmin2(address)": "0dcf5535",
        "newRecompensa()": "69f4a84b",
        "oldBlokes(address,uint256)": "fd9a3fad",
        "onOffWitdrawl()": "e7348e8c",
        "owner()": "8da5cb5b",
        "padre(address)": "b35f0a8f",
        "personas()": "cc759ba2",
        "porcent()": "4728f718",
        "porcientos(uint256)": "28cca719",
        "precioRegistro()": "7db9e9c6",
        "primervez(uint256)": "725fc270",
        "puntosRango(uint256)": "21309f21",
        "rangoReclamado(address,uint256)": "2acc8210",
        "redimBNB()": "fd14d598",
        "redimTokenPrincipal02(uint256)": "1140e85b",
        "registro(address,string)": "8f9ef8c1",
        "setDescuento(uint256)": "b3d9fa09",
        "setMIN_RETIRO(uint256)": "4de1be62",
        "setPorcientos(uint256,uint256)": "1e403c35",
        "setPorcientosSalida(uint256,uint256)": "5d216c60",
        "setPrecioRegistro(uint256)": "aaa749c5",
        "setPriceBlock(uint256,bool)": "23e5a5a1",
        "setPrimeravezPorcientos(uint256,uint256)": "54822522",
        "setRangos(bool[],uint256[],uint256[])": "43bf0bd4",
        "setRetorno(uint256)": "6589fa8a",
        "setTiempo(uint256)": "f90b3f5a",
        "setTiempoUnidades(uint256)": "2748d29b",
        "setWalletFee(address[],uint256[])": "7583f8fc",
        "setWalletstransfers(address[],uint256[])": "a8beb717",
        "setduracionMembership(uint256)": "4acb7240",
        "tiempo()": "50188c08",
        "tokenPricipal()": "b1390426",
        "totalInvested()": "5216aeec",
        "totalInvestors()": "29b8caff",
        "totalRange()": "ecdb171f",
        "totalRangeWitdrawl()": "eef117fd",
        "totalRefRewards()": "bfe0e020",
        "totalRefWitdrawl()": "9b8ff503",
        "totalRoiWitdrawl()": "70d7e3d5",
        "totalTeamWitdrawl()": "ff0b0cc5",
        "transferOwnership(address)": "f2fde38b",
        "unidades()": "4b9b8203",
        "updateBloke(address,uint256,bool)": "317cc772",
        "updateBlokeRange(address,uint256,bool)": "65535cb0",
        "usdtRetirado(uint256)": "1f5d65fd",
        "valor(uint256)": "62550916",
        "valorFee(uint256)": "29e1a243",
        "wallet(uint256)": "a2781335",
        "walletFee(uint256)": "7251b9ac",
        "withdraw()": "3ccfd60b",
        "withdraw2()": "ea98847b",
        "withdrawTeam()": "bb51f32d",
        "withdrawable(address,bool)": "89b2521c",
        "withdrawableRange(address)": "98c07d0a"
    },
    "gasEstimates": {
        "creation": {
            "codeDepositCost": "3876200",
            "executionCost": "infinite",
            "totalCost": "infinite"
        },
        "external": {
            "ChangeTokenPrincipal(address)": "51087",
            "MIN_RETIRO()": "2362",
            "PRECIO_BLOCK()": "2386",
            "PRECIO_BLOCK_infinity()": "2363",
            "actualizarArrayBool(bool[])": "infinite",
            "actualizarArrayUint256(uint256[])": "infinite",
            "actualizarNetwork(address[])": "infinite",
            "adInfinity(address)": "2670",
            "adRoi(address)": "2669",
            "addInfinity(address,bool,uint256)": "infinite",
            "addReferal(address,bool,uint256)": "infinite",
            "addRoi(address,bool,uint256)": "infinite",
            "addressToId(address)": "2602",
            "admin(address)": "2604",
            "admin2(address)": "2647",
            "asignarBlokePago(address,uint256)": "infinite",
            "asignarBlokePago2(address,uint256,bool)": "infinite",
            "asignarMembership(address,address)": "infinite",
            "baserange(uint256)": "6358",
            "baserangelength()": "2469",
            "blockesRango(uint256)": "2550",
            "blokes(address,uint256)": "9135",
            "buyBlocks(uint256)": "infinite",
            "buyInfinityBlock(uint256)": "infinite",
            "column(address,uint256)": "infinite",
            "columnHijos(address)": "infinite",
            "controlWitdrawl(bool)": "26939",
            "depositos(address,bool)": "infinite",
            "descuento()": "2430",
            "dias()": "2406",
            "duracionMembership()": "2362",
            "gananciasRango(uint256)": "4665",
            "hijo(address,uint256)": "4912",
            "idToAddress(uint256)": "2545",
            "infinity(uint256)": "4686",
            "infinityBlokes(address,uint256)": "9094",
            "investors(address)": "infinite",
            "lastUserId()": "2451",
            "makeNewAdmin(address)": "26998",
            "makeNewAdmin2(address)": "27009",
            "makeRemoveAdmin(address)": "26906",
            "makeRemoveAdmin2(address)": "26843",
            "newRecompensa()": "infinite",
            "oldBlokes(address,uint256)": "9179",
            "onOffWitdrawl()": "2476",
            "owner()": "2493",
            "padre(address)": "2620",
            "personas()": "2406",
            "porcent()": "2408",
            "porcientos(uint256)": "4710",
            "precioRegistro()": "2452",
            "primervez(uint256)": "4644",
            "puntosRango(uint256)": "4754",
            "rangoReclamado(address,uint256)": "6482",
            "redimBNB()": "infinite",
            "redimTokenPrincipal02(uint256)": "infinite",
            "registro(address,string)": "infinite",
            "setDescuento(uint256)": "24617",
            "setMIN_RETIRO(uint256)": "24714",
            "setPorcientos(uint256,uint256)": "infinite",
            "setPorcientosSalida(uint256,uint256)": "infinite",
            "setPrecioRegistro(uint256)": "24616",
            "setPriceBlock(uint256,bool)": "24734",
            "setPrimeravezPorcientos(uint256,uint256)": "infinite",
            "setRangos(bool[],uint256[],uint256[])": "infinite",
            "setRetorno(uint256)": "24717",
            "setTiempo(uint256)": "24649",
            "setTiempoUnidades(uint256)": "24648",
            "setWalletFee(address[],uint256[])": "infinite",
            "setWalletstransfers(address[],uint256[])": "infinite",
            "setduracionMembership(uint256)": "24662",
            "tiempo()": "infinite",
            "tokenPricipal()": "2492",
            "totalInvested()": "2407",
            "totalInvestors()": "2452",
            "totalRange()": "infinite",
            "totalRangeWitdrawl()": "infinite",
            "totalRefRewards()": "2451",
            "totalRefWitdrawl()": "2385",
            "totalRoiWitdrawl()": "2450",
            "totalTeamWitdrawl()": "2471",
            "transferOwnership(address)": "77584",
            "unidades()": "2452",
            "updateBloke(address,uint256,bool)": "infinite",
            "updateBlokeRange(address,uint256,bool)": "infinite",
            "usdtRetirado(uint256)": "2573",
            "valor(uint256)": "4753",
            "valorFee(uint256)": "4754",
            "wallet(uint256)": "4726",
            "walletFee(uint256)": "4791",
            "withdraw()": "infinite",
            "withdraw2()": "infinite",
            "withdrawTeam()": "infinite",
            "withdrawable(address,bool)": "infinite",
            "withdrawableRange(address)": "infinite"
        },
        "internal": {
            "_asignarBloke(address,uint256,bool)": "infinite",
            "rewardReferers(address,uint256,uint256[] memory)": "infinite"
        }
    }
}