{
    "contractName": "Proxy",
    "abi": [
        {
            "anonymous": false,
            "inputs": [
                {
                    "indexed": true,
                    "internalType": "address",
                    "name": "admin",
                    "type": "address"
                }
            ],
            "name": "AdminRemoved",
            "type": "event"
        },
        {
            "anonymous": false,
            "inputs": [
                {
                    "indexed": true,
                    "internalType": "address",
                    "name": "admin",
                    "type": "address"
                }
            ],
            "name": "NewAdmin",
            "type": "event"
        },
        {
            "anonymous": false,
            "inputs": [
                {
                    "indexed": true,
                    "internalType": "address",
                    "name": "previousOwner",
                    "type": "address"
                },
                {
                    "indexed": true,
                    "internalType": "address",
                    "name": "newOwner",
                    "type": "address"
                }
            ],
            "name": "OwnershipTransferred",
            "type": "event"
        },
        {
            "stateMutability": "payable",
            "type": "fallback"
        },
        {
            "inputs": [
                {
                    "internalType": "address",
                    "name": "",
                    "type": "address"
                }
            ],
            "name": "admin",
            "outputs": [
                {
                    "internalType": "bool",
                    "name": "",
                    "type": "bool"
                }
            ],
            "stateMutability": "view",
            "type": "function"
        },
        {
            "inputs": [],
            "name": "implementation",
            "outputs": [
                {
                    "internalType": "address",
                    "name": "",
                    "type": "address"
                }
            ],
            "stateMutability": "view",
            "type": "function"
        },
        {
            "inputs": [
                {
                    "internalType": "address payable",
                    "name": "_newadmin",
                    "type": "address"
                }
            ],
            "name": "makeNewAdmin",
            "outputs": [],
            "stateMutability": "nonpayable",
            "type": "function"
        },
        {
            "inputs": [
                {
                    "internalType": "address payable",
                    "name": "_oldadmin",
                    "type": "address"
                }
            ],
            "name": "makeRemoveAdmin",
            "outputs": [],
            "stateMutability": "nonpayable",
            "type": "function"
        },
        {
            "inputs": [],
            "name": "owner",
            "outputs": [
                {
                    "internalType": "address payable",
                    "name": "",
                    "type": "address"
                }
            ],
            "stateMutability": "view",
            "type": "function"
        },
        {
            "inputs": [
                {
                    "internalType": "address payable",
                    "name": "newOwner",
                    "type": "address"
                }
            ],
            "name": "transferOwnership",
            "outputs": [],
            "stateMutability": "nonpayable",
            "type": "function"
        },
        {
            "inputs": [
                {
                    "internalType": "address",
                    "name": "_imp",
                    "type": "address"
                }
            ],
            "name": "upgradeImplementation",
            "outputs": [],
            "stateMutability": "nonpayable",
            "type": "function"
        },
        {
            "inputs": [],
            "name": "upgraded",
            "outputs": [
                {
                    "internalType": "uint256",
                    "name": "",
                    "type": "uint256"
                }
            ],
            "stateMutability": "view",
            "type": "function"
        },
        {
            "stateMutability": "payable",
            "type": "receive"
        }
    ],
    "bytecode": "608060405234801561001057600080fd5b50600080546001600160a01b0319163390811782558152600160208190526040909120805460ff191690911790556105148061004d6000396000f3fe60806040526004361061007f5760003560e01c806383f94db71161004e57806383f94db71461016d5780638da5cb5b1461018d578063c28de2cd146101ad578063f2fde38b146101d15761009b565b80635c60da1b146100b057806363a846f8146100ed57806369ed1e0a1461012d57806370a0966b1461014d5761009b565b3661009b57600254610099906001600160a01b03166101f1565b005b600254610099906001600160a01b03166101f1565b3480156100bc57600080fd5b506002546100d0906001600160a01b031681565b6040516001600160a01b0390911681526020015b60405180910390f35b3480156100f957600080fd5b5061011d610108366004610491565b60016020526000908152604090205460ff1681565b60405190151581526020016100e4565b34801561013957600080fd5b50610099610148366004610491565b610215565b34801561015957600080fd5b50610099610168366004610491565b61029f565b34801561017957600080fd5b50610099610188366004610491565b61031e565b34801561019957600080fd5b506000546100d0906001600160a01b031681565b3480156101b957600080fd5b506101c360035481565b6040519081526020016100e4565b3480156101dd57600080fd5b506100996101ec366004610491565b610368565b3660008037600080366000845af43d6000803e808015610210573d6000f35b3d6000fd5b3360009081526001602052604090205460ff1661023157600080fd5b6001600160a01b03811661024457600080fd5b6040516001600160a01b038216907f71614071b88dee5e0b2ae578a9dd7b2ebbe9ae832ba419dc0242cd065a290b6c90600090a26001600160a01b03166000908152600160208190526040909120805460ff19169091179055565b6000546001600160a01b031633146102b657600080fd5b6001600160a01b0381166102c957600080fd5b6040516001600160a01b038216907fa3b62bc36326052d97ea62d63c3d60308ed4c3ea8ac079dd8499f1e9c4f80c0f90600090a26001600160a01b03166000908152600160205260409020805460ff19169055565b6000546001600160a01b0316331461033557600080fd5b600280546001600160a01b0319166001600160a01b03831617905560038054906000610360836104b5565b919050555050565b6000546001600160a01b0316331461037f57600080fd5b6001600160a01b03811661039257600080fd5b600080546040516001600160a01b03808516939216917f8be0079c531659141344cd1fd0a4f28419497f9722a3daafe3b4186f6b6457e091a3600080546001600160a01b03908116825260016020526040808320805460ff19169055825490519116917fa3b62bc36326052d97ea62d63c3d60308ed4c3ea8ac079dd8499f1e9c4f80c0f91a2600080546001600160a01b0319166001600160a01b0383169081178255808252600160208190526040808420805460ff19169092179091555190917f71614071b88dee5e0b2ae578a9dd7b2ebbe9ae832ba419dc0242cd065a290b6c91a250565b6001600160a01b038116811461048e57600080fd5b50565b6000602082840312156104a357600080fd5b81356104ae81610479565b9392505050565b60006000198214156104d757634e487b7160e01b600052601160045260246000fd5b506001019056fea264697066735822122083d05af10b5b7c9856c0306863c8114ea80f16527129cc3c969f16f3e8c8ea1264736f6c634300080a0033",
    "sourcePath": "c:/Users/STC/Documents/GitHub/00-IB-2-last/contracts/infinitySystemV2/UnilevelSystemV2.1.sol",
    "compiler": {
        "name": "solc",
        "version": "0.8.10+commit.fc410830"
    },
    "functionHashes": {
        "admin(address)": "63a846f8",
        "implementation()": "5c60da1b",
        "makeNewAdmin(address)": "69ed1e0a",
        "makeRemoveAdmin(address)": "70a0966b",
        "owner()": "8da5cb5b",
        "transferOwnership(address)": "f2fde38b",
        "upgradeImplementation(address)": "83f94db7",
        "upgraded()": "c28de2cd"
    },
    "gasEstimates": {
        "creation": {
            "codeDepositCost": "260000",
            "executionCost": "48837",
            "totalCost": "308837"
        },
        "external": {
            "": "infinite",
            "admin(address)": "2548",
            "implementation()": "2327",
            "makeNewAdmin(address)": "28054",
            "makeRemoveAdmin(address)": "28007",
            "owner()": "2348",
            "transferOwnership(address)": "85555",
            "upgradeImplementation(address)": "50984",
            "upgraded()": "2339"
        },
        "internal": {
            "_delegate(address)": "infinite"
        }
    }
}